S0370000626F6F746C6F616465722D73746F726167652D696E7465726E616C2D73696E676C652D3531326B2D636F6D62696E65642E73333799
S3150FE100000F4880F308880F4800470000D105E10F3C
S3150FE10010D105E10FD105E10FD105E10FD105E10FD2
S3150FE10020D105E10FD105E10FEC05E10FD105E10FA7
S3150FE10030D105E10FD105E10FD105E10FD105E10FB2
S3150FE10040004000208505E10F0348044B834202D0AF
S3150FE10050034B03B118477047140100201401002028
S3150FE10060000000000548064B1B1AD90F01EBA3014F
S3150FE10070491002D0034B03B1184770471401002012
S3150FE10080140100200000000010B5064C237843B997
S3150FE10090FFF7DAFF044B13B10448AFF300800123F6
S3150FE100A0237010BD14010020000000000006E10FCF
S3150FE100B008B5054B1BB105490548AFF30080BDE80F
S3150FE100C00840FFF7CFBF00BF000000001801002076
S3150FE100D00006E10F044B054A9A60D3F8882042F4F3
S3150FE100E07002C3F88820704700ED00E00000E10FD1
S3150FE100F0094A0A4BD969C90705D512B96FF002004A
S3150FE101007047013AF6E7002AF8D001221861DA6062
S3150FE10110D86940F3800070478096980000000E4042
S3150FE1012070B509B9002070BD0E4A0023082550F8B5
S3150FE10130234094610C4CD5600133D669F60705D59A
S3150FE1014014B96FF00200EEE7013CF6E7002CF8D0A8
S3150FE10150D469A40702D49942E9D1E3E76FF001002C
S3150FE10160E1E700BF00000E40809698002DE9F843C5
S3150FE101701C4B0D4641F671311E6C19641A498046C6
S3150FE1018048684968996841F00101B6B299609708E4
S3150FE101904FF00009B94501D3002005E008EB8904CA
S3150FE101A02046FFF7A5FF48B10E4B9A6822F00102F0
S3150FE101B09A600EB100221A64BDE8F883C4F30A010E
S3150FE101C0C1F500618908A7EB0903994228BF1946D2
S3150FE101D02846FFF7A5FF0028E6D1894405EB8105FF
S3150FE101E0D8E700BF00000E4000300E40234B41F62A
S3150FE101F071311A6C10B5196421494C6849689968CF
S3150FE1020041F00101996001211861D960D9694C0763
S3150FE1021092B209D5996821F0010199600AB10022DC
S3150FE102201A644FF0FF3010BD0221D9601549D86924
S3150FE10230C00700D569B9D86910F002000BD09968EB
S3150FE1024021F0010199600AB100221A646FF00100F1
S3150FE10250E9E70139EBE741B9986820F001009860C9
S3150FE1026002B119646FF00200DDE7996821F001012F
S3150FE1027099600AB90020D6E71864FBE700000E4043
S3150FE1028000300E4080969800FFF770BF08B50A4B15
S3150FE102901A680A4B1A600A4B40221A615A685203CE
S3150FE102A0FCD400F07DF80028FBD040F2022000F0EC
S3150FE102B0C9F8002008BD00BF040100200801002095
S3150FE102C000300E4010B5104C104BA36000F0D8F87B
S3150FE102D00F4B5B68B3F5803F09D040F20923984293
S3150FE102E002D0B0F5007F02D100F016F850B9094BF4
S3150FE102F0A3601846016881F3088881F3098840688D
S3150FE103008746FEE710BD00BF00ED00E00000E10FFC
S3150FE1031000500E400008E10F2DE9F041DFF87C8037
S3150FE10320D8F828201069D568836AAB4202D200203B
S3150FE10330BDE8F08105F560529A42F8D95B1BC61804
S3150FE10340C758144B9F42F2D1F1684FF0FF3200F0DC
S3150FE10350FFF8114B98420446E9D1D8F82838A3F1B2
S3150FE103607E62A2F58432B2F5605F10D21A68BA42A4
S3150FE103700DD1B1689A68914209D8D9684FF0FF3229
S3150FE10380284600F0E5F8001B18BF0120D0E7012051
S3150FE10390CEE700BF07B0CD5EE320BBDE0000E10F85
S3150FE103A0F8B5194B9B6AD3E90347BB6A1B1BFD18CB
S3150FE103B02646EA68A318B3421DD83946204600F00F
S3150FE103C092F8B8B1104BD3F82838A3F17E62A2F5B3
S3150FE103D08432B2F5605F14D219680C4A914210D19A
S3150FE103E0D9684FF0FF32204600F0B2F8084BC31A36
S3150FE103F058425841F8BD304600F06EF806F50066F2
S3150FE10400D7E70020F6E700BF0000E10F07B0CD5EAA
S3150FE10410E320BBDE4FF000534AF6C0305B8823F092
S3150FE104200F039BB21B1A5842584170474FF00052C7
S3150FE1043008B51080FFF7EEFF10B94FF20F035380A7
S3150FE1044008BD000008B5FFF7F1FF0A4A136823F468
S3150FE10450E06343F400731360BFF34F8F0649074B15
S3150FE10460CA6802F4E0621343CB60BFF34F8F00BF5C
S3150FE10470FDE700BF00500E4000ED00E00400FA0575
S3150FE104804FF000534FF20F015A888A4201D1188873
S3150FE1049070473AB91B88012B40F2022018BF4FF47F
S3150FE104A0007070474FF40070704707B503469B071E
S3150FE104B053BF6FEA01414FF6FF7343EA01416FEA1A
S3150FE104C011410422019120F003000DEB0201FFF728
S3150FE104D0DBFE03B05DF804FB08B5FFF787FEB0FA64
S3150FE104E080F0400908BDF8B505460E4614460AB92F
S3150FE104F00120F8BD42EA0003DA0701D50020F8E74B
S3150FE10500830721D50988FFF7D0FF0028F6D1023CF2
S3150FE10510032C05F1020506F102060BD924F00307B8
S3150FE105203A4631462846FFF7AFFE0028E6D13E446C
S3150FE105303D44E41B002CDBD031882846FFF7B5FF9D
S3150FE10540B0FA80F04009D4E7032CE7D8F4E70000CE
S3150FE1055010B50A4CD4F8B03043F04003C4F8B030CC
S3150FE10560074B01241C6001449A605C60884201D10B
S3150FE10570D86910BD10F8012B9A61F7E700400E40DC
S3150FE1058000C001400B4880470B4880470B490C4A96
S3150FE105900C4B9A42BEBF51F8040B42F8040BF8E735
S3150FE105A009490A4A00209142BCBF41F8040BFAE718
S3150FE105B0FFF76CFED500E10FC502E10F0406E10F6F
S3150FE105C00401002014010020140100203001002055
S3150FE105D0FEE700BFF8B500BFF8BC08BC9E46704702
S3150FE105E0F8B500BFF8BC08BC9E467047AD1007B022
S3150FE105F00100000000000C010008E10F008000007F
S3150FE1060000000000C0EA2101C0EA2101B100E10FBB
S3090FE106108900E10F77
S3150FE10800081000209F28E10F9D28E10F2929E10F0C
S3150FE108109D28E10F9D28E10F9D28E10F9D28E10F0E
S3150FE108209D28E10F9D28E10FC434E10F9D28E10FCB
S3150FE108309D28E10F7434E10F9D28E10F9D28E10F0B
S3150FE108409D28E10F9D28E10F9D28E10F9D28E10FDE
S3150FE108509D28E10F9D28E10F9D28E10F9D28E10FCE
S3150FE108609D28E10F9D28E10F9D28E10F9D28E10FBE
S3150FE108709D28E10F9D28E10F9D28E10F9D28E10FAE
S3150FE108809D28E10F9D28E10F9D28E10F9D28E10F9E
S3150FE108909D28E10F9D28E10F9D28E10F9D28E10F8E
S3150FE108A09D28E10F9D28E10F9D28E10F9D28E10F7E
S3150FE108B09D28E10F9D28E10F9D28E10F9D28E10F6E
S3150FE108C09D28E10F9D28E10F9D28E10F9D28E10F5E
S3150FE108D09D28E10F9D28E10F9D28E10F9D28E10F4E
S3150FE108E09D28E10F9D28E10F9D28E10F9D28E10F3E
S3150FE108F09D28E10F9D28E10F9D28E10F0348044B49
S3150FE10900834202D0034B03B1184770471010002002
S3150FE1091010100020000000000548064B1B1AD90FE6
S3150FE1092001EBA301491002D0034B03B118477047FE
S3150FE1093010100020101000200000000010B5064C2A
S3150FE10940237843B9FFF7DAFF044B13B10448AFF34A
S3150FE1095000800123237010BD281000200000000045
S3150FE10960F436E10F08B5054B1BB105490548AFF361
S3150FE109700080BDE80840FFF7CFBF00BF00000000D1
S3150FE1098010100020F436E10F064B0748DA1C121A55
S3150FE10990C11E22F00302994288BF0022034902F0E9
S3150FE109A02ABD00BF10100020081000200037E10F0C
S3150FE109B0064B0748DA1C121AC11E22F003029942AE
S3150FE109C088BF0022002102F00EBD00BF2C100020CF
S3150FE109D010100020044B054A9A60D3F8882042F4A0
S3150FE109E07002C3F88820704700ED00E00008E10FC0
S3150FE109F070B4084DD5F828582E698642034606D8B5
S3150FE10A006C6913449C4202D370BC01F053BF70BCB6
S3150FE10A10704700BF0000E10F37B51446144A936AD9
S3150FE10A200D461968134B994220D100F5004310F595
S3150FE10A30004F01931AD2019BB3F5002F16D2019BFA
S3150FE10A40C3F50023A34211D340B9D2F828385A6926
S3150FE10A50B2F5004F02D9186902F007F8019822465C
S3150FE10A60294603B0BDE8304001F024BF03B030BDE5
S3150FE10A700000E10FAD1007B0F0B5421ED11C85B0F5
S3150FE10A80034618D80D4C6E4604F1100720686168CD
S3150FE10A90354603C50834BC422E46F7D104A90F33B8
S3150FE10AA011F8014D12F8010F844204D19A42F7D1A0
S3150FE10AB0012005B0F0BD0020FBE700BF6034E10F78
S3150FE10AC0F0B5036803F16043B3F5803F9FB0044689
S3150FE10AD05DD8314A4368D2F8282816699E4256D81E
S3150FE10AE0B3F5002F53D8456B06F14003AB4250D80F
S3150FE10AF0B5F5002F4DD82846FFF7BEFF002848D0A1
S3150FE10B00284601F0F9FE80B16F6977B1022F0ED158
S3150FE10B10AB69C4F1040119444FF0FF32204600F0EE
S3150FE10B2001FD1E4BC31A584258411FB0F0BD40F2AA
S3150FE10B30046328460393FFF79FFF0028F5D0012FA3
S3150FE10B4025D1AD69AE4222D8AC4220D8B5F5002FFA
S3150FE10B501DD804A802F006F92A1B214604A802F0C3
S3150FE10B600BF904A802F00AF900F036FD044600F08D
S3150FE10B7037FD2346009005F12002294604A800F02F
S3150FE10B80EBFC03900398B0FA80F04009CDE7002023
S3150FE10B90CBE70120C9E700BF0000E10FE320BBDE91
S3150FE10BA008B54FF0FF3200F0BDFC044B984203D17C
S3150FE10BB040F2092000F00CF9002008BDE320BBDE6E
S3150FE10BC0304B13B501225A641A6842F480721A60E7
S3150FE10BD001A801F021FE9DF80530012B03D89DF800
S3150FE10BE00430022B0DD9284B4FF41872C3F88C221F
S3150FE10BF0264AC3F89022264AC3F8F022254AC3F8BB
S3150FE10C00F822254BD3F8A42142F4F842C3F8A421E4
S3150FE10C105B6801F07BFE00F0A3F808B900F088F8F5
S3150FE10C2002F022F9044658B900F09AF808B100F03B
S3150FE10C308FF840F2012000F0CBF84FF4017018E085
S3150FE10C4000F08EF808B900F07BF800F0A3F8012860
S3150FE10C5002D900F06DF8FEE700F0A8F80F4B01930B
S3150FE10C60019B002B0ADC40F205439C42E5D140F2A1
S3150FE10C70032000F0ADF8002002B010BD019B013B4F
S3150FE10C80EDE700BF00000E4000400E409A6F0500F1
S3150FE10C90180100040084320800300E4000350C00C4
S3150FE10CA013B501238DF806308DF807301E4B5B68BF
S3150FE10CB05A050FD500F0AAF8A0F2022080B2072854
S3150FE10CC008D8C923C340DB0742BF00238DF806309E
S3150FE10CD08DF8073000246368013307D14FF40270B2
S3150FE10CE000F04CF88DF806408DF807409DF8073077
S3150FE10CF05BB10020FFF7E4FE8DF806009DF80630A4
S3150FE10D001BB94FF4027000F039F89DF806304BB17C
S3150FE10D1000F026F808B100F01BF8044B00209860AC
S3150FE10D2001F0F8FD02B010BD00500E4000ED00E0FD
S3150FE10D30024B4CF23C325A80704700BF0000002054
S3150FE10D40024B4AF6C0325A80704700BF00000020BE
S3150FE10D50024B4FF20F025A80704700BF000000208E
S3150FE10D60054B5B8823F00F034AF6C0309BB21B1A83
S3150FE10D7058425841704700BF00000020044A08B5A9
S3150FE10D801080FFF7EDFF10B94FF20F03538008BD47
S3150FE10D900000002008B5FFF7E3FF18B1024B5888B2
S3150FE10DA000F00F0008BD00BF0000002008B5FFF7F7
S3150FE10DB0D7FF48B1054A538803F00F010F2914BF36
S3150FE10DC0013323F00F03538008BD00BF000000205D
S3150FE10DD008B5FFF7D3FF0A4A136823F4E06343F438
S3150FE10DE000731360BFF34F8F0649074BCA6802F4CE
S3150FE10DF0E0621343CB60BFF34F8F00BFFDE700BF48
S3150FE10E0000500E4000ED00E00400FA05094B5A8848
S3150FE10E104FF20F018A4201D1188870473AB91B8800
S3150FE10E20012B40F2022018BF4FF4007070474FF4C8
S3150FE10E300070704700000020074930B502460023D5
S3150FE10E400C2505FB03F460180C59944203D00133CA
S3150FE10E500A2BF6D1002030BD0C35E10FF0B587B086
S3150FE10E6000230827CDE9013315463B46009704AA2F
S3150FE10E70044601F099FE41F203039842064623D157
S3150FE10E8094F8433053B1E06C3A4604A901F074FF8C
S3150FE10E9004AAA06C3B46114601F053FF059A6A601E
S3150FE10EA094F84320049B2B6052B9094A934207D029
S3150FE10EB0084A934204D0E06C082204A901F05CFFD2
S3150FE10EC06B68236500236365304607B0F0BD00BF4D
S3150FE10ED0F70A0AF7FC0404FC2DE9F04799465B682B
S3150FE10EE004460F469046002B41D08B0742D1234B48
S3150FE10EF0006ED3F828381B6981181D1DA9421BD333
S3150FE10F001C33984218D2A842024638BF2A46101A15
S3150FE10F103E18C5F16800994294BFC2EB010AC2EBD4
S3150FE10F20030A104431465246204402F064FA52460F
S3150FE10F30FF21304602F057FA226E48F204039A4235
S3150FE10F400CD802EB080048F20701884206D99B1A32
S3150FE10F50FA58C4F880204FF0FF32FA50D9E900353C
S3150FE10F60206E42463946A847236E43442366002046
S3150FE10F70BDE8F08741F20200FAE700BF0000E10F9A
S3150FE10F802DE9F04FA7B0CDE913239846309F002303
S3150FE10F9004460E4615934FF00109159A424501D3C2
S3150FE10FA00020C6E094F84630102BF7D8DFE813F0AF
S3150FE10FB05C00A900A3004200290011018A01290062
S3150FE10FC08201290082013E02B302110007010802E4
S3150FE10FD0B1020025636D0F2B00F291801023009370
S3150FE10FE016AA4023CDE9019513A9204601F0DCFDB0
S3150FE10FF00B900B9A41F203039A4200F0D2800B9BBE
S3150FE110003EE04FF0010AD4E914539D4277D9ED1A28
S3150FE11010DDE914329B1A94F84020032D134440F274
S3150FE110205D81032B00F2718113A9204601F09BFD2F
S3150FE11030002325E0A54DDFF8A0A2636D072B00F293
S3150FE11040D5800823009316AA4023CDE9019913A968
S3150FE11050204601F0A9FD0D900D9A41F203039A4244
S3150FE1106000F0EE800D9B0BE016AA13A92046FFF7C1
S3150FE11070F5FE0890089B41F20302934207D0089BC5
S3150FE110800793079A41F203039A4286D050E0179AE3
S3150FE1109022650022169962658D4A914240F0E18000
S3150FE110A0022284F84620EBE70823009316AA402391
S3150FE110B0CDE9019513A9204601F076FD0990099A2C
S3150FE110C041F203039A4201D0099BD9E7169B03F03C
S3150FE110D07F43B3F1407F05D0102384F8463041F2C8
S3150FE110E00903CDE7179BD90706D594F8423043F0AC
S3150FE110F0010384F842300025636D072BD4D9012310
S3150FE11100DDE016AA13A92046FFF7A8FE0A900A9D6D
S3150FE1111041F203039D420FD00A9D0795079A41F2CB
S3150FE1112003039A423FF439AF079B0BB10023F370E8
S3150FE11130079827B0BDE8F08F1698FFF77DFE28B91F
S3150FE11140102384F8463041F20805E6E7437994F82F
S3150FE1115090209A4205D9102384F8463041F20E05C4
S3150FE11160DBE702685B498A4205D00289D20748BFAD
S3150FE11170013384F8903094F84230D9070DD50289BE
S3150FE1118094F84330920706D53BB1102384F84630E5
S3150FE1119041F20105C1E7002BF7D0037984F8463018
S3150FE111A0BBE7D4F848A000F01FFA8023CDE900038E
S3150FE111B017AA01230221504601F0A3FD0AE7226D8A
S3150FE111C0A2650123002284F84330E26584F84630B4
S3150FE111D0E3E600213C2217A8169102F004F9012556
S3150FE111E0D4E91432934204D884F8465041F203030A
S3150FE111F046E7009316AA4023CDE9015513A92046E8
S3150FE1120001F0D2FC0C900C9A41F203039A4201D001
S3150FE112100C9B35E70DF1580C06F108030DF1700E35
S3150FE11220624603CA724518605960944603F1080392
S3150FE11230F6D110681860337843F001033370CFE7C6
S3150FE112403378179A43F002033370169B7360236D5D
S3150FE11250083B7362AB6A1968514505D1DB68934266
S3150FE1126005D0102384F8463041F2010308E7042341
S3150FE1127084F8463094F8453043F0010384F845305D
S3150FE1128000236366D9E60423009316AA4023CDE92A
S3150FE11290015513A9204601F087FC0E900E9A41F2F3
S3150FE112A003039A4201D00E9BEAE6226D169B042AAE
S3150FE112B001D923660125636D032BE4D9092384F84C
S3150FE112C0463093E70023636607237FE70000E10FCC
S3150FE112D0EB17A603F90707F9AD1007B09D423FF6E5
S3150FE112E0A3AE9D4228BF1D46402316AACDE901AA0A
S3150FE112F0009513A9204601F057FC0F900F9A41F282
S3150FE1130003039A420AD00F9BBAE6402D28BF402528
S3150FE113109D4228BF1D4625F00305E5E794F84630C3
S3150FE11320072B1CD0042DC5F1040B059388BF4FF095
S3150FE11330000B16AB5A465819FF2102F054F8059BDC
S3150FE11340092BAB4419D13B465A4616A92046FFF75E
S3150FE11350C3FD0F900F9B002B3FF455AED3E7D7F8A4
S3150FE1136008B0BBF1000FDDD03B68606E2A4616A9C7
S3150FE11370D847636E2B44636645E6042B7FF443AE91
S3150FE11380737899077FF53FAEFB68002B3FF43BAED1
S3150FE11390626E042A0BD80BEB0203062B07D917ABA8
S3150FE113A09B1A1A68C4F884204FF0FF321A603B6823
S3150FE113B0FD68606E5A4616A9A847636E5B44DAE785
S3150FE113C094F84450002D7FF49AAE4023009316AA69
S3150FE113D0CDE9015513A9204601F0E6FB1090109ACD
S3150FE113E041F203039A4201D0109B49E6E06C01F00A
S3150FE113F0C5FCD4F84CA000F0EFF8834600F0F0F806
S3150FE114005B4600901EAA16A9504600F0A5F810906B
S3150FE11410109B33B11023F57084F8463041F2060381
S3150FE114202EE60123F37084F8443068E600234FF08B
S3150FE114300408CDE9013316AA4023CDF8008013A99C
S3150FE11440204601F0B1FB1190119A41F203039A4242
S3150FE1145002D0119B07936BE6D4F888202F4B9A4263
S3150FE1146005D0102384F8463041F20503F2E7012354
S3150FE11470F37094F84530DA0707D5FD682DB13B686F
S3150FE11480424604F184014046A84794F845309B074C
S3150FE1149007D5FD682DB104223B6804F1840110469E
S3150FE114A0A847236E73B37D6865B304F180084FF0E7
S3150FE114B0FF330422414612A8129301F084FF28B1AB
S3150FE114C03B680422414648F20400A84704F1680943
S3150FE114D00422494612A801F076FF98B1104BD3F8D2
S3150FE114E02838D3F810801422D7E9003504F16C01BE
S3150FE114F008F10800A8470422D7E90035494608EB69
S3150FE115000200A8470123B3700C2384F84630002369
S3150FE11510A0E70023F37041F207000AE6E320BBDE02
S3150FE115200000E10F10B50A4CD4F8B03043F0400398
S3150FE11530C4F8B030074B01241C6001449A605C602B
S3150FE11540884201D1D86910BD10F8012B9A61F7E7EE
S3150FE1155000400E4000C001402DE9F041A2B00E4619
S3150FE11560DDF8A08015461F46044670B369B362B332
S3150FE115705BB3B8F1000F28D01548012100F0C4FF85
S3150FE115804022002102A801F02EFF394602A801F000
S3150FE1159007FC12AF41460AA801F002FC40220021E6
S3150FE115A0384601F020FF3146384601F0F9FB29466E
S3150FE115B01AA801F0F5FB0748009702AB2022214656
S3150FE115C000F0BAFA22B0BDE8F08140F20160F9E726
S3150FE115D000050A0000000F40004870474A43E00F3C
S3150FE115E0004870476A43E00F004870478642E00FB4
S3150FE115F02DE9F04104461D460F46904600211C2277
S3150FE11600181D01F0F0FE01232B6001F008FD4146A4
S3150FE11610064604F5807001F06FFD394604F58270D8
S3150FE1162004F5847701F068FD2946384601F064FD3B
S3150FE11630304601F0F8FC0D4E0D4B0E4A0E490F48A0
S3150FE1164023656369DB010BD501F0E9FC2946044605
S3150FE11650384601F059FD2046BDE8F04101F0E3BC03
S3150FE1166022656165A065E665EBE700BF39380100E4
S3150FE1167039398401D02484FC1C82FED88B1C81A0CD
S3150FE116802DE9F04F8DB0044617460D461E4601F083
S3150FE11690C6FC04F5827805F1400B81465946404672
S3150FE116A001F02AFD04F58673184604F5887A394662
S3150FE116B0039301F021FD07F12001504601F01CFDD6
S3150FE116C0484601F0B0FC414A2265414A626501276D
S3150FE116D0404AA265E76501F0A2FC29460190404622
S3150FE116E001F00AFD04F5847905F120021146484619
S3150FE116F0029201F001FD5946504601F0FDFC0198B9
S3150FE1170001F091FC3449216534496165A76501F022
S3150FE1171086FC04F5807B824606F14001584601F0CE
S3150FE11720F3FC04A9484601F0EFFC504601F07BFCBF
S3150FE1173001F075FC039B29468246184601F0DCFC55
S3150FE11740504601F070FC264B2365264B63656FF41B
S3150FE117502672A3F5FE231344A365E76501F05FFC4B
S3150FE11760029A05461146404601F0C6FC284601F0AD
S3150FE117705AFC1D4B23651D4B6365A76501F04FFCB5
S3150FE1178031460546484601F0BFFC284601F04BFCC1
S3150FE1179001F045FC04A90546404601F0ADFC28469B
S3150FE117A001F041FC124B2365124B6365A76501F00E
S3150FE117B036FC06F120010446584601F0A5FC204609
S3150FE117C001F031FC0DB0BDE8F08F00BF8AD11C816D
S3150FE117D0D91C83D11C81E11CD01482CB1481E11C6D
S3150FE117E08CE11C811C84D91CE014D8141482E11CF1
S3150FE117F084D31482D11CE0142DE9F041044690B054
S3150FE118000F46244E0521904601F0EBFC00232360A1
S3150FE11810236363630FCE08AD0FC596E80F0085E826
S3150FE118200F0008AA6B4607F140012046FFF7E0FEDD
S3150FE1183001F0F5FB04F586760546694604F58270F7
S3150FE1184001F05AFC3946304601F056FC07F120010A
S3150FE1185004F5887001F050FC284601F0E4FB0E4BCD
S3150FE1186023650E4B63650E4BA3650123E36501F01B
S3150FE11870D6FB08F12001054604F5807001F044FC22
S3150FE118804146304601F040FC284601F0CCFB10B052
S3150FE11890BDE8F0819035E10F8AD11C81D91C83D146
S3150FE118A01C81E11C2DE9F04FA5B01D460446CDE99B
S3150FE118B0021205A81C22002101F095FD4FF0010847
S3150FE118C020220021284605F12007CDF8108001F0EE
S3150FE118D08AFD20220021384601F085FD05F14003FE
S3150FE118E0184620220021009301F07DFD05212046B7
S3150FE118F001F077FC0023236023636363039BDB69BA
S3150FE11900002B4FF0FF060BDB013E09D00399721155
S3150FE1191006F01F0351F8222008FA03F31342F3D01E
S3150FE1192001F07DFB04F58273394680461846019333
S3150FE1193001F0E2FB404601F076FB734B2365734BF7
S3150FE119406365734BA36501F06AFB04F5807914A90E
S3150FE119508046484601F0D8FB404601F064FB01F0B2
S3150FE119605EFB29468046484601F0C6FB404601F03C
S3150FE119705AFB684B2365684B63654FF48673A36522
S3150FE1198001F04DFB04F5867882460CA9404601F03D
S3150FE11990BBFB1CA9484601F0B7FB504601F043FBE0
S3150FE119A001F03DFB8246DDE9001001F0A5FB504653
S3150FE119B001F039FB594B23650123636501F02FFBD9
S3150FE119C004F5847A29468346504601F095FB58463D
S3150FE119D001F029FB524A226502F1D94202F5DE12E4
S3150FE119E002F595626265A2F586120123A2F2BA4269
S3150FE119F0A265E36501F013FB1CA98346504601F08E
S3150FE11A007BFB0CA9404601F077FB584601F00BFB37
S3150FE11A10444A2265444A6265444AA26501F0FFFAE7
S3150FE11A202946834604F5887001F06EFB584601F0AE
S3150FE11A30FAFA01F0F4FA39468346019801F05CFBB4
S3150FE11A405046009901F058FB14A9404601F054FBAA
S3150FE11A50584601F0E8FA364A2265364A626501F0E0
S3150FE11A60DEFA00998246484601F04EFB394640467A
S3150FE11A7001F04AFB504601F0D6FA06F01F010123A9
S3150FE11A808B407211039951F82220134211D0284647
S3150FE11A9001F077F938B1384601F073F918B10098CA
S3150FE11AA001F06FF958B9029A2B4629462046FFF7FE
S3150FE11AB0E7FD013EBFF434AF25B0BDE8F08F029BE1
S3150FE11AC0AC4603F1200E18685968624603C2083323
S3150FE11AD073459446F7D1BC4603F1200E1868596851
S3150FE11AE0624603C2083373459446F7D10DF1100EE2
S3150FE11AF0BEE80F0005F1400CACE80F009EE80F00C1
S3150FE11B008CE80F00D5E700BF8AD11C81821CC00C7F
S3150FE11B100C0C0100C00C0C83D91C83D88AD11C8311
S3150FE11B20DA0C81148CE11CD01484E31482D11C01EC
S3150FE11B30D81483D11CC00C012DE9F04FBBB00F4671
S3150FE11B400446002115460AA86022449E9A4601F0F2
S3150FE11B504AFC6022002122A801F045FC002F00F08B
S3150FE11B601981BAF1000F00F01581002E00F01281F4
S3150FE11B70002D40F30F8100232360236363636368C2
S3150FE11B8043F0100363600C21204601F02AFB6368E2
S3150FE11B90DFF820E223F4406343F400636360636894
S3150FE11BA023F4407343F400736360BEE80F000DF155
S3150FE11BB0A80CACE80F009EE80F008CE80F0001F0CF
S3150FE11BC02EFA04F5847983463146484604F586783C
S3150FE11BD001F092FA2AA9404601F08EFA584601F031
S3150FE11BE022FA6E4A2265012363656369DA0104D439
S3150FE11BF040F202603BB0BDE8F08F311F082351F888
S3150FE11C00040F002800F0BE8001F009FA06F1200B5F
S3150FE11C1001905946484601F06FFA2AA9404601F06C
S3150FE11C206BFA019801F0FFF901235C4A22656365BE
S3150FE11C306369DB01DCD506F11C02082352F8041FA8
S3150FE11C40002900F0A3802022002132A801F0CBFB6E
S3150FE11C50202DA8BF2025013D013F25F0030303F504
S3150FE11C6094736B4405F0030117F8012FC9008A40FD
S3150FE11C7053F8601C013D42EA010243F8602CECD2B5
S3150FE11C8001F0CDF932A90546484601F035FA284665
S3150FE11C9001F0C9F9424B236501F0C1F904F58077EB
S3150FE11CA0054632A9384601F02FFA284601F0BBF96D
S3150FE11CB02AAA02AB59462046FFF79AFC01F0AFF983
S3150FE11CC004F5887B054602A904F5827001F014FA42
S3150FE11CD032A9584601F010FA3146404601F00CFAA6
S3150FE11CE0284601F0A0F92F4B236503F1FA43A3F53B
S3150FE11CF00063636501F093F932A90546584601F091
S3150FE11D0003FA02A9384601F0FFF9284601F08BF9EB
S3150FE11D1025490AAB32AA2046FFF7C4FD22AB02AA38
S3150FE11D2051462046FFF7BEFD0AAA11462046FFF7A8
S3150FE11D3063FD22AB19460AAA2046FFF7A1FC22AAA8
S3150FE11D4011462046FFF758FD01F069F90C210546CA
S3150FE11D50204601F046FA22A9484601F0CDF931466F
S3150FE11D60404601F0C9F9284601F05DF90F4B2365AD
S3150FE11D700F4B6365636913F0807F40F2046018BF10
S3150FE11D80002037E7013B7FF43AAF31E7013B7FF4C0
S3150FE11D9055AF2DE740F201602CE700BF3035DA1081
S3150FE11DA030D00C0130E11C84D035E10F3035DA1437
S3150FE11DB039380100B035E10F2DE9F34714460D46E9
S3150FE11DC0DDE90A921F4600284DD14CB313683F2B2C
S3150FE11DD02AD8516851B32549002F14BFB846884612
S3150FE11DE003F03F061B19136022BF5368013353609B
S3150FE11DF0FEB93F2C0ED9A30900932A463B4641462D
S3150FE11E00002000F083F824F03F031D4404F03F0463
S3150FE11E1034B100262246294609EB060001F0EBFA1A
S3150FE11E20002002B0BDE8F087B846D9E7DFF83C807D
S3150FE11E30D6E7C6F1400A5445ECD32946524609EB9B
S3150FE11E40060001F0D8FA2644012300934A463B46A1
S3150FE11E5041460020A6F1400400F058F83F2C5544C6
S3150FE11E60D6D9B846C7E70248DBE700BF5036E10FE0
S3150FE11E7080AFFFFF2DE9F041146886B01E46E300FF
S3150FE11E808DF80F3063098DF80E30630B8DF80D3039
S3150FE11E90630D8DF80C3053681746DA0002EB547276
S3150FE11EA08DF80B2004F03F045A09372C8DF80A20E0
S3150FE11EB04FEA53324FEA535305468DF80920CDE9E0
S3150FE11EC0001794BFC4F13802C4F1780288468DF841
S3150FE11ED008300D4903460020FFF76EFF08222B4617
S3150FE11EE0CDE900870DEB02010020FFF765FF2846DC
S3150FE11EF005F1200350F8042B46F8042B9842F9D14B
S3150FE11F00002006B0BDE8F0811036E10F2DE9F04F64
S3150FE11F1099B00546884692461E4600F09BFC04465C
S3150FE11F20002D7ED1042303604560C564436869468D
S3150FE11F3023F440634360A8F10402056308F11C032F
S3150FE11F404563884652F8040F00BA9A4241F8040BEA
S3150FE11F50F8D101F064F84146054604F5827001F0C7
S3150FE11F60CBF8284601F05FF82F4B23654FF00009B8
S3150FE11F700AF00307229B994527D1B30704F580772A
S3150FE11F8044D001F04CF841460546384601F0BCF81D
S3150FE11F90284601F048F808AD3246434603CBAB423B
S3150FE11FA010605160984602F10802F6D1204600F022
S3150FE11FB05BFC331F1C3653F8042F12BAB3421A6077
S3150FE11FC0F9D1002019B0BDE8F08F0AEB89156FB191
S3150FE11FD00DF1200E05F1400B28686968F446ACE86F
S3150FE11FE0030008355D45E646F6D108AD01F017F871
S3150FE11FF02946834604F5D27001F08EF8584601F072
S3150FE1200012F80A4A226509F10109B3E701F007F867
S3150FE1201031460546384601F077F8284601F003F8D0
S3150FE12020C4E76FF07100CDE7888AC801070D81011A
S3150FE120302DE9F041A2B0502204460D460EA800212B
S3150FE1204001F0D1F93422002101A801F0CCF901A860
S3150FE1205000F0D6F9049B012B11D8204600236A1E06
S3150FE120609D4240F8043B4FEA82024FF0FF0108BF61
S3150FE120701A4601F0B8F9002022B0BDE8F081AB4273
S3150FE120805DD300F0EEFE059B0C220EA9DF68064636
S3150FE1209000F066FF0028EFD1DFF8AC800E9B4345D9
S3150FE120A015D1109A0EA9304600F05AFF10994FF04C
S3150FE120B0FF320EA8FFF736FA224B98422ED0AA002E
S3150FE120C0FF21204601F08FF940F20650D4E737445D
S3150FE120D00C220EA9384600F043FF0028CCD10E9B07
S3150FE120E0434507D0AA00FF21204601F07CF940F2D3
S3150FE120F00550C1E70EA9109A384600F031FF059B4E
S3150FE121003046D96800F064FF0028B5D1109A0EA9C0
S3150FE12110304600F03BFF0028C3D0ADE7109E103EDE
S3150FE12120B608AE4228BF2E46B7003A4611A9204659
S3150FE1213001F061F9AA1B9200FF21E01999E740F23C
S3150FE12140045099E7E320BBDE39528FE12DE9F043E5
S3150FE121504422A3B00C46814600210DEB020001F0AB
S3150FE1216042F92F4A0123CDE90E23002134225026CD
S3150FE1217001A8109601F037F901A800F041F9049B87
S3150FE12180A34249D3012B0AD8D9F800300133022BE8
S3150FE1219040F2045038BF002023B0BDE8F08300F0D1
S3150FE121A060FE059B102C28BF1024DF684FEA8408D8
S3150FE121B0074442464946054611A801F01CF9C4F108
S3150FE121C010040EAB08F10C001844A200FF2101F038
S3150FE121D00AF94C214FF0FF320EA8FFF7A3F9059B41
S3150FE121E0C0432190D968384600F0F2FE0028D3D1DA
S3150FE121F032460EA9384600F0C9FE0028CCD1059B20
S3150FE122002846D96800F0E4FE0028C5D132460EA96A
S3150FE12210284600F0BBFEBFE740F20450BCE700BF23
S3150FE1222039528FE110B5E0B04FF4BE7201A900202B
S3150FE1223000F065FE40F20124002101A800F036FE10
S3150FE12240A042F9D040F20323984203D040F2054071
S3150FE1225060B010BD9DF8043003F00302022AF5D0F9
S3150FE122609A0711D50D4A0299D2F828289268914218
S3150FE122700AD95C9800F0E6F80028E7D00A994FF4FE
S3150FE122800040FEF78DFCE1E7DB07DFD504995C98AB
S3150FE1229000F0FCF80028D9D00020D9E70000E10FC3
S3150FE122A031B10A4B5A68824205D80023C1E900339E
S3150FE122B040F201407047013053F830200A6003EBDA
S3150FE122C0C00300205B684B60704700BFD436E10F57
S3150FE122D070B40C4611461A460D4B5D68854210D90E
S3150FE122E0013003EBC005A6186D68AE420DD8A542C5
S3150FE122F00BD3954209D353F83000204470BC00F05C
S3150FE123002FBE40F2014070BC704740F20240FAE73F
S3150FE12310D436E10F70B586B00DF107030D46029382
S3150FE1232000211C4B11600446164628461C22CDE9B6
S3150FE1233003338DF80710059301F055F89DF8072043
S3150FE1234032B9D4F878311BB9D4E95C31994219D352
S3150FE123502378990744BF61683160DB0709D504F13A
S3150FE12360080304F1240153F8040B45F8040B8B42DF
S3150FE12370F9D162B92378002B40F2064018BF00204D
S3150FE1238006B070BD02A9204600F073FDD6E7002026
S3150FE12390F6E700BF6D2EE10F70B40C4611461A46F3
S3150FE123A00D4B5D68854210D9013003EBC005A618C8
S3150FE123B06D68AE420DD8A5420BD3954209D353F8BA
S3150FE123C03000204470BC00F0E1BD40F2014070BC2A
S3150FE123D0704740F20240FAE7D436E10F074B5A68ED
S3150FE123E0824207D9013003EBC00253F8300051683E
S3150FE123F000F0EEBD40F20140704700BFD436E10F69
S3150FE1240070B5054688B0C0B14FF440320023C0E93C
S3150FE1241000230B4B1A785B680272C3606C46684601
S3150FE1242000F050F80FCC05F114060FC694E80F0033
S3150FE1243086E80F0005F114032B6108B070BD00BFEC
S3150FE12440D436E10F0F4B00B5D3F828389B688B4292
S3150FE12450E5B003D3002065B05DF804FB4FF4BE721F
S3150FE1246005A900F04CFD0028F4D10223CDE90100C6
S3150FE124708DF815300390044B049301A905A800F0DC
S3150FE1248052FDE8E70000E10F190AE10F00B5E5B0EB
S3150FE124904FF4BE7205A900F032FD70B901238DF834
S3150FE124A01530074B0190CDE90230049001A905A83B
S3150FE124B000F039FD65B05DF804FB0020FAE700BFD7
S3150FE124C0F109E10F70B5054D064604460FCD0FC470
S3150FE124D095E80F0084E80F00304670BDB436E10F82
S3150FE124E0024BD86900F00100704700BF00000E40B3
S3150FE124F0044BD3F84421D20703D4D3F84021104239
S3150FE12500FBD1704700400E4038B5C0F30323013BC2
S3150FE12510092B11D8DFE803F0052710102B221D1028
S3150FE125201511154DC0F3043405F1424505F5801536
S3150FE1253004EBC5008000016038BD104DC0F30434D3
S3150FE12540F2E70F4DC0F304344FF48030FFF7D0FFBD
S3150FE12550EAE7C0F304340B4D1020F7E7C0F3043478
S3150FE12560094D0120F2E7094DC0F30434DCE7084DCC
S3150FE12570C0F30434D8E700BF00400E4050410E408F
S3150FE12580F0400E40E8400E40E0400E40C0400E40A5
S3150FE12590B0400E40094A0A4BD969C90705D512B9A8
S3150FE125A06FF002007047013AF6E7002AF8D00122F0
S3150FE125B01861DA60D86940F3800070478096980019
S3150FE125C000000E4070B509B9002070BD0E4A002318
S3150FE125D0082550F8234094610C4CD5600133D66938
S3150FE125E0F60705D514B96FF00200EEE7013CF6E701
S3150FE125F0002CF8D0D469A40702D49942E9D1E3E7D4
S3150FE126006FF00100E1E700BF00000E4080969800F1
S3150FE126102DE9F8431C4B0D4641F671311E6C1964D9
S3150FE126201A49804648684968996841F00101B6B28E
S3150FE12630996097084FF00009B94501D3002005E0ED
S3150FE1264008EB89042046FFF7A5FF48B10E4B9A68C0
S3150FE1265022F001029A600EB100221A64BDE8F883F6
S3150FE12660C4F30A01C1F500618908A7EB0903994291
S3150FE1267028BF19462846FFF7A5FF0028E6D189446A
S3150FE1268005EB8105D8E700BF00000E4000300E4094
S3150FE12690234B41F671311A6C10B5196421494C6817
S3150FE126A04968996841F00101996001211861D96082
S3150FE126B0D9694C0792B209D5996821F00101996060
S3150FE126C00AB100221A644FF0FF3010BD0221D96022
S3150FE126D01549D869C00700D569B9D86910F0020064
S3150FE126E00BD0996821F0010199600AB100221A64B1
S3150FE126F06FF00100E9E70139EBE741B9986820F09E
S3150FE127000100986002B119646FF00200DDE7996884
S3150FE1271021F0010199600AB90020D6E71864FBE7B9
S3150FE1272000000E4000300E40809698002DE9F04FE4
S3150FE1273002F16044B4F5803F03D94FF0FF30BDE8B5
S3150FE12740F08FDFF8C8C0DFF8C890DFF8C880302611
S3150FE1275006FB00C64FF44014C6F880400024C6F8C5
S3150FE127608440C6F88840C6F89840264C41F6713544
S3150FE12770D4F840A02564A5684FF0010E45F0010598
S3150FE12780A5600EFA00F053B90422E260A26822F0C6
S3150FE127900102A2601FFA8AF28ABB0020CFE701F598
S3150FE127A00065216105EA0905C4F80CE06D1AD4F854
S3150FE127B01CB09D4228BF1D461BF0040F4FEA95073B
S3150FE127C0BBD1013F3F0147F06057C6F88C700E4F02
S3150FE127D0C6F89020C6F89470DCF820700743CCF861
S3150FE127E020701027E760DCF828703842FBD0C8F874
S3150FE127F028002944C8F820002A445B1BC3E7236459
S3150FE12800CBE700BF00000E4018000E4000200E403F
S3150FE1281000F8FFFF00200E440D4AD2F8E430D2F85B
S3150FE12820E0109B0003F03C03C1F381110B4383706E
S3150FE12830D2F8E03003F03F034370D2F8E830D2F834
S3150FE12840EC2003F0F003C2F3031213430370704756
S3150FE1285000FF0FE0024B03480122C3F80026704741
S3150FE128600010C84300000F40094B98420ED003F504
S3150FE128708063984209D10122064B03EBC2035A68E2
S3150FE12880054B13449B0000221A6070470022F3E7C1
S3150FE1289000000F40E436E10F8005F210FEE708B5C0
S3150FE128A0FEF798F8FEF7FCF9FEF76EF8FEF780F8FB
S3150FE128B0FEF786F9C0F30A032DE9F04105460F4607
S3150FE128C016460BB900F0D1F805F5006424F4FF6460
S3150FE128D024F0070405EB0608A04507D8324639462A
S3150FE128E028460223BDE8F04100F0C6B8204600F0C5
S3150FE128F0BCF804F50064EFE7036913F0FE0F0CBFB4
S3150FE129000120002070474FF40040704700F026BBCE
S3150FE1291000F083BB03461846016881F3088881F30B
S3150FE12920098840688746FEE74FF40170FEF750BA13
S3150FE12930B1F5BE7F10B504460FD34FF4BE72002139
S3150FE1294000F051FD04F5827204F1BC0104F1280097
S3150FE129500023BDE8104000F0A8B940F2052010BDF4
S3150FE1296013B50446009101462830FEF709FBC4F87A
S3150FE12970780118B141F20703984204D1A37823B144
S3150FE12980E07800F2022002B010BD40F20120FAE732
S3150FE129902DE9F04387B00DF108090446DDF83880DB
S3150FE129A00E4617460021102248461D4600F01BFD34
S3150FE129B00021C8F800101C22284600F014FD32460B
S3150FE129C03B46CDF80090214604F12800FEF7D8FAF0
S3150FE129D023789A0744BF6268C8F80020DB0709D558
S3150FE129E004F1080304F1240253F8041B45F8041B10
S3150FE129F09342F9D12378002B40F2064018BF00200D
S3150FE12A0007B0BDE8F0834FF4BE70704713B50446C7
S3150FE12A100B461046A20753BF6FEA03434FF6FF7209
S3150FE12A2042EA03436FEA13430193042324F00301BC
S3150FE12A300DEB0302FFF77AFE02B010BD07B50346B1
S3150FE12A409B0753BF6FEA01414FF6FF7343EA01411B
S3150FE12A506FEA11410422019120F003000DEB02010F
S3150FE12A6000F0D5FB03B05DF804FB08B5FFF710FEE8
S3150FE12A70B0FA80F0400908BD072B2DE9F041054674
S3150FE12A800E4614461F4602D90020BDE8F08101210A
S3150FE12A904FF4AA40FFF738FD0CB90120F5E744EAF8
S3150FE12AA00503DA07F0D4AB0726D531883A4628462F
S3150FE12AB0FFF7ACFF0028E7D1023C032C05F1020535
S3150FE12AC006F102060DD924F003084346324629469C
S3150FE12AD03846FFF72BFE0028D6D146444544A4EBF2
S3150FE12AE00804002CD9D031883A462846FFF78EFFE5
S3150FE12AF0B0FA80F04009C8E7032CE4D8F3E7F8B55C
S3150FE12B0005460E4614460AB90120F8BD42EA00030E
S3150FE12B10DA0701D50020F8E7830721D50988FFF702
S3150FE12B208DFF0028F6D1023C032C05F1020506F1D3
S3150FE12B3002060BD924F003073A463146284600F040
S3150FE12B4066FB0028E6D13E443D44E41B002CDBD076
S3150FE12B5031882846FFF772FFB0FA80F04009D4E7D3
S3150FE12B60032CE7D8F4E770B5D1E90152AA4205D2B1
S3150FE12B7090F840302B449B1A402B10D9002012E0DD
S3150FE12B800A6890F84040D65C90F84120224402F062
S3150FE12B903F020133013486548B6080F840408B68E5
S3150FE12BA09D42EDD8012070BD2DE9F84317469E46AB
S3150FE12BB0D1E9012390F840C0089D9DF824909DF836
S3150FE12BC02880D21A6244954204460E460AD9FFF787
S3150FE12BD0CAFF002867D1102384F8463041F202007C
S3150FE12BE0BDE8F883754555D8002394F840200AB11E
S3150FE12BF09D4235D1D6E90121914201D29D4241D87B
S3150FE12C009D424DD1D4F8882029463846FEF78AFCF5
S3150FE12C10C4F88800B9F1000F04D0E06C2A463946B2
S3150FE12C2000F0AAF894F84330B8F1000F06D08BB153
S3150FE12C30A06C2B463A46394600F083F894F84330B8
S3150FE12C4043B1E36DA26D2B449342E36524BF0023A9
S3150FE12C5084F84330636D2B44636541F20300BFE7AC
S3150FE12C6094F84120A25CFA5494F84120013202F023
S3150FE12C703F0284F8412094F84020013A84F840203D
S3150FE12C800133B2E73268525CFA54B2680132B2608C
S3150FE12C900133AFE741F20100102384F846309FE795
S3150FE12CA041F20200F8E700209AE72DE9F04103F03F
S3150FE12CB02003002504464FF0FF38C0E918550F46AB
S3150FE12CC01646A0F8405080F84350A0F8445080F8DB
S3150FE12CD0465080F84230C0F888801822FF216830CC
S3150FE12CE000F081FBC4E91276C4F88080C4F88480D1
S3150FE12CF084F8905016B1304600F034F80020BDE864
S3150FE12D00F081F8B5044616461D460F4600F081FAE6
S3150FE12D10DDE90612204600F080FA0023636284F8AB
S3150FE12D2038703368C4F839307368C4F83D30B36826
S3150FE12D30C4F841302B0C6DBA84F84530A4F84650EF
S3150FE12D40F8BD30B585B00D46194600F12803CDE93A
S3150FE12D500152009300F1240200F1380300F07BFAEF
S3150FE12D6005B030BD10B5044600F02BF82046002122
S3150FE12D70BDE8104000F029B800F02CB8014600F08C
S3150FE12D8036B8036853B91C2350F8042F0AB9043B2C
S3150FE12D90FAD1002BCCBF00200120704700207047ED
S3150FE12DA038B5202204460D46002100F01CFB05F143
S3150FE12DB02003601E13F8012D00F8012FAB42F9D164
S3150FE12DC038BD6822002100F00EBB03460020C3E99F
S3150FE12DD00000704707B500F128030190009300F159
S3150FE12DE008030020FEF7E8FF03B05DF804FB024697
S3150FE12DF00B4600F128010830FFF73CB830B59FB01C
S3150FE12E0034220021054601A800F0EDFA01A8FFF7EB
S3150FE12E10F7FA049C012C1ED921460EA8FFF708F9F3
S3150FE12E2018B140F2055398420ED10EAA002352F87B
S3150FE12E30041B481C0AD11EAA02EB830321460EA8E6
S3150FE12E4043F8405CFFF782F91FB030BDA94205D0C8
S3150FE12E5001339C42EBD140F20250F5E740F20350C9
S3150FE12E60F2E74FF488207047FFF7DCB901221A70B9
S3150FE12E70704730B5A3B004460D4602AAD0F87411D7
S3150FE12E80D0F86C018023FFF723FA0095802302AA7D
S3150FE12E90214604F12800FEF773F8D4F87431C4F82B
S3150FE12EA078018033C4F8743123B030BD1FB50023E8
S3150FE12EB0CDE90033CDE90213D0F87831044693B961
S3150FE12EC0D0E95C329A420ED26946FFF7D2FFD4F8C7
S3150FE12ED0780170B141F2070240F20123904208BF37
S3150FE12EE0184604B010BDA37833B1E07800F20220A2
S3150FE12EF0F7E740F20120F4E740F20220F1E737B5B8
S3150FE12F000C46054611462046FFF712FD48B96946BC
S3150FE12F102846FFF7C5F920B9019BC4F86C51C4F8EF
S3150FE12F20703103B030BD38B500F5827204460D46F7
S3150FE12F30202300F1BC012830FFF7B7FED4F8783132
S3150FE12F401BB9D4E95C329A4203D3A07800B1E07899
S3150FE12F5038BD29462046FFF78CFFEFE70020704783
S3150FE12F60B2F5002F10B51346044608460BD8B4F553
S3150FE12F70002F08D82344B3F5002F04D8214600F0DB
S3150FE12F803AFA002010BD40F20240FBE7B2F5002FFE
S3150FE12F9010B506D8B0F5002F03D88318B3F5002F77
S3150FE12FA00ED940F2024010BDC45801340AD10433A0
S3150FE12FB09A42F9D8FFF7A3FD0028F2D00020F2E7F5
S3150FE12FC00023F5E740F20340EDE74FF0FF3070479E
S3150FE12FD038B541EA0003C3F30A030446D3B9B1F5A1
S3150FE12FE0002F06D8B0F5002F03D80D18B5F5002F31
S3150FE12FF002D940F2024038BD204604F50064FFF7DE
S3150FE1300034FDAC4202D00028F6D1F2E70028F0D029
S3150FE130100020F0E740F20440EDE700207047EFF3C0
S3150FE13020108072B6704700B962B6704784B00B680C
S3150FE1303000934B6801938B680293CB680393009BD4
S3150FE130400360019B0360029B0360039B0360002304
S3150FE13050009301930293039304B0704730B5D1E91E
S3150FE130600223D1E90054056004600260036030BDBC
S3150FE1307030B50568046802680368C1E90054C1E91F
S3150FE13080022330BD7FB58A0704460B4610D06D4645
S3150FE1309001F11006186859682A4603C20833B3428C
S3150FE130A01546F7D169462046FFF7D8FF04B070BD44
S3150FE130B00091009904B0BDE87040FFF7CFBF30B57E
S3150FE130C08B0785B00C4610D06946FFF7D1FF0D4649
S3150FE130D0234604AC2A4603CAA24218605960154634
S3150FE130E003F10803F6D105B030BD0091009905B0A3
S3150FE130F0BDE83040FFF7BCBF10B5FFF7AFFFBDE846
S3150FE1310010401031FFF7AABF10B5FFF7B1FFBDE8C9
S3150FE1311010401031FFF7ACBF10B5FFF79FFF0C461C
S3150FE131201031FFF79BFF04F12001FFF797FF04F141
S3150FE131303001BDE81040FFF791BF00F1424303F5BF
S3150FE131408013102A10B54FEA43130AD101221A60F0
S3150FE1315000F58870FFF76AFF1031BDE81040FFF701
S3150FE1316065BF00221A602430F7E7F0B50B469907E1
S3150FE1317089B0044615462DD0082A19D16D4603F1BB
S3150FE131801006186859682A4603C20833B342154632
S3150FE13190F7D1082269462046FFF7CFFF03226B4698
S3150FE131A00020013A186003F10403FAD209B0F0BD29
S3150FE131B06E4603F1200718685968324603C2083391
S3150FE131C0BB421646F7D12A4669462046FFF7B5FFB9
S3150FE131D00722E4E70093009909B0BDE8F040FFF755
S3150FE131E0ACBF436823F01F030E290BD8DFE801F0CC
S3150FE131F008080808080B0B0B080808080B0B0B004F
S3150FE13200194341607047194341F01001F9E7FFF7A0
S3150FE13210FFB92422002100F0E6B870B515460E4637
S3150FE1322024220021044600F0DEF8C02D0DD0B5F5BD
S3150FE13230807F01D0802D0BD12046EA0840F8045B50
S3150FE13240314600F0D8F8002070BD6FF07100FBE752
S3150FE132506FF01F00F8E72DE9F04F87B08B4602902C
S3150FE13260039390467AB11568029B1B68802B0CD1AC
S3150FE1327000265E450FD3B8F1000F40F0A180002084
S3150FE1328007B0BDE8F08F1546EEE7B3F5807FEFD0D7
S3150FE132906FF02000F4E75DB1119B109A9B5D525DD3
S3150FE132A05340129A0135935505F00F050136E0E7C4
S3150FE132B0FFF7D0FA4FF44043456003600446FFF74A
S3150FE132C0AEFE029951F8043B802B074614BF10223C
S3150FE132D008222046FFF749FF04F1840318460399B4
S3150FE132E00193FFF7CFFE3846FFF79DFE119BABEB40
S3150FE132F0060703EB0609129B27F00F0703EB060AF6
S3150FE1330009EB07030593059989454FF005034FF03F
S3150FE13310030219D1119B3744DE19129B1F44119BEE
S3150FE1332003EB0B0A032356452AD1FFF778FE0399E0
S3150FE1333006460198FFF7C3FE3046FFF774FE2046B7
S3150FE13340FFF792FA5E4694E74821A160A3602169EF
S3150FE133508907FCD4A260FFF762FE4946049004F1A7
S3150FE13360A000FFF78FFE514604F18000FFF7A7FE9D
S3150FE133700498FFF758FE09F110090AF1100AC2E79E
S3150FE133809DB94822A2600522A26022699207FCD468
S3150FE13390A360FFF744FE1099814604F18000FFF721
S3150FE133A08EFE4846FFF73FFE0323109916F8012BD1
S3150FE133B0495D01354A4007F8012B05F00F05B2E7E4
S3150FE133C0C8F800505BE710B501390244904201D1CC
S3150FE133D0002005E0037811F8014FA34201D0181B35
S3150FE133E010BD0130F2E702440346934200D1704724
S3150FE133F003F8011BF9E70A44914200F1FF3300D1CB
S3150FE13400704710B511F8014B03F8014F9142F9D10D
S3150FE1341010BD0000000000000000000000000000E9
S3150FE13420F8B500BFF8BC08BC9E467047F8B500BFBB
S3150FE13430F8BC08BC9E467047000000000000000083
S3150FE134400000000000000000000000000000000086
S3150FE134500000000000000000000000000000000076
S3150FE13460B814B6F1E0CFF3ADB7DD25C9FA79B713E5
S3150FE134700000000013B779FAC925DDB7ADF3CFE048
S3150FE13480F1B614B801020000020000000837E10F9F
S3150FE1349040000000020004020000000000000000EE
S3150FE134A00000000000000000000000000000000026
S3150FE134B00000000000000000000000000000000016
S3150FE134C00000000007B0CD5E02000000020004021A
S3150FE134D00C2F00000000000000000800F0000100C2
S3150FE134E00D29E10F1129E10FC10AE10F3129E10F91
S3150FE134F06129E10F7036E10F9129E10F072AE10FFB
S3150FE1350000000000000000000729E10FEB17A603FA
S3150FE135100201000003000000FA0606FA0D0400009E
S3150FE1352003000000F40A0AF405050000010000009B
S3150FE13530F50909F50307000001000000F60808F692
S3150FE135400608000000000000FE0101FE0808000069
S3150FE1355000000000FD0303FD0A0800000000000063
S3150FE13560F90707F90E09000002000000F70A0AF74A
S3150FE135700F0B000003000000FC0404FC0B0C000021
S3150FE13580030000002000000000010000050C000010
S3150FE13590FFFFFFFFFFFFFFFFFFFFFFFF0000000041
S3150FE135A0000000000000000001000000FFFFFFFF28
S3150FE135B0512563FCC2CAB9F3849E17A7ADFAE6BCDF
S3150FE135C0FFFFFFFFFFFFFFFF00000000FFFFFFFF11
S3150FE135D096C298D84539A1F4A033EB2D817D0377B7
S3150FE135E0F240A463E5E6BCF847422CE1F2D1176B52
S3150FE135F0F551BF376840B6CBCE5E316B5733CE2B25
S3150FE13600169E0F7C4AEBE78E9B7F1AFEE242E34F53
S3150FE136108000000000000000000000000000000034
S3150FE1362000000000000000000000000000000000A4
S3150FE136300000000000000000000000000000000094
S3150FE136400000000000000000000000000000000084
S3150FE136506A09E667BB67AE853C6EF372A54FF53A2D
S3150FE13660510E527F9B05688C1F83D9AB5BE0CD1959
S3150FE13670000100000124E10FA122E10FD122E10FA8
S3150FE136809923E10FDD23E10F4D21E10F3120E10F09
S3150FE13690FD2DE10FFF2EE10FAD2EE10F1523E10F0A
S3150FE136A0E124E10F612FE10F8D2FE10FD12FE10F13
S3150FE136B0CB2FE10F100203002800000028000000C5
S3150FE136C000080000000008000000000002000000F2
S3150FE136D0000000400100000001000000004004006E
S3150FE136E00000030000000F400000000000040F403F
S3150FE136F0010000000037E10F081000200200000072
S3110FE137006509E10F3D09E10FB109E03C5D
S5030353A6
S70500000000FA
