S0370000626F6F746C6F616465722D73746F726167652D696E7465726E616C2D73696E676C652D3531326B2D636F6D62696E65642E73333799
S3150FE100000F4880F308880F4800470000D105E10F3C
S3150FE10010D105E10FD105E10FD105E10FD105E10FD2
S3150FE10020D105E10FD105E10FEC05E10FD105E10FA7
S3150FE10030D105E10FD105E10FD105E10FD105E10FB2
S3150FE10040004000208505E10F0348044B834202D0AF
S3150FE10050034B03B118477047140100201401002028
S3150FE10060000000000548064B1B1AD90F01EBA3014F
S3150FE10070491002D0034B03B1184770471401002012
S3150FE10080140100200000000010B5064C237843B997
S3150FE10090FFF7DAFF044B13B10448AFF300800123F6
S3150FE100A0237010BD14010020000000000006E10FCF
S3150FE100B008B5054B1BB105490548AFF30080BDE80F
S3150FE100C00840FFF7CFBF00BF000000001801002076
S3150FE100D00006E10F044B054A9A60D3F8882042F4F3
S3150FE100E07002C3F88820704700ED00E00000E10FD1
S3150FE100F0094A0A4BD969C90705D512B96FF002004A
S3150FE101007047013AF6E7002AF8D001221861DA6062
S3150FE10110D86940F3800070478096980000000E4042
S3150FE1012070B509B9002070BD0E4A0023082550F8B5
S3150FE10130234094610C4CD5600133D669F60705D59A
S3150FE1014014B96FF00200EEE7013CF6E7002CF8D0A8
S3150FE10150D469A40702D49942E9D1E3E76FF001002C
S3150FE10160E1E700BF00000E40809698002DE9F843C5
S3150FE101701C4B0D4641F671311E6C19641A498046C6
S3150FE1018048684968996841F00101B6B299609708E4
S3150FE101904FF00009B94501D3002005E008EB8904CA
S3150FE101A02046FFF7A5FF48B10E4B9A6822F00102F0
S3150FE101B09A600EB100221A64BDE8F883C4F30A010E
S3150FE101C0C1F500618908A7EB0903994228BF1946D2
S3150FE101D02846FFF7A5FF0028E6D1894405EB8105FF
S3150FE101E0D8E700BF00000E4000300E40234B41F62A
S3150FE101F071311A6C10B5196421494C6849689968CF
S3150FE1020041F00101996001211861D960D9694C0763
S3150FE1021092B209D5996821F0010199600AB10022DC
S3150FE102201A644FF0FF3010BD0221D9601549D86924
S3150FE10230C00700D569B9D86910F002000BD09968EB
S3150FE1024021F0010199600AB100221A646FF00100F1
S3150FE10250E9E70139EBE741B9986820F001009860C9
S3150FE1026002B119646FF00200DDE7996821F001012F
S3150FE1027099600AB90020D6E71864FBE700000E4043
S3150FE1028000300E4080969800FFF770BF08B50A4B15
S3150FE102901A680A4B1A600A4B40221A615A685203CE
S3150FE102A0FCD400F07DF80028FBD040F2022000F0EC
S3150FE102B0C9F8002008BD00BF040100200801002095
S3150FE102C000300E4010B5104C104BA36000F0D8F87B
S3150FE102D00F4B5B68B3F5803F09D040F20923984293
S3150FE102E002D0B0F5007F02D100F016F850B9094BF4
S3150FE102F0A3601846016881F3088881F3098840688D
S3150FE103008746FEE710BD00BF00ED00E00000E10FFC
S3150FE1031000500E400008E10F2DE9F041DFF87C8037
S3150FE10320D8F828201069D568836AAB4202D200203B
S3150FE10330BDE8F08105F560529A42F8D95B1BC61804
S3150FE10340C758144B9F42F2D1F1684FF0FF3200F0DC
S3150FE10350FFF8114B98420446E9D1D8F82838A3F1B2
S3150FE103607E62A2F58432B2F5605F10D21A68BA42A4
S3150FE103700DD1B1689A68914209D8D9684FF0FF3229
S3150FE10380284600F0E5F8001B18BF0120D0E7012051
S3150FE10390CEE700BF07B0CD5EE320BBDE0000E10F85
S3150FE103A0F8B5194B9B6AD3E90347BB6A1B1BFD18CB
S3150FE103B02646EA68A318B3421DD83946204600F00F
S3150FE103C092F8B8B1104BD3F82838A3F17E62A2F5B3
S3150FE103D08432B2F5605F14D219680C4A914210D19A
S3150FE103E0D9684FF0FF32204600F0B2F8084BC31A36
S3150FE103F058425841F8BD304600F06EF806F50066F2
S3150FE10400D7E70020F6E700BF0000E10F07B0CD5EAA
S3150FE10410E320BBDE4FF000534AF6C0305B8823F092
S3150FE104200F039BB21B1A5842584170474FF00052C7
S3150FE1043008B51080FFF7EEFF10B94FF20F035380A7
S3150FE1044008BD000008B5FFF7F1FF0A4A136823F468
S3150FE10450E06343F400731360BFF34F8F0649074B15
S3150FE10460CA6802F4E0621343CB60BFF34F8F00BF5C
S3150FE10470FDE700BF00500E4000ED00E00400FA0575
S3150FE104804FF000534FF20F015A888A4201D1188873
S3150FE1049070473AB91B88012B40F2022018BF4FF47F
S3150FE104A0007070474FF40070704707B503469B071E
S3150FE104B053BF6FEA01414FF6FF7343EA01416FEA1A
S3150FE104C011410422019120F003000DEB0201FFF728
S3150FE104D0DBFE03B05DF804FB08B5FFF787FEB0FA64
S3150FE104E080F0400908BDF8B505460E4614460AB92F
S3150FE104F00120F8BD42EA0003DA0701D50020F8E74B
S3150FE10500830721D50988FFF7D0FF0028F6D1023CF2
S3150FE10510032C05F1020506F102060BD924F00307B8
S3150FE105203A4631462846FFF7AFFE0028E6D13E446C
S3150FE105303D44E41B002CDBD031882846FFF7B5FF9D
S3150FE10540B0FA80F04009D4E7032CE7D8F4E70000CE
S3150FE1055010B50A4CD4F8B03043F04003C4F8B030CC
S3150FE10560074B01241C6001449A605C60884201D10B
S3150FE10570D86910BD10F8012B9A61F7E700400E40DC
S3150FE1058000C001400B4880470B4880470B490C4A96
S3150FE105900C4B9A42BEBF51F8040B42F8040BF8E735
S3150FE105A009490A4A00209142BCBF41F8040BFAE718
S3150FE105B0FFF76CFED500E10FC502E10F0406E10F6F
S3150FE105C00401002014010020140100203001002055
S3150FE105D0FEE700BFF8B500BFF8BC08BC9E46704702
S3150FE105E0F8B500BFF8BC08BC9E467047AD1007B022
S3150FE105F00100000000000C010008E10F008000007F
S3150FE1060000000000C0EA2101C0EA2101B100E10FBB
S3090FE106108900E10F77
S3150FE1080008100020D334E10FD134E10FA92CE10F09
S3150FE10810D134E10FD134E10FD134E10FD134E10F0E
S3150FE10820D134E10FD134E10FA439E10FD134E10F26
S3150FE10830D134E10F5439E10FD134E10FD134E10F66
S3150FE10840D134E10FD134E10FD134E10FD134E10FDE
S3150FE10850D134E10FD134E10FD134E10FD134E10FCE
S3150FE10860D134E10FD134E10FD134E10FD134E10FBE
S3150FE10870D134E10FD134E10FD134E10FD134E10FAE
S3150FE10880D134E10FD134E10FD134E10FD134E10F9E
S3150FE10890D134E10FD134E10FD134E10FD134E10F8E
S3150FE108A0D134E10FD134E10FD134E10FD134E10F7E
S3150FE108B0D134E10FD134E10FD134E10FD134E10F6E
S3150FE108C0D134E10FD134E10FD134E10FD134E10F5E
S3150FE108D0D134E10FD134E10FD134E10FD134E10F4E
S3150FE108E0D134E10FD134E10FD134E10FD134E10F3E
S3150FE108F0D134E10FD134E10FD134E10F0348044B89
S3150FE10900834202D0034B03B1184770471010002002
S3150FE1091010100020000000000548064B1B1AD90FE6
S3150FE1092001EBA301491002D0034B03B118477047FE
S3150FE1093010100020101000200000000010B5064C2A
S3150FE10940237843B9FFF7DAFF044B13B10448AFF34A
S3150FE1095000800123237010BD481000200000000025
S3150FE10960F43BE10F08B5054B1BB105490548AFF35C
S3150FE109700080BDE80840FFF7CFBF00BF00000000D1
S3150FE1098010100020F43BE10F70B4084DD5F828584C
S3150FE109902E698642034606D86C6913449C4202D3FC
S3150FE109A070BC02F049B970BC704700BF0000E10F9F
S3150FE109B037B51446144A936A0D461968134B994293
S3150FE109C020D100F5004310F5004F01931AD2019B98
S3150FE109D0B3F5002F16D2019BC3F50023A34211D322
S3150FE109E040B9D2F828385A69B2F5004F02D91869D9
S3150FE109F002F0CCF901982246294603B0BDE8304012
S3150FE10A0002F01AB903B030BD0000E10FAD1007B027
S3150FE10A10F0B5421ED11C85B0034618D80D4C6E4673
S3150FE10A2004F1100720686168354603C50834BC42F6
S3150FE10A302E46F7D104A90F3311F8014D12F8010F24
S3150FE10A40844204D19A42F7D1012005B0F0BD0020CE
S3150FE10A50FBE700BF4039E10FF0B5036803F16043EF
S3150FE10A60B3F5803F9FB004465DD8314A4368D2F86B
S3150FE10A70282816699E4256D8B3F5002F53D8456BF1
S3150FE10A8006F14003AB4250D8B5F5002F4DD82846B5
S3150FE10A90FFF7BEFF002848D0284602F0EDF880B1F7
S3150FE10AA06F6977B1022F0ED1AB69C4F10401194415
S3150FE10AB04FF0FF32204600F0C7FE1E4BC31A5842D5
S3150FE10AC058411FB0F0BD40F2046328460393FFF788
S3150FE10AD09FFF0028F5D0012F25D1AD69AE4222D86F
S3150FE10AE0AC4220D8B5F5002F1DD804A802F08CFB37
S3150FE10AF02A1B214604A802F091FB04A802F090FB01
S3150FE10B0000F0FCFE044600F0FDFE2346009005F1E1
S3150FE10B102002294604A800F0B1FE03900398B0FA2B
S3150FE10B2080F04009CDE70020CBE70120C9E700BF00
S3150FE10B300000E10FE320BBDE08B54FF0FF3200F016
S3150FE10B4083FE044B984203D140F2092000F00CF9E1
S3150FE10B50002008BDE320BBDE304B13B501225A64FA
S3150FE10B601A6842F480721A6001A802F023F89DF820
S3150FE10B700530012B03D89DF80430022B0DD9284BF4
S3150FE10B804FF41872C3F88C22264AC3F89022264AEC
S3150FE10B90C3F8F022254AC3F8F822254BD3F8A4214E
S3150FE10BA042F4F842C3F8A4215B6802F06FF800F053
S3150FE10BB0A3F808B900F088F802F0ABFB044658B980
S3150FE10BC000F09AF808B100F08FF840F2012000F03A
S3150FE10BD0CBF84FF4017018E000F08EF808B900F089
S3150FE10BE07BF800F0A3F8012802D900F06DF8FEE7D3
S3150FE10BF000F0A8F80F4B0193019B002B0ADC40F2A2
S3150FE10C0005439C42E5D140F2032000F0ADF8002008
S3150FE10C1002B010BD019B013BEDE700BF00000E40A6
S3150FE10C2000400E409A6F0500180100040084320857
S3150FE10C3000300E4000350C0013B501238DF8063058
S3150FE10C408DF807301E4B5B685A050FD500F0AAF8F1
S3150FE10C50A0F2022080B2072808D8C923C340DB07D8
S3150FE10C6042BF00238DF806308DF807300024636804
S3150FE10C70013307D14FF4027000F04CF88DF80640BE
S3150FE10C808DF807409DF807305BB10020FFF7E4FED2
S3150FE10C908DF806009DF806301BB94FF4027000F08F
S3150FE10CA039F89DF806304BB100F026F808B100F09F
S3150FE10CB01BF8044B0020986001F0ECFF02B010BD69
S3150FE10CC000500E4000ED00E0024B4CF23C325A80F0
S3150FE10CD0704700BF00000020024B4AF6C0325A802F
S3150FE10CE0704700BF00000020024B4FF20F025A80FF
S3150FE10CF0704700BF00000020054B5B8823F00F0310
S3150FE10D004AF6C0309BB21B1A58425841704700BF92
S3150FE10D1000000020044A08B51080FFF7EDFF10B977
S3150FE10D204FF20F03538008BD0000002008B5FFF70F
S3150FE10D30E3FF18B1024B588800F00F0008BD00BF62
S3150FE10D400000002008B5FFF7D7FF48B1054A5388E1
S3150FE10D5003F00F010F2914BF013323F00F03538063
S3150FE10D6008BD00BF0000002008B5FFF7D3FF0A4A10
S3150FE10D70136823F4E06343F400731360BFF34F8FFB
S3150FE10D800649074BCA6802F4E0621343CB60BFF32F
S3150FE10D904F8F00BFFDE700BF00500E4000ED00E0B2
S3150FE10DA00400FA05094B5A884FF20F018A4201D125
S3150FE10DB0188870473AB91B88012B40F2022018BFF9
S3150FE10DC04FF4007070474FF4007070470000002039
S3150FE10DD02DE9F74FDFF8E89099F80440844205468C
S3150FE10DE08846924667D2D9F808301F6E334B2744AF
S3150FE10DF0041B9442D3F8283828BF14463E1AD3F879
S3150FE10E0010B031462246404602F061FD2B1B00939E
S3150FE10E100BF1040133198B421BD30BF11C0BB345B9
S3150FE10E2017D98E423246A5EB070038BF0A46C1F104
S3150FE10E3068011044114401935B4594BFC2EB030271
S3150FE10E40C2EB0B02D9F808304044194402F03FFDDA
S3150FE10E50019B48F20302934203D948F207029642F5
S3150FE10E6010D9009D544509D299F80410491BAAEBF4
S3150FE10E700402494408EB040002F029FD002003B007
S3150FE10E80BDE8F08F48F20402B24238BF3246E81BA2
S3150FE10E90D9F80810A2F5FF451044043D48F20806BB
S3150FE10EA0B34294BFC2EB0302C2EB060229444044AC
S3150FE10EB002F00DFDD5E70024D4E700BF0000E10FF6
S3150FE10EC0281000202DE9F043294C0746207989B0F7
S3150FE10ED00E46D0B1C0F104058D4228BF0D462A4614
S3150FE10EE03946204402F0F3FC22792A44D2B2042A8D
S3150FE10EF022710BD1E368A068214600F0EFF80023D9
S3150FE10F00237118B109B0BDE8F0830546A6EB0508D4
S3150FE10F1038F003081DD020220021684602F0CFFCED
S3150FE10F20B8F1200FC14628BF4FF0200979194A467B
S3150FE10F30684602F0CCFCE368A0684A46694600F0D1
S3150FE10F40CDF84D44A8EB09080028DBD1B8F1000F25
S3150FE10F50E6D1B54201D30020D4E7761B002304483E
S3150FE10F6023603246791902F0B2FC2671F3E700BF2E
S3150FE10F7028100020084B10B5202204460021184600
S3150FE10F8002F09DFC012284604271BDE810400349E5
S3150FE10F90103001F09EBF00BF28100020D10DE10FE8
S3150FE10FA030B40546586878B1084C607920B1002015
S3150FE10FB06071086828660420E360121A014430BCA8
S3150FE10FC0034B044801F093BF30BC70472810002053
S3150FE10FD0C50EE10F381000204B6810B50BB9002094
S3150FE10FE010BD0B4C207968B1C0F10402FF212044FA
S3150FE10FF002F065FCE368A0680422214600F06EF872
S3150FE1100000232371A37E1E2BE9D041F20230E7E7DD
S3150FE11010281000200068024BC31A58425841704706
S3150FE11020FD0505FD034B044A90420CBF184600200F
S3150FE11030704700BFEC39E10FFD0505FD074930B5F6
S3150FE11040024600230C2505FB03F460180C59944264
S3150FE1105003D001330B2BF6D1002030BD003AE10F5F
S3150FE11060F0B587B000230827CDE9013315463B4696
S3150FE11070009704AA044601F0E6FF41F20303984202
S3150FE11080064623D194F8433053B1E06C3A4604A9AE
S3150FE1109002F0C4F804AAA06C3B46114602F0A3F88D
S3150FE110A0059A6A6094F84320049B2B6052B9094A6A
S3150FE110B0934207D0084A934204D0E06C082204A970
S3150FE110C002F0ACF86B68236500236365304607B021
S3150FE110D0F0BD00BFF70A0AF7FC0404FC2DE9F0475F
S3150FE110E099465B6804460F469046002B41D08B0725
S3150FE110F042D1234B006ED3F828381B6981181D1D89
S3150FE11100A9421BD31C33984218D2A842024638BFD4
S3150FE111102A46101A3E18C5F16800994294BFC2EBF0
S3150FE11120010AC2EB030A104431465246204402F04B
S3150FE11130CEFB5246FF21304602F0C1FB226E48F24A
S3150FE1114004039A420CD802EB080048F207018842E1
S3150FE1115006D99B1AFA58C4F880204FF0FF32FA509D
S3150FE11160D9E90035206E42463946A847236E4344F6
S3150FE1117023660020BDE8F08741F20200FAE700BFDF
S3150FE111800000E10F2DE9F04FA7B0CDE913239B4600
S3150FE11190309D002304460E4615934FF00109159A2B
S3150FE111A05A4501D30020CAE094F84630112BF7D8FF
S3150FE111B0DFE813F05D00AA00A40043002A002F0127
S3150FE111C0AF012A00A7012A00A701CD0242031200AF
S3150FE111D025019702230240030027636D0F2B00F2CF
S3150FE111E091801023009316AA4023CDE9019713A905
S3150FE111F0204601F028FF0A900A9A41F203039A4228
S3150FE1120000F0EF800A9B3EE04FF0FF08D4E914733C
S3150FE112109F4277D9FF1ADDE914329B1A94F84020E1
S3150FE11220032F134440F27981032B00F2798113A93D
S3150FE11230204601F0E8FE002325E0AB4FDFF8B4824C
S3150FE11240636D072B00F2F1800823009316AA402362
S3150FE11250CDE9019913A9204601F0F5FE0C900C9A00
S3150FE1126041F203039A4200F00A810C9B0BE016AAA6
S3150FE1127013A92046FFF7F4FE0790079B41F20302FD
S3150FE11280934207D0079B0693069A41F203039A42CC
S3150FE1129085D053E0179A2265002216996265934A23
S3150FE112A0914240F0FD80022284F84620EBE70823C5
S3150FE112B0009316AA4023CDE9019713A9204601F021
S3150FE112C0C2FE0890089A41F203039A4201D0089BA5
S3150FE112D0D9E7169B03F07F43B3F1407F05D0112386
S3150FE112E084F8463041F20903CDE7179BDB0706D5B4
S3150FE112F094F8423043F0010384F842300027636DDE
S3150FE11300072BD4D9012301E116AA13A92046FFF72A
S3150FE11310A7FE0990DDF8248041F20303984511D029
S3150FE11320DDF82480CDF81880069A41F203039A423C
S3150FE113303FF435AF069B0BB10023F370069827B048
S3150FE11340BDE8F08F1698FFF779FE074628B9112306
S3150FE1135084F8463041F20808E4E7437994F890209F
S3150FE113609A4205D9112384F8463041F20E08D9E79E
S3150FE1137001685F4A914205D00289D00748BF013320
S3150FE1138084F8903094F84230D9070DD53A8994F81C
S3150FE113904330920706D53BB1112384F8463041F22B
S3150FE113A00108BFE7002BF7D016A8FFF733FE18B9F0
S3150FE113B03B7984F84630B5E71698C4F88C00FFF709
S3150FE113C031FE94F842309B06F2D50028F0D04368FF
S3150FE113D0002BEDD0204698470990099B002BE7D0CB
S3150FE113E0DDE7D4F8488000F091FA8023CDE90003D8
S3150FE113F017AA01230221404601F0D5FEEDE6226D43
S3150FE11400A2650123002284F84330E26584F8463071
S3150FE11410C5E64022002116A802F051FA0127D4E9C8
S3150FE114201432934204D884F8467041F203032AE753
S3150FE11430009316AA4023CDE9017713A9204601F0BF
S3150FE1144002FE0B900B9A41F203039A4201D00B9BDA
S3150FE1145019E70DF1580C06F108030DF1700E62460E
S3150FE1146003CA724518605960944603F10803F6D131
S3150FE1147010681860337843F001033370CFE73378A0
S3150FE11480179A43F002033370169B7360236D083B83
S3150FE114907362BB6A1968414505D1DB68934205D092
S3150FE114A0112384F8463041F20103ECE6042384F874
S3150FE114B0463094F8453043F0010384F84530002374
S3150FE114C06366BDE60423009316AA4023CDE90177AF
S3150FE114D013A9204601F0B7FD0D900D9A41F20303D2
S3150FE114E09A4209D00D9BCEE60000E10FEB17A6035A
S3150FE114F0F90707F9AD1007B0236D042B02D9169B37
S3150FE1150023660127636D032BDCD9092384F8463063
S3150FE115108BE700236366072378E79F423FF687AEA3
S3150FE11520402F28BF40279F4228BF1F46032F88BF62
S3150FE1153027F00307402316AACDE90199009713A9CE
S3150FE11540204601F080FD0E900E9A41F203039A4276
S3150FE1155001D00E9B97E694F84620072A28D1D5F8B5
S3150FE1156008A0BAF1000F23D02B68606E3A4616A990
S3150FE11570D047636E3B44636648E616A901F80380DC
S3150FE115800133032BF9D9042FC7F1040A88BF4FF0B2
S3150FE11590000A092ABA440DD12B46524616A920460E
S3150FE115A0FFF79CFD0E900E9B002B3FF42FAED0E77D
S3150FE115B03B46E6E7042A7FF429AE737898077FF571
S3150FE115C025AEEB68002B3FF421AE626E042A0BD8F1
S3150FE115D00AEB0203062B07D917AB9B1A1A68C4F855
S3150FE115E084204FF0FF321A602B68EF68606E524627
S3150FE115F016A9B847636E5344BDE794F8427017F0E6
S3150FE1160020076CD0D4F88C00FFF70CFD059000286D
S3150FE116103FF449AF4FF0010A45E063B3059B53B37E
S3150FE116201B6943B320469847DDE914329B1A94F8B8
S3150FE11630402013448342FFF4FAADD4E91421A2EB1F
S3150FE116400108B8F1400F28BF4FF04008984528BF71
S3150FE11650984616AA4023CDE901AACDF8008013A931
S3150FE11660204601F0F0FC0F900F9A41F203039A42E4
S3150FE1167003D00F9B07E60120D6E794F8423099068F
S3150FE1168011D5059B002B3FF40EAF9B681F46002B30
S3150FE116903FF409AF2B46424616A92046B8470F90AD
S3150FE116A00F9B002BE5D1D4E9142194F842309142F6
S3150FE116B003F02003B1D3002B3FF424AE059B002B9F
S3150FE116C03FF420AEDB68002B3FF41CAE29462046E3
S3150FE116D098470F900F9B002B3FF414AEC9E7059780
S3150FE116E098E794F84470002F7FF40CAE40230093F3
S3150FE116F016AACDE9017713A9204601F0A4FC1090B3
S3150FE11700109A41F203039A4201D0109BBBE5E06CBC
S3150FE1171001F086FDD4F84C8000F0F0F8824600F037
S3150FE11720F1F8534600901EAA16A9404600F0A6F816
S3150FE117301090109B33B11123F77084F8463041F2C4
S3150FE117400603A0E50123F37084F84430DAE50023BC
S3150FE117504FF00408CDE9013316AA4023CDF80080F6
S3150FE1176013A9204601F06FFC1190119A41F2030380
S3150FE117709A4202D0119B0693E0E5D4F88820304BCC
S3150FE117809A4205D0112384F8463041F20503F2E778
S3150FE117900123F37094F84530DA0707D5EF682FB1D7
S3150FE117A02B68424604F184014046B84794F8453028
S3150FE117B09B0707D5EF682FB104222B6804F184014B
S3150FE117C01046B847236E73B36F6867B304F18008A9
S3150FE117D04FF0FF330422414612A8129302F05FF84D
S3150FE117E028B12B680422414648F20400B84704F1B8
S3150FE117F068090422494612A802F051F898B1114B33
S3150FE11800D3F82838D3F810801422D5E9003704F13C
S3150FE118106C0108F10800B8470422D5E900374946BB
S3150FE1182008EB0200B8470123B3700C2384F8463066
S3150FE118300023A0E70023F37041F207007FE500BF25
S3150FE11840E320BBDE0000E10F10B50A4CD4F8B0304F
S3150FE1185043F04003C4F8B030074B01241C60014448
S3150FE118609A605C60884201D1D86910BD10F8012BEE
S3150FE118709A61F7E700400E4000C001402DE9F041C3
S3150FE11880A2B00E46DDF8A08015461F46044670B39A
S3150FE1189069B362B35BB3B8F1000F28D015480121E4
S3150FE118A001F00CF84022002102A802F008F83946AF
S3150FE118B002A801F0C7FC12AF41460AA801F0C2FC2B
S3150FE118C040220021384601F0FAFF3146384601F051
S3150FE118D0B9FC29461AA801F0B5FC0748009702ABF7
S3150FE118E02022214600F0BAFA22B0BDE8F08140F29B
S3150FE118F00160F9E700050A0000000F400048704754
S3150FE119004A43E00F004870476A43E00F00487047CB
S3150FE119108642E00F2DE9F04104461D460F469046FB
S3150FE1192000211C22181D01F0CAFF01232B6001F0D3
S3150FE11930DBFD4146064604F5807001F04EFE394661
S3150FE1194004F5827004F5847701F047FE294638469F
S3150FE1195001F043FE304601F0CBFD0D4E0D4B0E4A25
S3150FE119600E490F4823656369DB010BD501F0BCFD19
S3150FE1197029460446384601F038FE2046BDE8F041D7
S3150FE1198001F0B6BD22656165A065E665EBE700BFCF
S3150FE119903938010039398401D02484FC1C82FED800
S3150FE119A08B1C81A02DE9F04F8DB0044617460D46ED
S3150FE119B01E4601F099FD04F5827805F1400B81464B
S3150FE119C05946404601F009FE04F58673184604F5BB
S3150FE119D0887A3946039301F000FE07F1200150465C
S3150FE119E001F0FBFD484601F083FD414A2265414A7C
S3150FE119F062650127404AA265E76501F075FD294653
S3150FE11A000190404601F0E9FD04F5847905F12002E4
S3150FE11A1011464846029201F0E0FD5946504601F063
S3150FE11A20DCFD019801F064FD3449216534496165B6
S3150FE11A30A76501F059FD04F5807B824606F1400169
S3150FE11A40584601F0D2FD04A9484601F0CEFD5046B5
S3150FE11A5001F04EFD01F048FD039B294682461846EB
S3150FE11A6001F0BBFD504601F043FD264B2365264BA6
S3150FE11A7063656FF42672A3F5FE231344A365E76549
S3150FE11A8001F032FD029A05461146404601F0A5FDE9
S3150FE11A90284601F02DFD1D4B23651D4B6365A7659B
S3150FE11AA001F022FD31460546484601F09EFD2846E6
S3150FE11AB001F01EFD01F018FD04A90546404601F0AF
S3150FE11AC08CFD284601F014FD124B2365124B63651D
S3150FE11AD0A76501F009FD06F120010446584601F01C
S3150FE11AE084FD204601F004FD0DB0BDE8F08F00BF87
S3150FE11AF08AD11C81D91C83D11C81E11CD01482CBE4
S3150FE11B001481E11C8CE11C811C84D91CE014D814CE
S3150FE11B101482E11C84D31482D11CE0142DE9F04127
S3150FE11B20044690B00F46244E0521904601F0C4FDC0
S3150FE11B3000232360236363630FCE08AD0FC596E8D9
S3150FE11B400F0085E80F0008AA6B4607F14001204612
S3150FE11B50FFF7E0FE01F0C8FC04F586760546694617
S3150FE11B6004F5827001F039FD3946304601F035FD55
S3150FE11B7007F1200104F5887001F02FFD284601F0E9
S3150FE11B80B7FC0E4B23650E4B63650E4BA365012325
S3150FE11B90E36501F0A9FC08F12001054604F5807023
S3150FE11BA001F023FD4146304601F01FFD284601F0C5
S3150FE11BB09FFC10B0BDE8F081903AE10F8AD11C810C
S3150FE11BC0D91C83D11C81E11C2DE9F04F1D46A5B02F
S3150FE11BD000230446CDE9021205A819461C220493F7
S3150FE11BE005F1200701F06BFE20220021284601F0C6
S3150FE11BF066FE20220021384601F061FE05F1400321
S3150FE11C00184620220021009301F059FE20460521B6
S3150FE11C1001F052FD00232360FF2623630120636356
S3150FE11C207211039906F01F0351F8221000FA03F31C
S3150FE11C300B42324606F1FF3601D0164601E0002E81
S3150FE11C40EED101F051FC04F5827339468046184610
S3150FE11C50019301F0C2FC404601F04AFC734B236548
S3150FE11C60734B6365734BA36501F03EFC04F5807915
S3150FE11C7014A98046484601F0B8FC404601F038FC0D
S3150FE11C8001F032FC29468046484601F0A6FC404663
S3150FE11C9001F02EFC684B2365684B63654FF4867341
S3150FE11CA0A36501F021FC04F5867882460CA940462E
S3150FE11CB001F09BFC1CA9484601F097FC504601F048
S3150FE11CC017FC01F011FC8246DDE9001001F085FCFD
S3150FE11CD0504601F00DFC5A4B23650123636501F074
S3150FE11CE003FC04F5847A29468346504601F075FCD8
S3150FE11CF0584601F0FDFB534A226502F1D94202F53E
S3150FE11D00DE1202F595626265A2F586120123A2F251
S3150FE11D10BA42A265E36501F0E7FB1CA9834650468B
S3150FE11D2001F05BFC0CA9404601F057FC584601F067
S3150FE11D30DFFB454A2265454A6265454AA26501F0E0
S3150FE11D40D3FB2946834604F5887001F04EFC5846CD
S3150FE11D5001F0CEFB01F0C8FB39468346019801F04D
S3150FE11D603CFC5046009901F038FC14A9404601F0BD
S3150FE11D7034FC584601F0BCFB364A2265364A6265A9
S3150FE11D8001F0B2FB00998246484601F02EFC394636
S3150FE11D90404601F02AFC504601F0AAFB06F01F016E
S3150FE11DA001238B407211039951F82220134211D06E
S3150FE11DB0284601F038FA38B1384601F034FA18B14D
S3150FE11DC0009801F030FA58B9029A2B462946204677
S3150FE11DD0FFF7E8FD013EBFF434AF25B0BDE8F08F64
S3150FE11DE0029BAC4603F1200E18685968624603C29E
S3150FE11DF0083373459446F7D1BC4603F1200E1868B4
S3150FE11E005968624603C2083373459446F7D10123F5
S3150FE11E1004930DF1100EBEE80F0005F1400CACE88E
S3150FE11E200F009EE80F008CE80F00D3E78AD11C81E3
S3150FE11E30821CC00C0C0C0100C00C0C83D91C83D87E
S3150FE11E408AD11C83DA0C81148CE11CD01484E3143F
S3150FE11E5082D11C01D81483D11CC00C012DE9F04F9E
S3150FE11E60BBB00F460446002115460AA86022449EE0
S3150FE11E709A4601F024FD6022002122A801F01FFD00
S3150FE11E80002F00F01981BAF1000F00F01581002E35
S3150FE11E9000F01281002D40F30F81002323602363AD
S3150FE11EA06363636843F0100363600C21204601F01E
S3150FE11EB003FC6368DFF820E223F4406343F4006335
S3150FE11EC06360636823F4407343F400736360BEE8B1
S3150FE11ED00F000DF1A80CACE80F009EE80F008CE89F
S3150FE11EE00F0001F001FB04F584798346314648463C
S3150FE11EF004F5867801F071FB2AA9404601F06DFBE6
S3150FE11F00584601F0F5FA6E4A226501236365636966
S3150FE11F10DA0104D440F202603BB0BDE8F08F311F25
S3150FE11F20082351F8040F002800F0BE8001F0DCFA17
S3150FE11F3006F1200B01905946484601F04EFB2AA9BE
S3150FE11F40404601F04AFB019801F0D2FA01235C4ABF
S3150FE11F50226563656369DB01DCD506F11C020823A3
S3150FE11F6052F8041F002900F0A3802022002132A895
S3150FE11F7001F0A5FC202DA8BF2025013D013F25F04D
S3150FE11F80030303F594736B4405F0030117F8012F6F
S3150FE11F90C9008A4053F8601C013D42EA010243F849
S3150FE11FA0602CECD201F0A0FA32A90546484601F0C1
S3150FE11FB014FB284601F09CFA424B236501F094FA93
S3150FE11FC004F58077054632A9384601F00EFB28461F
S3150FE11FD001F08EFA2AAA02AB59462046FFF79AFC80
S3150FE11FE001F082FA04F5887B054602A904F58270B1
S3150FE11FF001F0F3FA32A9584601F0EFFA31464046BD
S3150FE1200001F0EBFA284601F073FA2F4B236503F142
S3150FE12010FA43A3F50063636501F066FA32A9054653
S3150FE12020584601F0E2FA02A9384601F0DEFA2846EF
S3150FE1203001F05EFA25490AAB32AA2046FFF7C4FD45
S3150FE1204022AB02AA51462046FFF7BEFD0AAA114668
S3150FE120502046FFF763FD22AB19460AAA2046FFF792
S3150FE12060A1FC22AA11462046FFF758FD01F03CFAE2
S3150FE120700C210546204601F01FFB22A9484601F037
S3150FE12080ACFA3146404601F0A8FA284601F030FA9B
S3150FE120900F4B23650F4B6365636913F0807F40F246
S3150FE120A0046018BF002037E7013B7FF43AAF31E711
S3150FE120B0013B7FF455AF2DE740F201602CE700BFFE
S3150FE120C03035DA1030D00C0130E11C84D03AE10F13
S3150FE120D03035DA1439380100B03AE10F2DE9F3471B
S3150FE120E014460D46DDE90A921F4600284CD1002C15
S3150FE120F041D013683F2B42D85168002941D0254979
S3150FE12100002F14BFB846884603F03F061B1913602C
S3150FE1211022BF536801335360C6B3C6F1400A544533
S3150FE1212023D32946524609EB060001F0D0FB26449C
S3150FE12130012300934A463B4641460020A6F140045F
S3150FE1214000F078F83F2C55440DD9B846A309009312
S3150FE121502A463B464146002000F06CF824F03F0347
S3150FE121601D4404F03F0434B100262246294609EB0B
S3150FE12170060001F0ACFB002002B0BDE8F087B846DF
S3150FE12180C2E7DFF81080BFE70348F5E73F2CDDD85C
S3150FE12190EBE700BF503BE10F80AFFFFF2DE9F041C9
S3150FE121A0146886B01E46E3008DF80F3063098DF88B
S3150FE121B00E30630B8DF80D30630D8DF80C305368CF
S3150FE121C01746DA0002EB54728DF80B2004F03F0448
S3150FE121D05A09372C8DF80A204FEA53324FEA5353F7
S3150FE121E005468DF80920CDE9001794BFC4F13802F1
S3150FE121F0C4F1780288468DF808300D490346002070
S3150FE12200FFF76CFF08222B46CDE900870DEB0201A4
S3150FE122100020FFF763FF284605F1200350F8042B52
S3150FE1222046F8042B9842F9D1002006B0BDE8F081BB
S3150FE12230103BE10F2DE9F04F99B0054688469146DF
S3150FE122401F4600F0D5FC0446002D40F081800423A3
S3150FE1225003604560C564436823F4406343606A469F
S3150FE122600563A8F10403456308F11C0853F8041F3D
S3150FE1227009BA434542F8041BF8D101F035F969462D
S3150FE12280054604F5827001F0A8F9284601F030F908
S3150FE12290DFF8C8B0304B23654FF0000809F00306AD
S3150FE122A0229B984529D117F0030F04F5807644D088
S3150FE122B001F01AF969460546304601F096F92846C6
S3150FE122C001F016F93D466B4608AE1A4603CAB2420D
S3150FE122D028606960134605F10805F6D1204600F03E
S3150FE122E091FC3B1F1C3753F8042F12BABB421A60FD
S3150FE122F0F9D1002019B0BDE8F08F09EB881566B169
S3150FE123000DF1200C05F1400E28686968624603C29B
S3150FE12310083575459446F7D108AD01F0E5F829463C
S3150FE12320824604F5D27001F068F9504601F0E0F803
S3150FE1233008F10108C4F850B0B2E701F0D5F8394613
S3150FE123400546304601F051F9284601F0D1F8C5E7C7
S3150FE123506FF07100CEE700BF888AC801070D8101D2
S3150FE123602DE9F041A2B0502204460D460EA80021F8
S3150FE1237001F0A5FA3422002101A801F0A0FA01A883
S3150FE1238000F0EAF9049B012B0ED8002323604FF0EE
S3150FE12390FF320123AB4203D3002022B0BDE8F08127
S3150FE123A044F823200133F5E7AB426DD300F0AEFFDE
S3150FE123B0059B0C220EA9DF68064601F02AF80028D4
S3150FE123C0EBD1DFF8D0800E9B434516D1109A0EA9BB
S3150FE123D0304601F01EF810994FF0FF320EA8FFF7C5
S3150FE123E033FA2B4B984236D004EB85054FF0FF338A
S3150FE123F0AC422DD140F20650CFE737440C220EA95D
S3150FE12400384601F006F80028C7D10E9B43450BD09D
S3150FE1241004EB85054FF0FF33AC4202D140F2055094
S3150FE12420BBE744F8043BF7E70EA9109A384600F0EC
S3150FE12430F0FF059B3046D96801F023F80028ACD1AF
S3150FE12440109A0EA9304600F0FAFF0028BED0A4E795
S3150FE1245044F8043BCCE7109B103B9B08AB4228BFEB
S3150FE124602B4610A9224604EB8300824207D14FF097
S3150FE12470FF32AB4290D244F823200133F9E751F80A
S3150FE12480046F42F8046BF0E740F2045085E700BFB2
S3150FE12490E320BBDE39528FE1F0B54422A3B00C46FF
S3150FE124A0064600210DEB020001F009FA304A01233D
S3150FE124B0CDE90E2300215023342201A8109301F018
S3150FE124C0FEF901A800F048F9049BA3424CD3012B76
S3150FE124D008D833680133012B40F2045098BF00202E
S3150FE124E023B0F0BD00F012FF059B102CDF682146EB
S3150FE124F028BF102105460744334610AA06EB810093
S3150FE12500834227D10EAC4FF0FF33102927D14C214F
S3150FE125104FF0FF322046FFF797F9059BC043219015
S3150FE12520D968384600F0ADFF0028D9D150222146AF
S3150FE12530384600F084FF0028D2D1059B2846D9689A
S3150FE1254000F09FFF0028CBD150222146284600F00C
S3150FE1255076FFC5E753F8044B42F8044FD0E704EB97
S3150FE1256081020131D360D0E740F20450B8E700BFF2
S3150FE1257039528FE130B5E1B001AC4FF4BE7221466D
S3150FE12580002000F011FF40F201250021204600F066
S3150FE12590E2FEA842F9D040F20323984216D12278FF
S3150FE125A002F00103920715D583B1104B6168D3F899
S3150FE125B028389B6899420FD9D4F86C0100F0EEF8F0
S3150FE125C020B1616A4FF40040FEF7B6FA40F20540DA
S3150FE125D061B030BD002BF9D0E168D4F86C0100F0A1
S3150FE125E001F90028F2D00020F2E700BF0000E10F69
S3150FE125F031B10A4B5A68824205D80023C1E900334B
S3150FE1260040F201407047013053F830200A6003EB86
S3150FE12610C00300205B684B60704700BFD43BE10FFE
S3150FE1262070B40C4611461A460D4B5D68854210D9BA
S3150FE12630013003EBC005A6186D68AE420DD8A54271
S3150FE126400BD3954209D353F83000204470BC00F008
S3150FE12650E0BE40F2014070BC704740F20240FAE73B
S3150FE12660D43BE10F70B586B00DF107030D4602932A
S3150FE1267000211E4B11600446164628461C22CDE961
S3150FE1268003338DF80710059301F019F99DF807202B
S3150FE1269052B994F86E30102B06D0D4F878311BB9B5
S3150FE126A0D4E95C31994219D32378990744BF61681C
S3150FE126B03160DB0709D504F1080304F1240153F86E
S3150FE126C0040B45F8040B8B42F9D162B92378002B41
S3150FE126D040F2064018BF002006B070BD02A92046A1
S3150FE126E000F01CFED2E70020F6E700BF1733E10F3B
S3150FE126F070B40C4611461A460D4B5D68854210D9EA
S3150FE12700013003EBC005A6186D68AE420DD8A542A0
S3150FE127100BD3954209D353F83000204470BC00F037
S3150FE127208EBE40F2014070BC704740F20240FAE7BC
S3150FE12730D43BE10F074B5A68824207D9013003EBCD
S3150FE12740C00253F83000516800F09BBE40F20140E1
S3150FE12750704700BFD43BE10F70B5054688B0C0B1F5
S3150FE127604FF440320023C0E900230B4B1A785B6824
S3150FE127700272C3606C46684600F050F80FCC05F163
S3150FE1278014060FC694E80F0086E80F0005F114034F
S3150FE127902B6108B070BD00BFD43BE10F0F4B00B505
S3150FE127A0D3F828389B688B42E5B003D3002065B098
S3150FE127B05DF804FB4FF4BE7205A900F0F5FD0028A4
S3150FE127C0F4D101A90223C1E900008DF81530886023
S3150FE127D0034BCB6005A800F0FEFDE8E70000E10F33
S3150FE127E0B109E10F00B5E5B04FF4BE7205A900F0EE
S3150FE127F0DBFD70B901238DF81530074B019001A967
S3150FE12800C1E90130C86005A800F0E5FD65B05DF8E6
S3150FE1281004FB0020FAE700BF8909E10F70B5054D0A
S3150FE12820064604460FCD0FC495E80F0084E80F0066
S3150FE12830304670BDB43BE10F024BD86900F00100A1
S3150FE12840704700BF00000E40054B064A06498B4212
S3150FE1285000D3704752F8040B43F8040BF7E700BFB8
S3150FE1286008100020003CE10F10100020044B054A30
S3150FE128700021934200D3704743F8041BF9E700BFE9
S3150FE12880101000204C100020044B054A9A60D3F833
S3150FE12890882042F47002C3F88820704700ED00E00B
S3150FE128A00008E10F044BD3F84421D20703D4D3F840
S3150FE128B040211042FBD1704700400E40C0F3032286
S3150FE128C0013A38B50346092A13D8DFE802F00513B2
S3150FE128D01212231619121C20104D0020C3F30434D3
S3150FE128E008B1FFF7DFFF05F1047504EBC5039B00A4
S3150FE128F0196038BD0A4D0020F0E70A4D0120EDE7DA
S3150FE12900094D1020EAE7094D4FF48030E6E7084D0F
S3150FE129100020E3E7074D0020E0E700BF00400E404F
S3150FE12920C0400E40E0400E40E8400E40F0400E4001
S3150FE1293050410E40B0400E400A4A0B4BD969C907C8
S3150FE1294005D512B96FF002007047013AF6E7002A92
S3150FE12950F8D001221861DA60D869C0F3800040F33C
S3150FE12960000070478096980000000E4070B5C1B127
S3150FE129700E4A0023082550F8234094610C4CD5608C
S3150FE129800133D669F60705D514B96FF0020009E0F0
S3150FE12990013CF6E7002CF8D0D469A40703D4994299
S3150FE129A0E9D1002070BD6FF00100FBE700000E409A
S3150FE129B0809698002DE9F8431C4B0D4641F671318F
S3150FE129C01E6C19641A49804648684968996841F04E
S3150FE129D00101B6B2996097084FF00009B94501D3E5
S3150FE129E0002005E008EB89042046FFF7A5FF48B173
S3150FE129F00E4B9A6822F001029A600EB100221A6418
S3150FE12A00BDE8F883C4F30A01C1F500618908A7EBB4
S3150FE12A100903994228BF19462846FFF7A7FF002861
S3150FE12A20E6D1894405EB8105D8E700BF00000E40EA
S3150FE12A3000300E40234B41F671311A6C10B5196413
S3150FE12A4021494C684968996841F001019960012172
S3150FE12A501861D960D9694C0792B209D5996821F005
S3150FE12A60010199600AB100221A644FF0FF3010BDDF
S3150FE12A700221D9601549D869C00700D569B9D86966
S3150FE12A8010F002000BD0996821F0010199600AB1AB
S3150FE12A9000221A646FF00100E9E70139EBE741B96A
S3150FE12AA0986820F00100986002B119646FF0020096
S3150FE12AB0DDE7996821F0010199600AB90020D6E7AF
S3150FE12AC01864FBE700000E4000300E408096980038
S3150FE12AD0944602F16042B2F5803F2DE9F04F03D9FA
S3150FE12AE04FF0FF30BDE8F08FDFF8C0E02C4CDFF898
S3150FE12AF0C0A0302606FB00E64FF44012C6F8802050
S3150FE12B000022C6F88420C6F88820C6F8982041F638
S3150FE12B107132D4F840802264A26842F00102A260C9
S3150FE12B204FF001091F4A09FA00F053B90422E26096
S3150FE12B30A26822F00102A2601FFA88F272BB00209E
S3150FE12B40D0E701F5006521611540C4F80C906D1AC7
S3150FE12B50D4F81CB09D4228BF1D461BF0040F4FEA67
S3150FE12B609507BDD1013F3F0147F06057C6F88C701D
S3150FE12B70C6F890C0C6F894A0DEF820700743CEF8E9
S3150FE12B8020701027E760DEF828703842FBD0064F39
S3150FE12B902944B862AC4438625B1BC6E72364CEE7CF
S3150FE12BA000000E4000F8FFFF00200E4400200E400B
S3150FE12BB018000E400D4AD2F8E430D2F8E0109B002F
S3150FE12BC003F03C03C1F381110B438370D2F8E0307C
S3150FE12BD003F03F034370D2F8E830D2F8EC2003F06C
S3150FE12BE0F003C2F3031213430370704700FF0FE0C4
S3150FE12BF0024B03480122C3F8002670470010C84371
S3150FE12C0000000F40094B98420ED003F580639842BE
S3150FE12C1009D10122064B03EBC2035A68054B134454
S3150FE12C209B0000221A6070470022F3E700000F4075
S3150FE12C30E43BE10F8005F210C0F30A032DE9F04101
S3150FE12C4004460F4616460BB900F0A0F804F50065E9
S3150FE12C506FF30A0504EB0608A84507D8324639464D
S3150FE12C6020460223BDE8F04100F097B8284600F070
S3150FE12C708DF805F50065EFE7006900F0FE00B0FAA3
S3150FE12C8080F0400970474FF40040704700F0BFBB3A
S3150FE12C9000F01CBC03461846016881F3088881F3EE
S3150FE12CA0098840688746FEE74FF40170FEF75CB886
S3150FE12CB0B1F5BE7F10B504460FD34FF4BE720021B6
S3150FE12CC000F0FDFD04F5827204F1BC0104F1280068
S3150FE12CD00023BDE8104000F03ABA40F2052010BDDE
S3150FE12CE013B50446009101462830FEF74BFAC4F8B6
S3150FE12CF0780118B141F20703984204D1A37823B1C1
S3150FE12D00E07800F2022002B010BD40F20120FAE7AE
S3150FE12D102DE9F04387B00DF108090446DDF8388057
S3150FE12D200E4617460021102248461D4600F0C7FD04
S3150FE12D300021C8F800101C22284600F0C0FD3246DB
S3150FE12D403B46CDF80090214604F12800FEF71AFA2A
S3150FE12D5023789A0744BF6268C8F80020DB0709D5D4
S3150FE12D6004F1080304F1240253F8041B45F8041B8C
S3150FE12D709342F9D12378002B40F2064018BF002089
S3150FE12D8007B0BDE8F0834FF4BE70704708B5FFF7A3
S3150FE12D9051FEB0FA80F0400908BD072B2DE9F3414A
S3150FE12DA005460E4614461F4603D9002002B0BDE87C
S3150FE12DB0F08101214FF4AA40FFF780FD0CB9012004
S3150FE12DC0F4E744EA0503DA07EFD4AB0737D53288E0
S3150FE12DD04FF6FF7343EA0243019304230DEB03021C
S3150FE12DE025F003013846FFF773FE0028DDD1023CDB
S3150FE12DF0032C05F1020506F102060DD924F00308AD
S3150FE12E004346324629463846FFF762FE0028CCD1C3
S3150FE12E1046444544A4EB0804002CD0D033886FEA2E
S3150FE12E2003436FEA1343019304230DEB0302294690
S3150FE12E303846FFF74DFEB0FA80F04009B6E7032CAE
S3150FE12E40DCD8EBE7F7B505460E46144612B9012075
S3150FE12E5003B0F0BD42EA0003DA0701D50020F7E738
S3150FE12E60830733D50A884FF6FF7343EA02430422F9
S3150FE12E700DEB020120F00300019300F033FC002873
S3150FE12E80ECD1023C032C05F1020506F102060BD942
S3150FE12E9024F003073A463146284600F023FC002882
S3150FE12EA0DCD13E443D44E41B002CD0D033880422D0
S3150FE12EB06FEA03436FEA13430DEB020128460193D1
S3150FE12EC000F010FCB0FA80F04009C1E7032CDFD81F
S3150FE12ED0ECE738B50D46044630B11022002100F07B
S3150FE12EE0EEFCE560002038BD41F20130FBE72DE94C
S3150FE12EF0F043044689B00E4690469946002545456E
S3150FE12F0001D300200AE0A37A1E2B4BD009D80A2B56
S3150FE12F102BD0142B32D0B3B141F2023009B0BDE858
S3150FE12F20F083232B42D0282BF6D1725D63681344CD
S3150FE12F306360735DFF2B13D03223A372A37A322B17
S3150FE12F400ED1002050E0725D12092260715D23817E
S3150FE12F5001F00F0104310F2A616003D10A23A37235
S3150FE12F600135CCE742B91E23F9E7725D23681344B5
S3150FE12F702360735DFF2BF3D01423F0E72368A8EBEF
S3150FE12F8005079F4228BF1F4670193946C847236870
S3150FE12F90013DDB1B23603D4493B91E23A372002839
S3150FE12FA0DED0BBE7735D23812323D8E7725D2389E7
S3150FE12FB043EA022323816368132BBDD12823CEE78E
S3150FE12FC00028BBD0AAE72089E368202F28BF202756
S3150FE12FD0874228BF07463A466946984739466846C3
S3150FE12FE0C8476368DB1B6360676827B10028EAD0CF
S3150FE12FF00023A37292E7A772D1E7436D002B14BFAB
S3150FE1300001200420704770B5D1E90153AB4218D2C4
S3150FE1301090F840202A44D21A402A12D80A6890F82A
S3150FE130204040D65C90F841202244013302F03F0242
S3150FE1303001349D4286548B6080F84040EED10120E9
S3150FE1304070BD0020FCE72DE9F84317469E46D1E90E
S3150FE13050012390F840C0089D9DF824909DF82880A3
S3150FE13060D21A6244954204460E460AD9FFF7CBFFC0
S3150FE1307000286AD1112384F8463041F20200BDE8F7
S3150FE13080F883754558D80023BCF1000F01D09D4256
S3150FE1309035D1D6E90121914201D29D4244D89D42D3
S3150FE130A050D1D4F8882029463846FEF7CDFBC4F82F
S3150FE130B08800B9F1000F04D0E06C2A46394600F0DA
S3150FE130C0ADF8B8F1000F08D094F843308BB1A06C8E
S3150FE130D02B463A46394600F086F894F8433043B129
S3150FE130E0E36DA26D2B449342E36524BF002384F87D
S3150FE130F04330636D2B44636541F20300BFE794F8F8
S3150FE131004120A25CFA5494F8412094F840C0013270
S3150FE131100CF1FF3C02F03F025FFA8CFC84F8412090
S3150FE1312084F840C00133AFE73268525CFA54B268B3
S3150FE131300132B2600133ACE741F20100112384F8A9
S3150FE1314046309CE741F20200F8E7002097E72DE9C8
S3150FE13150F04103F02003002504464FF0FF38C0E9A4
S3150FE1316018550F461646A0F8405080F84350A0F880
S3150FE13170445080F8465080F84230C0F888801822D3
S3150FE13180FF21683000F09BFBC4E91276C4F880801A
S3150FE13190C4F8848084F8905016B1304600F034F8C4
S3150FE131A00020BDE8F081F8B5044616461D460F46E8
S3150FE131B000F09AFADDE90612204600F099FA0023AB
S3150FE131C0636284F838703368C4F839307368C4F8C9
S3150FE131D03D30B368C4F841302B0C6DBA84F84530F5
S3150FE131E0A4F84650F8BD30B585B00D46194600F145
S3150FE131F02803CDE90152009300F1240200F13803CF
S3150FE1320000F094FA05B030BD10B5044600F02BF886
S3150FE1321020460021BDE8104000F029B800F02CB897
S3150FE13220014600F036B8026803464AB91C2053F846
S3150FE13230042F0AB90438FAD1B0FA80F04009704781
S3150FE132400020704738B5202204460D46002100F0D4
S3150FE1325036FB05F12003601E13F8012D00F8012F4F
S3150FE13260AB42F9D138BD6822002100F028BB0346F5
S3150FE132700020C3E90000704707B500F1280301906C
S3150FE13280009300F108030020FEF728FF03B05DF875
S3150FE1329004FB08B502460B4600F128010830FEF79C
S3150FE132A07DFF002008BD30B59FB0342200210546D1
S3150FE132B001A800F004FB01A8FFF74EFA049C012CCC
S3150FE132C01ED921460EA8FFF74BF818B140F2055368
S3150FE132D098420ED10EAA002352F8041B481C0AD1BC
S3150FE132E01EAA02EB830321460EA843F8405CFFF7C3
S3150FE132F0D3F81FB030BDA94205D001339C42EBD1C3
S3150FE1330040F20250F5E740F20350F2E74FF4802026
S3150FE133107047FFF72FB901221A70704730B5A3B086
S3150FE1332004460D4602AAD0F87411D0F86C01802339
S3150FE13330FFF776F90095802302AA214604F12800CA
S3150FE13340FDF720FFD4F87431C4F878018033C4F85F
S3150FE13350743123B030BD1FB50023CDE90033CDE97C
S3150FE133600213D0F87831044693B9D0E95C329A4228
S3150FE133700ED26946FFF7D2FFD4F8780170B141F268
S3150FE13380070240F20123904208BF184604B010BD70
S3150FE13390A37833B1E07800F20220F7E740F201209B
S3150FE133A0F4E740F20220F1E737B50C460546114640
S3150FE133B02046FFF77DFC48B969462846FFF718F91D
S3150FE133C030B9019BC4F86C51C4F8703103B030BD0C
S3150FE133D040F20140FAE738B500F5827204460D4630
S3150FE133E0202300F1BC012830FFF7B1FED4F8783184
S3150FE133F013B1A07848B938BDD4E95C329A42F8D214
S3150FE1340029462046FFF78AFFF0E7E078F3E7002049
S3150FE134107047B2F5002F10B51346044608460BD890
S3150FE13420B4F5002F08D82344B3F5002F04D821466D
S3150FE1343000F04DFA002010BD40F20240FBE7B2F575
S3150FE13440002F10B506D8B0F5002F03D88318B3F5C2
S3150FE13450002F0ED940F2024010BDC45801340AD1F3
S3150FE1346004339A42F9D8FFF7EDFC0028F2D0002099
S3150FE13470F2E70023F5E740F20340EDE74FF0FF30C7
S3150FE13480704738B541EA0003C3F30A030446D3B9DB
S3150FE13490B1F5002F02D940F2024038BDB0F5002F49
S3150FE134A0F9D80D18B5F5002FF5D8204604F50064C7
S3150FE134B0FFF76CFCAC4202D00028F6D1EBE700280F
S3150FE134C0E9D00020E9E740F20440E6E70020704743
S3150FE134D0FEE708B5FFF7D8F9FDF7AEFBFFF7B4F94D
S3150FE134E0FFF7C4F9FDF738FBEFF3108072B67047BB
S3150FE134F000B962B6704784B00B6800934B680193CD
S3150FE135008B680293CB680393009B0360019B036077
S3150FE13510029B0360039B03600023009301930293D5
S3150FE13520039304B0704730B5D1E90223D1E90054D2
S3150FE13530056004600260036030BD30B5056804685C
S3150FE1354002680368C1E90054C1E9022330BD70B4D2
S3150FE135500B46990785B0024615D06D4603F1100665
S3150FE13560186859682C4603C40833B3422546F7D188
S3150FE13570009B1360019B1360029B1360039B136017
S3150FE1358005B070BC70470093009905B070BCFFF7AA
S3150FE13590CABF10B40B46990785B0024616D0046828
S3150FE135A0006811681268CDE90212CDE900406C4658
S3150FE135B0224603CA596004A98A421860144603F1E8
S3150FE135C00803F5D105B05DF8044B704700930099F8
S3150FE135D005B05DF8044BFFF7B0BF10B5FFF7A3FFDA
S3150FE135E0BDE810401031FFF79EBF10B5FFF7A5FFFD
S3150FE135F0BDE810401031FFF7A0BF10B5FFF793FFFD
S3150FE136000C461031FFF78FFF04F12001FFF78BFF17
S3150FE1361004F13001BDE81040FFF785BF00F10473F7
S3150FE13620102A10B54FEA43130AD101221A6000F5A9
S3150FE136308870FFF760FF1031BDE81040FFF75BBF01
S3150FE1364000221A602430F7E7F0B50B46990789B0E7
S3150FE136500546144629D0082A6E4618D103F11007FC
S3150FE1366018685968324603C20833BB421646F7D18A
S3150FE13670224669462846FFF7D1FF082C14BF0822D8
S3150FE1368004226B460021013A0CD209B0F0BD03F1D9
S3150FE13690200718685968324603C20833BB421646FB
S3150FE136A0F7D1E5E743F8041BEDE70093009909B07D
S3150FE136B0BDE8F040FFF7B2BF436823F01F030E29C1
S3150FE136C00BD8DFE801F008080808080B0B0B080810
S3150FE136D008080B0B0B00194341607047194341F082
S3150FE136E01001F9E7FFF766B92422002100F0E7B8E8
S3150FE136F070B515460E4624220021044600F0DFF888
S3150FE13700C02D0DD0B5F5807F01D0802D0BD1204690
S3150FE13710EA0840F8045B314600F0D9F8002070BDA5
S3150FE137206FF07100FBE76FF01F00F8E72DE9F04F3F
S3150FE1373087B08B4601900293904652B11568019B73
S3150FE137401B68802B03D0B3F5807F40F0A580002660
S3150FE137500DE01546F3E7A5B1119B109A9B5D525DFE
S3150FE137605340129A0135935505F00F0501365E4523
S3150FE13770F1D3B8F1000F40F08C80002007B0BDE81F
S3150FE13780F08FFFF735FA4FF4404345600360044687
S3150FE13790FFF7AAFE019951F8043B802B074614BFA8
S3150FE137A0102208222046FFF74FFF04F18403184643
S3150FE137B002990393FFF7CBFE3846FFF799FE119B6C
S3150FE137C0ABEB060703EB0609129B27F00F0703EB9B
S3150FE137D0060A09EB07030593059989454FF005039A
S3150FE137E04FF0030219D1119B3744DE19129B1F4487
S3150FE137F0119B03EB0B0A032356452AD1FFF774FE00
S3150FE138000646DDE90210FFF7C4FE3046FFF770FE0C
S3150FE138102046FFF7F7F95E46A9E74821A160A360C5
S3150FE1382021698907FCD4A260FFF75EFE4946049041
S3150FE1383004F1A000FFF78BFE514604F18000FFF77C
S3150FE13840A8FE0498FFF754FE09F110090AF1100AD0
S3150FE13850C2E79DB94822A2600522A26022699207BA
S3150FE13860FCD4A360FFF740FE1099814604F1800076
S3150FE13870FFF78FFE4846FFF73BFE0323109916F835
S3150FE13880012B495D01354A4007F8012B05F00F057C
S3150FE13890B2E7C8F8005070E76FF020006EE710B599
S3150FE138A001390244904201D1002005E0037811F875
S3150FE138B0014FA34201D0181B10BD0130F2E70244BC
S3150FE138C00346934200D1704703F8011BF9E70A4417
S3150FE138D0914200F1FF3300D1704710B511F8014B5A
S3150FE138E003F8014F9142F9D110BD0000000000002D
S3150FE138F000000000000000000000000000000000D2
S3150FE13900F8B500BFF8BC08BC9E467047F8B500BFD6
S3150FE13910F8BC08BC9E46704700000000000000009E
S3150FE1392000000000000000000000000000000000A1
S3150FE139300000000000000000000000000000000091
S3150FE13940B814B6F1E0CFF3ADB7DD25C9FA79B71300
S3150FE139500000000013B779FAC925DDB7ADF3CFE063
S3150FE13960F1B614B8010200000000000008340000AF
S3150FE139704000000002000402000000000000000009
S3150FE139800000000000000000000000000000000041
S3150FE139900000000000000000000000000000000031
S3150FE139A00000000007B0CD5E020000000200040235
S3150FE139B00C3400000000000000000800F0000100D8
S3150FE139C08D2CE10F912CE10F590AE10FB12CE10F8B
S3150FE139D0E12CE10F703BE10F112DE10F872DE10F87
S3150FE139E00000000000000000872CE10FFD0505FD3A
S3150FE139F0750FE10FA10FE10FD90FE10FFB2FE10FCB
S3150FE13A00EB17A6030201000003000000FA0606FA0F
S3150FE13A100D04000003000000F40A0AF40505000096
S3150FE13A2001000000F50909F5030700000100000098
S3150FE13A30F60808F60608000000000000FE0101FE88
S3150FE13A400808000000000000FD0303FD0A0800005E
S3150FE13A5000000000FD0505FD100800000000000054
S3150FE13A60F90707F90E09000002000000F70A0AF745
S3150FE13A700F0B000003000000FC0404FC0B0C00001C
S3150FE13A80030000002000000000010000050C00000B
S3150FE13A90FFFFFFFFFFFFFFFFFFFFFFFF000000003C
S3150FE13AA0000000000000000001000000FFFFFFFF23
S3150FE13AB0512563FCC2CAB9F3849E17A7ADFAE6BCDA
S3150FE13AC0FFFFFFFFFFFFFFFF00000000FFFFFFFF0C
S3150FE13AD096C298D84539A1F4A033EB2D817D0377B2
S3150FE13AE0F240A463E5E6BCF847422CE1F2D1176B4D
S3150FE13AF0F551BF376840B6CBCE5E316B5733CE2B20
S3150FE13B00169E0F7C4AEBE78E9B7F1AFEE242E34F4E
S3150FE13B10800000000000000000000000000000002F
S3150FE13B20000000000000000000000000000000009F
S3150FE13B30000000000000000000000000000000008F
S3150FE13B40000000000000000000000000000000007F
S3150FE13B506A09E667BB67AE853C6EF372A54FF53A28
S3150FE13B60510E527F9B05688C1F83D9AB5BE0CD1954
S3150FE13B70000100005927E10FF125E10F2126E10FA1
S3150FE13B80F126E10F3527E10F9924E10F6123E10FCB
S3150FE13B90A732E10FA933E10F5733E10F6526E10FA5
S3150FE13BA03928E10F1334E10F3F34E10F8334E10F8D
S3150FE13BB07D34E10F10020300280000002800000009
S3150FE13BC000080000000008000000000002000000ED
S3150FE13BD000000040010000000100000000000400A9
S3150FE13BE00070030000000F400000000000040F40CA
S3150FE13BF001000000003CE10F081000200200000068
S30D0FE13C006509E10F3D09E10F32
S50303A356
S70500000000FA
