S0370000626F6F746C6F616465722D73746F726167652D696E7465726E616C2D73696E676C652D3531326B2D636F6D62696E65642E73333799
S3150FE100000F4880F308880F4800470000D105E10F3C
S3150FE10010D105E10FD105E10FD105E10FD105E10FD2
S3150FE10020D105E10FD105E10FEC05E10FD105E10FA7
S3150FE10030D105E10FD105E10FD105E10FD105E10FB2
S3150FE10040004000208505E10F0348044B834202D0AF
S3150FE10050034B03B118477047140100201401002028
S3150FE10060000000000548064B1B1AD90F01EBA3014F
S3150FE10070491002D0034B03B1184770471401002012
S3150FE10080140100200000000010B5064C237843B997
S3150FE10090FFF7DAFF044B13B10448AFF300800123F6
S3150FE100A0237010BD14010020000000000006E10FCF
S3150FE100B008B5054B1BB105490548AFF30080BDE80F
S3150FE100C00840FFF7CFBF00BF000000001801002076
S3150FE100D00006E10F044B054A9A60D3F8882042F4F3
S3150FE100E07002C3F88820704700ED00E00000E10FD1
S3150FE100F0094A0A4BD969C90705D512B96FF002004A
S3150FE101007047013AF6E7002AF8D001221861DA6062
S3150FE10110D86940F3800070478096980000000E4042
S3150FE1012070B509B9002070BD0E4A0023082550F8B5
S3150FE10130234094610C4CD5600133D669F60705D59A
S3150FE1014014B96FF00200EEE7013CF6E7002CF8D0A8
S3150FE10150D469A40702D49942E9D1E3E76FF001002C
S3150FE10160E1E700BF00000E40809698002DE9F843C5
S3150FE101701C4B0D4641F671311E6C19641A498046C6
S3150FE1018048684968996841F00101B6B299609708E4
S3150FE101904FF00009B94501D3002005E008EB8904CA
S3150FE101A02046FFF7A5FF48B10E4B9A6822F00102F0
S3150FE101B09A600EB100221A64BDE8F883C4F30A010E
S3150FE101C0C1F500618908A7EB0903994228BF1946D2
S3150FE101D02846FFF7A5FF0028E6D1894405EB8105FF
S3150FE101E0D8E700BF00000E4000300E40234B41F62A
S3150FE101F071311A6C10B5196421494C6849689968CF
S3150FE1020041F00101996001211861D960D9694C0763
S3150FE1021092B209D5996821F0010199600AB10022DC
S3150FE102201A644FF0FF3010BD0221D9601549D86924
S3150FE10230C00700D569B9D86910F002000BD09968EB
S3150FE1024021F0010199600AB100221A646FF00100F1
S3150FE10250E9E70139EBE741B9986820F001009860C9
S3150FE1026002B119646FF00200DDE7996821F001012F
S3150FE1027099600AB90020D6E71864FBE700000E4043
S3150FE1028000300E4080969800FFF770BF08B50A4B15
S3150FE102901A680A4B1A600A4B40221A615A685203CE
S3150FE102A0FCD400F07DF80028FBD040F2022000F0EC
S3150FE102B0C9F8002008BD00BF040100200801002095
S3150FE102C000300E4010B5104C104BA36000F0D8F87B
S3150FE102D00F4B5B68B3F5803F09D040F20923984293
S3150FE102E002D0B0F5007F02D100F016F850B9094BF4
S3150FE102F0A3601846016881F3088881F3098840688D
S3150FE103008746FEE710BD00BF00ED00E00000E10FFC
S3150FE1031000500E400008E10F2DE9F041DFF87C8037
S3150FE10320D8F828201069D568836AAB4202D200203B
S3150FE10330BDE8F08105F560529A42F8D95B1BC61804
S3150FE10340C758144B9F42F2D1F1684FF0FF3200F0DC
S3150FE10350FFF8114B98420446E9D1D8F82838A3F1B2
S3150FE103607E62A2F58432B2F5605F10D21A68BA42A4
S3150FE103700DD1B1689A68914209D8D9684FF0FF3229
S3150FE10380284600F0E5F8001B18BF0120D0E7012051
S3150FE10390CEE700BF07B0CD5EE320BBDE0000E10F85
S3150FE103A0F8B5194B9B6AD3E90347BB6A1B1BFD18CB
S3150FE103B02646EA68A318B3421DD83946204600F00F
S3150FE103C092F8B8B1104BD3F82838A3F17E62A2F5B3
S3150FE103D08432B2F5605F14D219680C4A914210D19A
S3150FE103E0D9684FF0FF32204600F0B2F8084BC31A36
S3150FE103F058425841F8BD304600F06EF806F50066F2
S3150FE10400D7E70020F6E700BF0000E10F07B0CD5EAA
S3150FE10410E320BBDE4FF000534AF6C0305B8823F092
S3150FE104200F039BB21B1A5842584170474FF00052C7
S3150FE1043008B51080FFF7EEFF10B94FF20F035380A7
S3150FE1044008BD000008B5FFF7F1FF0A4A136823F468
S3150FE10450E06343F400731360BFF34F8F0649074B15
S3150FE10460CA6802F4E0621343CB60BFF34F8F00BF5C
S3150FE10470FDE700BF00500E4000ED00E00400FA0575
S3150FE104804FF000534FF20F015A888A4201D1188873
S3150FE1049070473AB91B88012B40F2022018BF4FF47F
S3150FE104A0007070474FF40070704707B503469B071E
S3150FE104B053BF6FEA01414FF6FF7343EA01416FEA1A
S3150FE104C011410422019120F003000DEB0201FFF728
S3150FE104D0DBFE03B05DF804FB08B5FFF787FEB0FA64
S3150FE104E080F0400908BDF8B505460E4614460AB92F
S3150FE104F00120F8BD42EA0003DA0701D50020F8E74B
S3150FE10500830721D50988FFF7D0FF0028F6D1023CF2
S3150FE10510032C05F1020506F102060BD924F00307B8
S3150FE105203A4631462846FFF7AFFE0028E6D13E446C
S3150FE105303D44E41B002CDBD031882846FFF7B5FF9D
S3150FE10540B0FA80F04009D4E7032CE7D8F4E70000CE
S3150FE1055010B50A4CD4F8B03043F04003C4F8B030CC
S3150FE10560074B01241C6001449A605C60884201D10B
S3150FE10570D86910BD10F8012B9A61F7E700400E40DC
S3150FE1058000C001400B4880470B4880470B490C4A96
S3150FE105900C4B9A42BEBF51F8040B42F8040BF8E735
S3150FE105A009490A4A00209142BCBF41F8040BFAE718
S3150FE105B0FFF76CFED500E10FC502E10F0406E10F6F
S3150FE105C00401002014010020140100203001002055
S3150FE105D0FEE700BFF8B500BFF8BC08BC9E46704702
S3150FE105E0F8B500BFF8BC08BC9E467047AD1007B022
S3150FE105F00100000000000C010008E10F008000007F
S3150FE1060000000000C0EA2101C0EA2101B100E10FBB
S3090FE106108900E10F77
S3150FE10800081000202B2CE10F292CE10FB52CE10F5D
S3150FE10810292CE10F292CE10F292CE10F292CE10FCE
S3150FE10820292CE10F292CE10F8439E10F292CE10F56
S3150FE10830292CE10F3439E10F292CE10F292CE10F96
S3150FE10840292CE10F292CE10F292CE10F292CE10F9E
S3150FE10850292CE10F292CE10F292CE10F292CE10F8E
S3150FE10860292CE10F292CE10F292CE10F292CE10F7E
S3150FE10870292CE10F292CE10F292CE10F292CE10F6E
S3150FE10880292CE10F292CE10F292CE10F292CE10F5E
S3150FE10890292CE10F292CE10F292CE10F292CE10F4E
S3150FE108A0292CE10F292CE10F292CE10F292CE10F3E
S3150FE108B0292CE10F292CE10F292CE10F292CE10F2E
S3150FE108C0292CE10F292CE10F292CE10F292CE10F1E
S3150FE108D0292CE10F292CE10F292CE10F292CE10F0E
S3150FE108E0292CE10F292CE10F292CE10F292CE10FFE
S3150FE108F0292CE10F292CE10F292CE10F0348044B99
S3150FE10900834202D0034B03B1184770471010002002
S3150FE1091010100020000000000548064B1B1AD90FE6
S3150FE1092001EBA301491002D0034B03B118477047FE
S3150FE1093010100020101000200000000010B5064C2A
S3150FE10940237843B9FFF7DAFF044B13B10448AFF34A
S3150FE1095000800123237010BD481000200000000025
S3150FE10960D43BE10F08B5054B1BB105490548AFF37C
S3150FE109700080BDE80840FFF7CFBF00BF00000000D1
S3150FE1098010100020D43BE10F064B0748DA1C121A70
S3150FE10990C11E22F00302994288BF0022034902F0E9
S3150FE109A08ABF00BF1010002008100020E03BE10FC6
S3150FE109B0064B0748DA1C121AC11E22F003029942AE
S3150FE109C088BF0022002102F06EBF00BF4C1000204D
S3150FE109D010100020044B054A9A60D3F8882042F4A0
S3150FE109E07002C3F88820704700ED00E00008E10FC0
S3150FE109F070B4084DD5F828582E698642034606D8B5
S3150FE10A006C6913449C4202D370BC02F019B970BCF5
S3150FE10A10704700BF0000E10F37B51446144A936AD9
S3150FE10A200D461968134B994220D100F5004310F595
S3150FE10A30004F01931AD2019BB3F5002F16D2019BFA
S3150FE10A40C3F50023A34211D340B9D2F828385A6926
S3150FE10A50B2F5004F02D9186902F0CDF90198224695
S3150FE10A60294603B0BDE8304002F0EAB803B030BD25
S3150FE10A700000E10FAD1007B0F0B5421ED11C85B0F5
S3150FE10A80034618D80D4C6E4604F1100720686168CD
S3150FE10A90354603C50834BC422E46F7D104A90F33B8
S3150FE10AA011F8014D12F8010F844204D19A42F7D1A0
S3150FE10AB0012005B0F0BD0020FBE700BF2039E10FB3
S3150FE10AC0F0B5036803F16043B3F5803F9FB0044689
S3150FE10AD05DD8314A4368D2F8282816699E4256D81E
S3150FE10AE0B3F5002F53D8456B06F14003AB4250D80F
S3150FE10AF0B5F5002F4DD82846FFF7BEFF002848D0A1
S3150FE10B00284602F0BFF880B16F6977B1022F0ED197
S3150FE10B10AB69C4F1040119444FF0FF32204600F0EE
S3150FE10B20C3FE1E4BC31A584258411FB0F0BD40F2E7
S3150FE10B30046328460393FFF79FFF0028F5D0012FA3
S3150FE10B4025D1AD69AE4222D8AC4220D8B5F5002FFA
S3150FE10B501DD804A802F066FB2A1B214604A802F061
S3150FE10B606BFB04A802F06AFB00F0F8FE044600F006
S3150FE10B70F9FE2346009005F12002294604A800F06C
S3150FE10B80ADFE03900398B0FA80F04009CDE700205F
S3150FE10B90CBE70120C9E700BF0000E10FE320BBDE91
S3150FE10BA008B54FF0FF3200F07FFE044B984203D1B8
S3150FE10BB040F2092000F00CF9002008BDE320BBDE6E
S3150FE10BC0304B13B501225A641A6842F480721A60E7
S3150FE10BD001A801F0E7FF9DF80530012B03D89DF839
S3150FE10BE00430022B0DD9284B4FF41872C3F88C221F
S3150FE10BF0264AC3F89022264AC3F8F022254AC3F8BB
S3150FE10C00F822254BD3F8A42142F4F842C3F8A421E4
S3150FE10C105B6802F041F800F0A3F808B900F088F834
S3150FE10C2002F082FB044658B900F09AF808B100F0D9
S3150FE10C308FF840F2012000F0CBF84FF4017018E085
S3150FE10C4000F08EF808B900F07BF800F0A3F8012860
S3150FE10C5002D900F06DF8FEE700F0A8F80F4B01930B
S3150FE10C60019B002B0ADC40F205439C42E5D140F2A1
S3150FE10C70032000F0ADF8002002B010BD019B013B4F
S3150FE10C80EDE700BF00000E4000400E409A6F0500F1
S3150FE10C90180100040084320800300E4000350C00C4
S3150FE10CA013B501238DF806308DF807301E4B5B68BF
S3150FE10CB05A050FD500F0AAF8A0F2022080B2072854
S3150FE10CC008D8C923C340DB0742BF00238DF806309E
S3150FE10CD08DF8073000246368013307D14FF40270B2
S3150FE10CE000F04CF88DF806408DF807409DF8073077
S3150FE10CF05BB10020FFF7E4FE8DF806009DF80630A4
S3150FE10D001BB94FF4027000F039F89DF806304BB17C
S3150FE10D1000F026F808B100F01BF8044B00209860AC
S3150FE10D2001F0BEFF02B010BD00500E4000ED00E035
S3150FE10D30024B4CF23C325A80704700BF0000002054
S3150FE10D40024B4AF6C0325A80704700BF00000020BE
S3150FE10D50024B4FF20F025A80704700BF000000208E
S3150FE10D60054B5B8823F00F034AF6C0309BB21B1A83
S3150FE10D7058425841704700BF00000020044A08B5A9
S3150FE10D801080FFF7EDFF10B94FF20F03538008BD47
S3150FE10D900000002008B5FFF7E3FF18B1024B5888B2
S3150FE10DA000F00F0008BD00BF0000002008B5FFF7F7
S3150FE10DB0D7FF48B1054A538803F00F010F2914BF36
S3150FE10DC0013323F00F03538008BD00BF000000205D
S3150FE10DD008B5FFF7D3FF0A4A136823F4E06343F438
S3150FE10DE000731360BFF34F8F0649074BCA6802F4CE
S3150FE10DF0E0621343CB60BFF34F8F00BFFDE700BF48
S3150FE10E0000500E4000ED00E00400FA05094B5A8848
S3150FE10E104FF20F018A4201D1188870473AB91B8800
S3150FE10E20012B40F2022018BF4FF4007070474FF4C8
S3150FE10E3000707047000000202DE9F74FDFF8E090D2
S3150FE10E4099F80440844205468846924664D2D9F819
S3150FE10E5008301F6E314B2744041B9442D3F82838D0
S3150FE10E6028BF14463E1A1B69019331462246404676
S3150FE10E7002F021FD019B06EB040B191D8B4518D3DF
S3150FE10E801C33B34215D98E423246A5EB070038BF64
S3150FE10E900A46C1F16801104411449B4594BFC2EB68
S3150FE10EA00B02C2EB0302D9F808304044194402F0B1
S3150FE10EB002FD48F203039B4503D948F207039E421D
S3150FE10EC010D92D1B544509D299F80410491BAAEBE9
S3150FE10ED00402494408EB040002F0EDFC002003B0E4
S3150FE10EE0BDE8F08F48F204039E42324638BF1A46F8
S3150FE10EF0E81BD9F80830A2F5FF41104448F208067D
S3150FE10F000439B34594BFC2EB0B02C2EB0602194497
S3150FE10F10404402F0D0FCD4E70024D3E70000E10F10
S3150FE10F20281000202DE9F043294C0746207989B096
S3150FE10F300E46D0B1C0F104058D4228BF0D462A46B3
S3150FE10F403946204402F0B7FC22792A44D2B2042A68
S3150FE10F5022710BD1E368A068214600F0EFF8002378
S3150FE10F60237118B109B0BDE8F0830546A6EB050874
S3150FE10F7038F003081DD020220021684602F093FCC9
S3150FE10F80B8F1200FC14628BF4FF0200979194A461B
S3150FE10F90684602F090FCE368A0684A46694600F0AD
S3150FE10FA0CDF84D44A8EB09080028DBD1B8F1000FC5
S3150FE10FB0E6D1B54201D30020D4E7761B00230448DE
S3150FE10FC023603246791902F076FC2671F3E700BF0A
S3150FE10FD028100020084B10B52022044600211846A0
S3150FE10FE002F061FC012284604271BDE810400349C1
S3150FE10FF0103001F07EBF00BF28100020390EE10F3F
S3150FE1100030B40546586878B1084C607920B10020B4
S3150FE110106071086828660420E360121A014430BC47
S3150FE11020034B044801F073BF30BC70472810002012
S3150FE11030250FE10F381000204B6810B50BB90020D2
S3150FE1104010BD0B4C207968B1C0F10402FF21204499
S3150FE1105002F029FCE368A0680422214600F06EF84D
S3150FE1106000232371A37E1E2BE9D041F20230E7E77D
S3150FE11070281000200068024BC31A584258417047A6
S3150FE11080FD0505FD034A044B90420CBF18460020AF
S3150FE11090704700BFFD0505FDCC39E10F074930B5B6
S3150FE110A0024600230C2505FB03F460180C59944204
S3150FE110B003D001330B2BF6D1002030BDE039E10F20
S3150FE110C0F0B587B000230827CDE9013315463B4636
S3150FE110D0009704AA044601F0C7FF41F203039842C1
S3150FE110E0064623D194F8433053B1E06C3A4604A94E
S3150FE110F002F0A2F804AAA06C3B46114602F081F871
S3150FE11100059A6A6094F84320049B2B6052B9094A09
S3150FE11110934207D0084A934204D0E06C082204A90F
S3150FE1112002F08AF86B68236500236365304607B0E2
S3150FE11130F0BD00BFF70A0AF7FC0404FC2DE9F047FE
S3150FE1114099465B6804460F469046002B41D08B07C4
S3150FE1115042D1234B006ED3F828381B6981181D1D28
S3150FE11160A9421BD31C33984218D2A842024638BF74
S3150FE111702A46101A3E18C5F16800994294BFC2EB90
S3150FE11180010AC2EB030A104431465246204402F0EB
S3150FE1119092FB5246FF21304602F085FB226E48F262
S3150FE111A004039A420CD802EB080048F20701884281
S3150FE111B006D99B1AFA58C4F880204FF0FF32FA503D
S3150FE111C0D9E90035206E42463946A847236E434496
S3150FE111D023660020BDE8F08741F20200FAE700BF7F
S3150FE111E00000E10F2DE9F04FA7B0CDE913230593E9
S3150FE111F0309D002304460E4615934FF00109159ACB
S3150FE11200059B9A4201D30020CAE094F84630112B90
S3150FE11210F6D8DFE813F05D00AA00A40043002A0028
S3150FE112202F01B0012A00A8012A00A801CD0242032D
S3150FE11230120025019702270240030027636D0F2B4A
S3150FE1124000F291801023009316AA4023CDE901976E
S3150FE1125013A9204601F008FF0A900A9A41F2030307
S3150FE112609A4200F0EF800A9B3EE04FF00108D4E985
S3150FE1127014739F4277D9FF1ADDE914329B1A94F85A
S3150FE112804020032F134440F27A81032B00F28E8123
S3150FE1129013A9204601F0C7FE002325E0A24FDFF890
S3150FE112A09482636D072B00F2F2800823009316AA4E
S3150FE112B04023CDE9019913A9204601F0D5FE0C9003
S3150FE112C00C9A41F203039A4200F00B810C9B0BE05F
S3150FE112D016AA13A92046FFF7F3FE0790079B41F2E3
S3150FE112E00302934207D0079B0693069A41F2030343
S3150FE112F09A4284D053E0179A2265002216996265C5
S3150FE113008A4A914240F0FE80022284F84620EBE7BA
S3150FE113100823009316AA4023CDE9019713A9204686
S3150FE1132001F0A2FE0890089A41F203039A4201D016
S3150FE11330089BD9E7169B03F07F43B3F1407F05D0B6
S3150FE11340112384F8463041F20903CDE7179BDB07FA
S3150FE1135006D594F8423043F0010384F84230002772
S3150FE11360636D072BD4D9012302E116AA13A92046EF
S3150FE11370FFF7A6FE0990DDF8248041F203039845B5
S3150FE1138011D0DDF82480CDF81880069A41F20303D7
S3150FE113909A423FF434AF069B0BB10023F3700698E4
S3150FE113A027B0BDE8F08F1698FFF778FE074628B904
S3150FE113B0112384F8463041F20808E4E7437994F8BB
S3150FE113C090209A4205D9112384F8463041F20E084E
S3150FE113D0D9E70168564A914205D00289D00748BF3D
S3150FE113E0013384F8903094F84230D9070DD53A8914
S3150FE113F094F84330920706D53BB1112384F8463072
S3150FE1140041F20108BFE7002BF7D016A8FFF732FE2E
S3150FE1141018B93B7984F84630B5E71698C4F88C00CD
S3150FE11420FFF730FE94F842309B06F2D50028F0D054
S3150FE114304368002BEDD0204698470990099B002B76
S3150FE11440E7D0DDE7D4F8488000F090FA8023CDE9C4
S3150FE11450000317AA01230221404601F0B2FEEDE691
S3150FE11460226DA2650123002284F84330E26584F8F8
S3150FE114704630C4E600213C2217A8169102F013FA72
S3150FE114800127D4E91432934204D884F8467041F225
S3150FE11490030329E7009316AA4023CDE9017713A9A0
S3150FE114A0204601F0E1FD0B900B9A41F203039A42BC
S3150FE114B001D00B9B18E70DF1580C06F108030DF15E
S3150FE114C0700E624603CA724518605960944603F17D
S3150FE114D00803F6D110681860337843F001033370CF
S3150FE114E0CFE73378179A43F002033370169B736095
S3150FE114F0236D083B7362BB6A1968414505D1DB6809
S3150FE11500934205D0112384F8463041F20103EBE60D
S3150FE11510042384F8463094F8453043F0010384F808
S3150FE11520453000236366BCE60000E10FEB17A60327
S3150FE11530F90707F9AD1007B00423009316AA402364
S3150FE11540CDE9017713A9204601F08EFD0D900D9A95
S3150FE1155041F203039A4201D00D9BC5E6226D169B1C
S3150FE11560042A01D923660127636D032BE4D90923E5
S3150FE1157084F846308BE700236366072377E79F42BC
S3150FE115803FF686AE9F4228BF1F46402316AACDE9F6
S3150FE115900188009713A9204601F066FD0E900E9A79
S3150FE115A041F203039A420AD00E9B9DE6402F28BFD4
S3150FE115B040279F4228BF1F4627F00307E5E794F828
S3150FE115C046B0BBF1070F1BD0042FC7F1040A16ABC8
S3150FE115D088BF4FF0000A5246FF21D81902F063F98E
S3150FE115E0BBF1090FBA4419D12B46524616A920462B
S3150FE115F0FFF7A4FD0E900E9B002B3FF438AED3E719
S3150FE11600D5F808A0BAF1000FDED02B68606E3A4626
S3150FE1161016A9D047636E3B44636628E6BBF1040F18
S3150FE116207FF425AE737898077FF521AEEB68002B33
S3150FE116303FF41DAE626E042A0BD80AEB0203062BAA
S3150FE1164007D917AB9B1A1A68C4F884204FF0FF32FB
S3150FE116501A602B68EF68606E524616A9B847636E3B
S3150FE116605344D9E794F8427017F0200707D0D4F81E
S3150FE116708C00FFF707FD074600283FF446AF4FF012
S3150FE11680010A44E05BB357B33B6943B3204698473E
S3150FE11690DDE914329B1A94F8402013448342FFF498
S3150FE116A0F7ADD4E91421A2EB0108B8F1400F28BF39
S3150FE116B04FF04008984528BF984616AA4023CDE932
S3150FE116C001AACDF8008013A9204601F0CDFC0F90B9
S3150FE116D00F9A41F203039A4203D00F9B04E60120CE
S3150FE116E0D6E794F84230990611D5002F3FF40DAFA6
S3150FE116F0D7F808B0BBF1000F3FF407AF2B464246D0
S3150FE1170016A92046D8470F900F9B002BE5D1D4E9B8
S3150FE11710142194F84230914203F02003B2D3002B07
S3150FE117203FF421AE002F3FF41EAEFB68002B3FF4D2
S3150FE117301AAE2946204698470F900F9B002B3FF490
S3150FE1174012AECAE794F84470002F7FF40CAE402333
S3150FE11750009316AACDE9017713A9204601F084FC7F
S3150FE117601090109A41F203039A4201D0109BBBE508
S3150FE11770E06C01F063FDD4F84C8000F0EFF882469F
S3150FE1178000F0F0F8534600901EAA16A9404600F065
S3150FE11790A5F81090109B33B11123F77084F84630FA
S3150FE117A041F20603A0E50123F37084F84430DAE54C
S3150FE117B000234FF00408CDE9013316AA4023CDF8F3
S3150FE117C0008013A9204601F04FFC1190119A41F2C6
S3150FE117D003039A4202D0119B0693E0E5D4F88820E1
S3150FE117E02F4B9A4205D0112384F8463041F2050377
S3150FE117F0F2E70123F37094F84530DA0707D5EF687E
S3150FE118002FB12B68424604F184014046B84794F85C
S3150FE1181045309B0707D5EF682FB104222B6804F1FA
S3150FE1182084011046B847236E73B36F6867B304F14B
S3150FE1183080084FF0FF330422414612A8129302F0BB
S3150FE1184022F828B12B680422414648F20400B84732
S3150FE1185004F168090422494612A802F014F898B176
S3150FE11860104BD3F82838D3F810801422D5E9003776
S3150FE1187004F16C0108F10800B8470422D5E90037F5
S3150FE11880494608EB0200B8470123B3700C2384F8ED
S3150FE1189046300023A0E70023F37041F207007FE50E
S3150FE118A0E320BBDE0000E10F10B50A4CD4F8B030EF
S3150FE118B043F04003C4F8B030074B01241C600144E8
S3150FE118C09A605C60884201D1D86910BD10F8012B8E
S3150FE118D09A61F7E700400E4000C001402DE9F04163
S3150FE118E0A2B00E46DDF8A08015461F46044670B33A
S3150FE118F069B362B35BB3B8F1000F28D01548012184
S3150FE1190000F0C8FF4022002102A801F0CCFF3946C2
S3150FE1191002A801F0A5FC12AF41460AA801F0A0FC0E
S3150FE1192040220021384601F0BEFF3146384601F02C
S3150FE1193097FC29461AA801F093FC0748009702ABDA
S3150FE119402022214600F0BAFA22B0BDE8F08140F23A
S3150FE119500160F9E700050A0000000F4000487047F3
S3150FE119604A43E00F004870476A43E00F004870476B
S3150FE119708642E00F2DE9F04104461D460F4690469B
S3150FE1198000211C22181D01F08EFF01232B6001F0AF
S3150FE11990A6FD4146064604F5807001F00DFE394677
S3150FE119A004F5827004F5847701F006FE2946384680
S3150FE119B001F002FE304601F096FD0D4E0D4B0E4A3B
S3150FE119C00E490F4823656369DB010BD501F087FDEE
S3150FE119D029460446384601F0F7FD2046BDE8F041B9
S3150FE119E001F081BD22656165A065E665EBE700BFA4
S3150FE119F03938010039398401D02484FC1C82FED8A0
S3150FE11A008B1C81A02DE9F04F8DB0044617460D468C
S3150FE11A101E4601F064FD04F5827805F1400B81461F
S3150FE11A205946404601F0C8FD04F58673184604F59C
S3150FE11A30887A3946039301F0BFFD07F1200150463D
S3150FE11A4001F0BAFD484601F04EFD414A2265414A91
S3150FE11A5062650127404AA265E76501F040FD294627
S3150FE11A600190404601F0A8FD04F5847905F12002C5
S3150FE11A7011464846029201F09FFD5946504601F044
S3150FE11A809BFD019801F02FFD3449216534496165CC
S3150FE11A90A76501F024FD04F5807B824606F140013E
S3150FE11AA0584601F091FD04A9484601F08DFD5046D7
S3150FE11AB001F019FD01F013FD039B294682461846F5
S3150FE11AC001F07AFD504601F00EFD264B2365264BBC
S3150FE11AD063656FF42672A3F5FE231344A365E765E9
S3150FE11AE001F0FDFC029A05461146404601F064FD00
S3150FE11AF0284601F0F8FC1D4B23651D4B6365A76571
S3150FE11B0001F0EDFC31460546484601F05DFD2846FC
S3150FE11B1001F0E9FC01F0E3FC04A90546404601F0BA
S3150FE11B204BFD284601F0DFFC124B2365124B636533
S3150FE11B30A76501F0D4FC06F120010446584601F0F1
S3150FE11B4043FD204601F0CFFC0DB0BDE8F08F00BF9D
S3150FE11B508AD11C81D91C83D11C81E11CD01482CB83
S3150FE11B601481E11C8CE11C811C84D91CE014D8146E
S3150FE11B701482E11C84D31482D11CE0142DE9F041C7
S3150FE11B80044690B00F46244E0521904601F089FD9B
S3150FE11B9000232360236363630FCE08AD0FC596E879
S3150FE11BA00F0085E80F0008AA6B4607F140012046B2
S3150FE11BB0FFF7E0FE01F093FC04F5867605466946EC
S3150FE11BC004F5827001F0F8FC3946304601F0F4FC79
S3150FE11BD007F1200104F5887001F0EEFC284601F0CB
S3150FE11BE082FC0E4B23650E4B63650E4BA3650123FA
S3150FE11BF0E36501F074FC08F12001054604F58070F8
S3150FE11C0001F0E2FC4146304601F0DEFC284601F0E8
S3150FE11C106AFC10B0BDE8F081703AE10F8AD11C8100
S3150FE11C20D91C83D11C81E11C2DE9F04FA5B01D46CE
S3150FE11C300446CDE9021205A81C22002101F033FE6C
S3150FE11C404FF0010820220021284605F12007CDF8A3
S3150FE11C50108001F028FE20220021384601F023FEF4
S3150FE11C6005F14003184620220021009301F01BFEE7
S3150FE11C700521204601F015FD0023236023636363ED
S3150FE11C80039BDB69002B4FF0FF060BDB013E09D00F
S3150FE11C900399721106F01F0351F8222008FA03F394
S3150FE11CA01342F3D001F01BFC04F5827339468046EB
S3150FE11CB01846019301F080FC404601F014FC734B8A
S3150FE11CC02365734B6365734BA36501F008FC04F55C
S3150FE11CD0807914A98046484601F076FC404601F02A
S3150FE11CE002FC01F0FCFB29468046484601F064FC04
S3150FE11CF0404601F0F8FB684B2365684B63654FF48B
S3150FE11D008673A36501F0EBFB04F5867882460CA991
S3150FE11D10404601F059FC1CA9484601F055FC5046D6
S3150FE11D2001F0E1FB01F0DBFB8246DDE9001001F09A
S3150FE11D3043FC504601F0D7FB594B236501236365FD
S3150FE11D4001F0CDFB04F5847A29468346504601F02E
S3150FE11D5033FC584601F0C7FB524A226502F1D942DC
S3150FE11D6002F5DE1202F595626265A2F5861201238E
S3150FE11D70A2F2BA42A265E36501F0B1FB1CA9834663
S3150FE11D80504601F019FC0CA9404601F015FC5846E6
S3150FE11D9001F0A9FB444A2265444A6265444AA265B9
S3150FE11DA001F09DFB2946834604F5887001F00CFC92
S3150FE11DB0584601F098FB01F092FB394683460198AC
S3150FE11DC001F0FAFB5046009901F0F6FB14A94046E3
S3150FE11DD001F0F2FB584601F086FB364A2265364A98
S3150FE11DE0626501F07CFB00998246484601F0ECFB07
S3150FE11DF03946404601F0E8FB504601F074FB06F028
S3150FE11E001F0101238B407211039951F822201342CE
S3150FE11E1011D0284601F015FA38B1384601F011FA1A
S3150FE11E2018B1009801F00DFA58B9029A2B462946D6
S3150FE11E302046FFF7E7FD013EBFF434AF25B0BDE81D
S3150FE11E40F08F029BAC4603F1200E18685968624683
S3150FE11E5003C2083373459446F7D1BC4603F1200E0E
S3150FE11E6018685968624603C2083373459446F7D139
S3150FE11E700DF1100EBEE80F0005F1400CACE80F00B6
S3150FE11E809EE80F008CE80F00D5E700BF8AD11C81D1
S3150FE11E90821CC00C0C0C0100C00C0C83D91C83D81E
S3150FE11EA08AD11C83DA0C81148CE11CD01484E314DF
S3150FE11EB082D11C01D81483D11CC00C012DE9F04F3E
S3150FE11EC0BBB00F460446002115460AA86022449E80
S3150FE11ED09A4601F0E8FC6022002122A801F0E3FC1A
S3150FE11EE0002F00F01981BAF1000F00F01581002ED5
S3150FE11EF000F01281002D40F30F810023236023634D
S3150FE11F006363636843F0100363600C21204601F0BD
S3150FE11F10C8FB6368DFF820E223F4406343F4006310
S3150FE11F206360636823F4407343F400736360BEE850
S3150FE11F300F000DF1A80CACE80F009EE80F008CE83E
S3150FE11F400F0001F0CCFA04F5847983463146484611
S3150FE11F5004F5867801F030FB2AA9404601F02CFB07
S3150FE11F60584601F0C0FA6E4A22650123636563693B
S3150FE11F70DA0104D440F202603BB0BDE8F08F311FC5
S3150FE11F80082351F8040F002800F0BE8001F0A7FAEC
S3150FE11F9006F1200B01905946484601F00DFB2AA99F
S3150FE11FA0404601F009FB019801F09DFA01235C4AD5
S3150FE11FB0226563656369DB01DCD506F11C02082343
S3150FE11FC052F8041F002900F0A3802022002132A835
S3150FE11FD001F069FC202DA8BF2025013D013F25F029
S3150FE11FE0030303F594736B4405F0030117F8012F0F
S3150FE11FF0C9008A4053F8601C013D42EA010243F8E9
S3150FE12000602CECD201F06BFA32A90546484601F095
S3150FE12010D3FA284601F067FA424B236501F05FFADE
S3150FE1202004F58077054632A9384601F0CDFA284600
S3150FE1203001F059FA2AAA02AB59462046FFF79AFC54
S3150FE1204001F04DFA04F5887B054602A904F5827085
S3150FE1205001F0B2FA32A9584601F0AEFA31464046DE
S3150FE1206001F0AAFA284601F03EFA2F4B236503F158
S3150FE12070FA43A3F50063636501F031FA32A9054628
S3150FE12080584601F0A1FA02A9384601F09DFA284611
S3150FE1209001F029FA25490AAB32AA2046FFF7C4FD1A
S3150FE120A022AB02AA51462046FFF7BEFD0AAA114608
S3150FE120B02046FFF763FD22AB19460AAA2046FFF732
S3150FE120C0A1FC22AA11462046FFF758FD01F007FAB7
S3150FE120D00C210546204601F0E4FA22A9484601F013
S3150FE120E06BFA3146404601F067FA284601F0FBF9F3
S3150FE120F00F4B23650F4B6365636913F0807F40F2E6
S3150FE12100046018BF002037E7013B7FF43AAF31E7B0
S3150FE12110013B7FF455AF2DE740F201602CE700BF9D
S3150FE121203035DA1030D00C0130E11C84B03AE10FD2
S3150FE121303035DA1439380100903AE10F2DE9F347DA
S3150FE1214014460D46DDE90A921F4600284DD14CB3E0
S3150FE1215013683F2B2AD8516851B32549002F14BF75
S3150FE12160B846884603F03F061B19136022BF536832
S3150FE1217001335360FEB93F2C0ED9A30900932A46CA
S3150FE121803B464146002000F083F824F03F031D440F
S3150FE1219004F03F0434B100262246294609EB060036
S3150FE121A001F089FB002002B0BDE8F087B846D9E718
S3150FE121B0DFF83C80D6E7C6F1400A5445ECD3294611
S3150FE121C0524609EB060001F076FB26440123009304
S3150FE121D04A463B4641460020A6F1400400F058F836
S3150FE121E03F2C5544D6D9B846C7E70248DBE700BFCF
S3150FE121F0303BE10F80AFFFFF2DE9F041146886B068
S3150FE122001E46E3008DF80F3063098DF80E30630B30
S3150FE122108DF80D30630D8DF80C3053681746DA00E3
S3150FE1222002EB54728DF80B2004F03F045A09372C58
S3150FE122308DF80A204FEA53324FEA535305468DF88C
S3150FE122400920CDE9001794BFC4F13802C4F1780231
S3150FE1225088468DF808300D4903460020FFF76EFFDB
S3150FE1226008222B46CDE900870DEB02010020FFF78F
S3150FE1227065FF284605F1200350F8042B46F8042B99
S3150FE122809842F9D1002006B0BDE8F081F03AE10FAE
S3150FE122902DE9F04F99B00546884692461E4600F065
S3150FE122A09FFC0446002D7ED1042303604560C5647F
S3150FE122B04368694623F440634360A8F1040205636A
S3150FE122C008F11C034563884652F8040F00BA9A4297
S3150FE122D041F8040BF8D101F002F94146054604F540
S3150FE122E0827001F069F9284601F0FDF82F4B23655D
S3150FE122F04FF000090AF00307229B994527D1B3074F
S3150FE1230004F5807744D001F0EAF8414605463846B0
S3150FE1231001F05AF9284601F0E6F808AD3246434690
S3150FE1232003CBAB4210605160984602F10802F6D139
S3150FE12330204600F05FFC331F1C3653F8042F12BA08
S3150FE12340B3421A60F9D1002019B0BDE8F08F0AEB5C
S3150FE1235089156FB10DF1200E05F1400B28686968FB
S3150FE12360F446ACE8030008355D45E646F6D108AD1F
S3150FE1237001F0B5F82946834604F5D27001F02CF940
S3150FE12380584601F0B0F80A4A226509F10109B3E7A7
S3150FE1239001F0A5F831460546384601F015F928460C
S3150FE123A001F0A1F8C4E76FF07100CDE7888AC801A3
S3150FE123B0070D81012DE9F041A2B0502204460D46E9
S3150FE123C00EA8002101F06FFA3422002101A801F0D5
S3150FE123D06AFA01A800F0DAF9049B012B11D820461D
S3150FE123E000236A1E9D4240F8043B4FEA82024FF0FA
S3150FE123F0FF0108BF1A4601F056FA002022B0BDE8E8
S3150FE12400F081AB425DD300F08CFF059B0C220EA948
S3150FE12410DF68064601F004F80028EFD1DFF8AC805B
S3150FE124200E9B434515D1109A0EA9304600F0F8FFE1
S3150FE1243010994FF0FF320EA8FFF736FA224B98426A
S3150FE124402ED0AA00FF21204601F02DFA40F20650C8
S3150FE12450D4E737440C220EA9384600F0E1FF0028F5
S3150FE12460CCD10E9B434507D0AA00FF21204601F0B0
S3150FE124701AFA40F20550C1E70EA9109A384600F054
S3150FE12480CFFF059B3046D96801F002F80028B5D198
S3150FE12490109A0EA9304600F0D9FF0028C3D0ADE758
S3150FE124A0109E103EB608AE4228BF2E46B7003A46FA
S3150FE124B011A9204601F0FFF9AA1B9200FF21E019AD
S3150FE124C099E740F2045099E7E320BBDE39528FE1F9
S3150FE124D02DE9F0434422A3B00C46814600210DEBD2
S3150FE124E0020001F0E0F92F4A0123CDE90E23002185
S3150FE124F03422502601A8109601F0D5F901A800F073
S3150FE1250045F9049BA34249D3012B0AD8D9F80030E8
S3150FE125100133022B40F2045038BF002023B0BDE84F
S3150FE12520F08300F0FEFE059B102C28BF1024DF6818
S3150FE125304FEA8408074442464946054611A801F089
S3150FE12540BAF9C4F110040EAB08F10C001844A2005D
S3150FE12550FF2101F0A8F94C214FF0FF320EA8FFF74A
S3150FE12560A3F9059BC0432190D968384600F090FF47
S3150FE125700028D3D132460EA9384600F067FF00286E
S3150FE12580CCD1059B2846D96800F082FF0028C5D13A
S3150FE1259032460EA9284600F059FFBFE740F2045034
S3150FE125A0BCE700BF39528FE110B5E0B04FF4BE7210
S3150FE125B001A9002000F003FF40F20124002101A848
S3150FE125C000F0D4FEA042F9D040F20323984203D0A3
S3150FE125D040F2054060B010BD9DF8043003F00302F0
S3150FE125E0022AF5D09A0711D50D4A0299D2F8282871
S3150FE125F0926891420AD95C9800F0EAF80028E7D090
S3150FE126000A994FF40040FEF7CBFAE1E7DB07DFD596
S3150FE1261004995C9800F000F90028D9D00020D9E799
S3150FE126200000E10F31B10A4B5A68824205D8002307
S3150FE12630C1E9003340F201407047013053F83020D1
S3150FE126400A6003EBC00300205B684B60704700BF75
S3150FE12650B43BE10F70B40C4611461A460D4B5D685B
S3150FE12660854210D9013003EBC005A6186D68AE425D
S3150FE126700DD8A5420BD3954209D353F83000204428
S3150FE1268070BC00F0CDBE40F2014070BC704740F225
S3150FE126900240FAE7B43BE10F70B586B00DF10703DF
S3150FE126A00D46029300211E4B11600446164628463D
S3150FE126B01C22CDE903338DF80710059301F0F3F8EA
S3150FE126C09DF8072052B994F86E30102B06D0D4F846
S3150FE126D078311BB9D4E95C31994219D3237899073B
S3150FE126E044BF61683160DB0709D504F1080304F1E2
S3150FE126F0240153F8040B45F8040B8B42F9D162B967
S3150FE127002378002B40F2064018BF002006B070BDBB
S3150FE1271002A9204600F00DFED2E70020F6E700BF42
S3150FE127202D33E10F70B40C4611461A460D4B5D6819
S3150FE12730854210D9013003EBC005A6186D68AE428C
S3150FE127400DD8A5420BD3954209D353F83000204457
S3150FE1275070BC00F07BBE40F2014070BC704740F2A6
S3150FE127600240FAE7B43BE10F074B5A68824207D9B9
S3150FE12770013003EBC00253F83000516800F088BE18
S3150FE1278040F20140704700BFB43BE10F70B505461B
S3150FE1279088B0C0B14FF440320023C0E900230B4BA0
S3150FE127A01A785B680272C3606C46684600F050F8AF
S3150FE127B00FCC05F114060FC694E80F0086E80F005B
S3150FE127C005F114032B6108B070BD00BFB43BE10FF7
S3150FE127D00F4B00B5D3F828389B688B42E5B003D38E
S3150FE127E0002065B05DF804FB4FF4BE7205A900F059
S3150FE127F0E6FD0028F4D10223CDE901008DF815306D
S3150FE128000390044B049301A905A800F0ECFDE8E75A
S3150FE128100000E10F190AE10F00B5E5B04FF4BE7202
S3150FE1282005A900F0CCFD70B901238DF81530074BE2
S3150FE128300190CDE90230049001A905A800F0D3FD7E
S3150FE1284065B05DF804FB0020FAE700BFF109E10F7F
S3150FE1285070B5054D064604460FCD0FC495E80F003A
S3150FE1286084E80F00304670BD943BE10F024BD86907
S3150FE1287000F00100704700BF00000E40044BD3F893
S3150FE128804421D20703D4D3F840211042FBD170473C
S3150FE1289000400E4038B5C0F30323013B092B11D895
S3150FE128A0DFE803F0052710102B221D101511154D2A
S3150FE128B0C0F3043405F1424505F5801504EBC50077
S3150FE128C08000016038BD104DC0F30434F2E70F4DBF
S3150FE128D0C0F304344FF48030FFF7D0FFEAE7C0F3DB
S3150FE128E004340B4D1020F7E7C0F30434094D0120F2
S3150FE128F0F2E7094DC0F30434DCE7084DC0F30434C5
S3150FE12900D8E700BF00400E4050410E40F0400E4068
S3150FE12910E8400E40E0400E40C0400E40B0400E4051
S3150FE12920094A0A4BD969C90705D512B96FF00200F1
S3150FE129307047013AF6E7002AF8D001221861DA600A
S3150FE12940D86940F3800070478096980000000E40EA
S3150FE1295070B509B9002070BD0E4A0023082550F85D
S3150FE12960234094610C4CD5600133D669F60705D542
S3150FE1297014B96FF00200EEE7013CF6E7002CF8D050
S3150FE12980D469A40702D49942E9D1E3E76FF00100D4
S3150FE12990E1E700BF00000E40809698002DE9F8436D
S3150FE129A01C4B0D4641F671311E6C19641A4980466E
S3150FE129B048684968996841F00101B6B2996097088C
S3150FE129C04FF00009B94501D3002005E008EB890472
S3150FE129D02046FFF7A5FF48B10E4B9A6822F0010298
S3150FE129E09A600EB100221A64BDE8F883C4F30A01B6
S3150FE129F0C1F500618908A7EB0903994228BF19467A
S3150FE12A002846FFF7A5FF0028E6D1894405EB8105A6
S3150FE12A10D8E700BF00000E4000300E40234B41F6D1
S3150FE12A2071311A6C10B5196421494C684968996876
S3150FE12A3041F00101996001211861D960D9694C070B
S3150FE12A4092B209D5996821F0010199600AB1002284
S3150FE12A501A644FF0FF3010BD0221D9601549D869CC
S3150FE12A60C00700D569B9D86910F002000BD0996893
S3150FE12A7021F0010199600AB100221A646FF0010099
S3150FE12A80E9E70139EBE741B9986820F00100986071
S3150FE12A9002B119646FF00200DDE7996821F00101D7
S3150FE12AA099600AB90020D6E71864FBE700000E40EB
S3150FE12AB000300E40809698002DE9F04F02F1604408
S3150FE12AC0B4F5803F03D94FF0FF30BDE8F08FDFF863
S3150FE12AD0C8C0DFF8C890DFF8C880302606FB00C60D
S3150FE12AE04FF44014C6F880400024C6F88440C6F877
S3150FE12AF08840C6F89840264C41F67135D4F840A087
S3150FE12B002564A5684FF0010E45F00105A5600EFAA3
S3150FE12B1000F053B90422E260A26822F00102A2603A
S3150FE12B201FFA8AF28ABB0020CFE701F50065216122
S3150FE12B3005EA0905C4F80CE06D1AD4F81CB09D42FC
S3150FE12B4028BF1D461BF0040F4FEA9507BBD1013F86
S3150FE12B503F0147F06057C6F88C700E4FC6F89020CC
S3150FE12B60C6F89470DCF820700743CCF82070102774
S3150FE12B70E760DCF828703842FBD0C8F82800294412
S3150FE12B80C8F820002A445B1BC3E72364CBE700BFE9
S3150FE12B9000000E4018000E4000200E4000F8FFFF27
S3150FE12BA000200E440D4AD2F8E430D2F8E0109B0033
S3150FE12BB003F03C03C1F381110B438370D2F8E0308C
S3150FE12BC003F03F034370D2F8E830D2F8EC2003F07C
S3150FE12BD0F003C2F3031213430370704700FF0FE0D4
S3150FE12BE0024B03480122C3F8002670470010C84381
S3150FE12BF000000F40094B98420ED003F580639842CF
S3150FE12C0009D10122064B03EBC2035A68054B134464
S3150FE12C109B0000221A6070470022F3E700000F4085
S3150FE12C20C43BE10F8005F210FEE708B5FDF7D2FED2
S3150FE12C30FEF736F8FDF7A8FEFDF7BAFEFDF7C0FF82
S3150FE12C40C0F30A032DE9F04105460F4616460BB9C7
S3150FE12C5000F0D1F805F5006424F4FF6424F00704CD
S3150FE12C6005EB0608A04507D8324639462846022322
S3150FE12C70BDE8F04100F0C6B8204600F0BCF804F517
S3150FE12C800064EFE7036913F0FE0F0CBF012000208C
S3150FE12C9070474FF40040704700F0C0BB00F01DBC19
S3150FE12CA003461846016881F3088881F3098840686D
S3150FE12CB08746FEE74FF40170FEF78AB8B1F5BE7F9E
S3150FE12CC010B504460FD34FF4BE72002100F0EBFDB1
S3150FE12CD004F5827204F1BC0104F128000023BDE87A
S3150FE12CE0104000F042BA40F2052010BD13B504467C
S3150FE12CF0009101462830FEF775FAC4F8780118B14C
S3150FE12D0041F20703984204D1A37823B1E07800F2A8
S3150FE12D10022002B010BD40F20120FAE72DE9F0439F
S3150FE12D2087B00DF108090446DDF838800E461746DF
S3150FE12D300021102248461D4600F0B5FD0021C8F8D6
S3150FE12D4000101C22284600F0AEFD32463B46CDF878
S3150FE12D500090214604F12800FEF744FA23789A07FA
S3150FE12D6044BF6268C8F80020DB0709D504F1080300
S3150FE12D7004F1240253F8041B45F8041B9342F9D1DD
S3150FE12D802378002B40F2064018BF002007B0BDE8BC
S3150FE12D90F0834FF4BE70704713B504460B461046E9
S3150FE12DA0A20753BF6FEA03434FF6FF7242EA0343AB
S3150FE12DB06FEA13430193042324F003010DEB03029E
S3150FE12DC0FFF77AFE02B010BD07B503469B0753BF67
S3150FE12DD06FEA01414FF6FF7343EA01416FEA114191
S3150FE12DE00422019120F003000DEB020100F06FFCCC
S3150FE12DF003B05DF804FB08B5FFF710FEB0FA80F0FB
S3150FE12E00400908BD072B2DE9F04105460E4614464C
S3150FE12E101F4602D90020BDE8F08101214FF4AA40F7
S3150FE12E20FFF738FD0CB90120F5E744EA0503DA07A8
S3150FE12E30F0D4AB0726D531883A462846FFF7ACFFE3
S3150FE12E400028E7D1023C032C05F1020506F1020643
S3150FE12E500DD924F003084346324629463846FFF793
S3150FE12E602BFE0028D6D146444544A4EB0804002C9A
S3150FE12E70D9D031883A462846FFF78EFFB0FA80F06F
S3150FE12E804009C8E7032CE4D8F3E7F8B505460E4643
S3150FE12E9014460AB90120F8BD42EA0003DA0701D563
S3150FE12EA00020F8E7830721D50988FFF78DFF002872
S3150FE12EB0F6D1023C032C05F1020506F102060BD908
S3150FE12EC024F003073A463146284600F000FC002875
S3150FE12ED0E6D13E443D44E41B002CDBD03188284645
S3150FE12EE0FFF772FFB0FA80F04009D4E7032CE7D879
S3150FE12EF0F4E738B50D46044630B11022002100F053
S3150FE12F00D2FCE560002038BD41F20130FBE72DE947
S3150FE12F10F043044689B00E4690469946002545454D
S3150FE12F2001D300200AE0A37A1E2B4BD009D80A2B36
S3150FE12F302BD0142B32D0B3B141F2023009B0BDE838
S3150FE12F40F083232B42D0282BF6D1725D63681344AD
S3150FE12F506360735DFF2B13D03223A372A37A322BF7
S3150FE12F600ED1002050E0725D12092260715D23815E
S3150FE12F7001F00F0104310F2A616003D10A23A37215
S3150FE12F800135CCE742B91E23F9E7725D2368134495
S3150FE12F902360735DFF2BF3D01423F0E72368A8EBCF
S3150FE12FA005079F4228BF1F4670193946C847236850
S3150FE12FB0013DDB1B23603D4493B91E23A372002819
S3150FE12FC0DED0BBE7735D23812323D8E7725D2389C7
S3150FE12FD043EA022323816368132BBDD12823CEE76E
S3150FE12FE00028BBD0AAE72089E368202F28BF202736
S3150FE12FF0874228BF07463A466946984739466846A3
S3150FE13000C8476368DB1B6360676827B10028EAD0AE
S3150FE130100023A37292E7A772D1E7436D002B14BF8A
S3150FE1302001200420704770B5D1E90152AA4205D2B9
S3150FE1303090F840302B449B1A402B10D9002012E018
S3150FE130400A6890F84040D65C90F84120224402F09D
S3150FE130503F020133013486548B6080F840408B6820
S3150FE130609D42EDD8012070BD2DE9F84317469E46E6
S3150FE13070D1E9012390F840C0089D9DF824909DF871
S3150FE130802880D21A6244954204460E460AD9FFF7C2
S3150FE13090CAFF002867D1112384F8463041F20200B6
S3150FE130A0BDE8F883754555D8002394F840200AB159
S3150FE130B09D4235D1D6E90121914201D29D4241D8B6
S3150FE130C09D424DD1D4F8882029463846FEF7ECFBD0
S3150FE130D0C4F88800B9F1000F04D0E06C2A463946EE
S3150FE130E000F0AAF894F84330B8F1000F06D08BB18F
S3150FE130F0A06C2B463A46394600F083F894F84330F4
S3150FE1310043B1E36DA26D2B449342E36524BF0023E4
S3150FE1311084F84330636D2B44636541F20300BFE7E7
S3150FE1312094F84120A25CFA5494F84120013202F05E
S3150FE131303F0284F8412094F84020013A84F8402078
S3150FE131400133B2E73268525CFA54B2680132B260C7
S3150FE131500133AFE741F20100112384F846309FE7CF
S3150FE1316041F20200F8E700209AE72DE9F04103F07A
S3150FE131702003002504464FF0FF38C0E918550F46E6
S3150FE131801646A0F8405080F84350A0F8445080F816
S3150FE13190465080F84230C0F888801822FF21683007
S3150FE131A000F081FBC4E91276C4F88080C4F884800C
S3150FE131B084F8905016B1304600F034F80020BDE89F
S3150FE131C0F081F8B5044616461D460F4600F081FA22
S3150FE131D0DDE90612204600F080FA0023636284F8E7
S3150FE131E038703368C4F839307368C4F83D30B36862
S3150FE131F0C4F841302B0C6DBA84F84530A4F846502B
S3150FE13200F8BD30B585B00D46194600F12803CDE975
S3150FE132100152009300F1240200F1380300F07BFA2A
S3150FE1322005B030BD10B5044600F02BF8204600215D
S3150FE13230BDE8104000F029B800F02CB8014600F0C7
S3150FE1324036B8036853B91C2350F8042F0AB9043B67
S3150FE13250FAD1002BCCBF0020012070470020704728
S3150FE1326038B5202204460D46002100F01CFB05F17E
S3150FE132702003601E13F8012D00F8012FAB42F9D19F
S3150FE1328038BD6822002100F00EBB03460020C3E9DA
S3150FE132900000704707B500F128030190009300F194
S3150FE132A008030020FEF74AFF03B05DF804FB024670
S3150FE132B00B4600F128010830FEF79EBF30B59FB0EF
S3150FE132C034220021054601A800F0EDFA01A8FFF727
S3150FE132D05DFA049C012C1ED921460EA8FFF76AF868
S3150FE132E018B140F2055398420ED10EAA002352F8B7
S3150FE132F0041B481C0AD11EAA02EB830321460EA822
S3150FE1330043F8405CFFF7E4F81FB030BDA94205D0A2
S3150FE1331001339C42EBD140F20250F5E740F2035004
S3150FE13320F2E74FF480207047FFF73EB901221A709A
S3150FE13330704730B5A3B004460D4602AAD0F8741112
S3150FE13340D0F86C018023FFF785F90095802302AA57
S3150FE13350214604F12800FDF745FFD4F87431C4F88E
S3150FE1336078018033C4F8743123B030BD1FB5002323
S3150FE13370CDE90033CDE90213D0F87831044693B99C
S3150FE13380D0E95C329A420ED26946FFF7D2FFD4F802
S3150FE13390780170B141F2070240F20123904208BF72
S3150FE133A0184604B010BDA37833B1E07800F20220DD
S3150FE133B0F7E740F20120F4E740F20220F1E737B5F3
S3150FE133C00C46054611462046FFF778FC48B9694693
S3150FE133D02846FFF727F920B9019BC4F86C51C4F8C9
S3150FE133E0703103B030BD38B500F5827204460D4633
S3150FE133F0202300F1BC012830FFF7B7FED4F878316E
S3150FE134001BB9D4E95C329A4203D3A07800B1E078D4
S3150FE1341038BD29462046FFF78CFFEFE700207047BE
S3150FE13420B2F5002F10B51346044608460BD8B4F58E
S3150FE13430002F08D82344B3F5002F04D8214600F016
S3150FE134403AFA002010BD40F20240FBE7B2F5002F39
S3150FE1345010B506D8B0F5002F03D88318B3F5002FB2
S3150FE134600ED940F2024010BDC45801340AD10433DB
S3150FE134709A42F9D8FFF709FD0028F2D00020F2E7CA
S3150FE134800023F5E740F20340EDE74FF0FF307047D9
S3150FE1349038B541EA0003C3F30A030446D3B9B1F5DC
S3150FE134A0002F06D8B0F5002F03D80D18B5F5002F6C
S3150FE134B002D940F2024038BD204604F50064FFF719
S3150FE134C09AFCAC4202D00028F6D1F2E70028F0D000
S3150FE134D00020F0E740F20440EDE700207047EFF3FC
S3150FE134E0108072B6704700B962B6704784B00B6848
S3150FE134F000934B6801938B680293CB680393009B10
S3150FE135000360019B0360029B0360039B036000233F
S3150FE13510009301930293039304B0704730B5D1E959
S3150FE135200223D1E90054056004600260036030BDF7
S3150FE1353030B50568046802680368C1E90054C1E95A
S3150FE13540022330BD7FB58A0704460B4610D06D4680
S3150FE1355001F11006186859682A4603C20833B342C7
S3150FE135601546F7D169462046FFF7D8FF04B070BD7F
S3150FE135700091009904B0BDE87040FFF7CFBF30B5B9
S3150FE135808B0785B00C4610D06946FFF7D1FF0D4684
S3150FE13590234604AC2A4603CAA2421860596015466F
S3150FE135A003F10803F6D105B030BD0091009905B0DE
S3150FE135B0BDE83040FFF7BCBF10B5FFF7AFFFBDE881
S3150FE135C010401031FFF7AABF10B5FFF7B1FFBDE805
S3150FE135D010401031FFF7ACBF10B5FFF79FFF0C4658
S3150FE135E01031FFF79BFF04F12001FFF797FF04F17D
S3150FE135F03001BDE81040FFF791BF00F1424303F5FB
S3150FE136008013102A10B54FEA43130AD101221A602B
S3150FE1361000F58870FFF76AFF1031BDE81040FFF73C
S3150FE1362065BF00221A602430F7E7F0B50B4699071C
S3150FE1363089B0044615462DD0082A19D16D4603F1F6
S3150FE136401006186859682A4603C20833B34215466D
S3150FE13650F7D1082269462046FFF7CFFF03226B46D3
S3150FE136600020013A186003F10403FAD209B0F0BD64
S3150FE136706E4603F1200718685968324603C20833CC
S3150FE13680BB421646F7D12A4669462046FFF7B5FFF4
S3150FE136900722E4E70093009909B0BDE8F040FFF790
S3150FE136A0ACBF436823F01F030E290BD8DFE801F007
S3150FE136B008080808080B0B0B080808080B0B0B008A
S3150FE136C0194341607047194341F01001F9E7FFF7DC
S3150FE136D065B92422002100F0E6B870B515460E460D
S3150FE136E024220021044600F0DEF8C02D0DD0B5F5F9
S3150FE136F0807F01D0802D0BD12046EA0840F8045B8C
S3150FE13700314600F0D8F8002070BD6FF07100FBE78D
S3150FE137106FF01F00F8E72DE9F04F87B08B46029067
S3150FE13720039390467AB11568029B1B68802B0CD1E7
S3150FE1373000265E450FD3B8F1000F40F0A1800020BF
S3150FE1374007B0BDE8F08F1546EEE7B3F5807FEFD012
S3150FE137506FF02000F4E75DB1119B109A9B5D525D0E
S3150FE137605340129A0135935505F00F050136E0E7FF
S3150FE13770FFF736FA4FF44043456003600446FFF71F
S3150FE13780AEFE029951F8043B802B074614BF102277
S3150FE1379008222046FFF749FF04F1840318460399EF
S3150FE137A00193FFF7CFFE3846FFF79DFE119BABEB7B
S3150FE137B0060703EB0609129B27F00F0703EB060A31
S3150FE137C009EB07030593059989454FF005034FF07B
S3150FE137D0030219D1119B3744DE19129B1F44119B2A
S3150FE137E003EB0B0A032356452AD1FFF778FE03991C
S3150FE137F006460198FFF7C3FE3046FFF774FE2046F3
S3150FE13800FFF7F8F95E4694E74821A160A3602169C5
S3150FE138108907FCD4A260FFF762FE4946049004F1E2
S3150FE13820A000FFF78FFE514604F18000FFF7A7FED8
S3150FE138300498FFF758FE09F110090AF1100AC2E7D9
S3150FE138409DB94822A2600522A26022699207FCD4A3
S3150FE13850A360FFF744FE1099814604F18000FFF75C
S3150FE138608EFE4846FFF73FFE0323109916F8012B0C
S3150FE13870495D01354A4007F8012B05F00F05B2E71F
S3150FE13880C8F800505BE710B501390244904201D107
S3150FE13890002005E0037811F8014FA34201D0181B70
S3150FE138A010BD0130F2E702440346934200D170475F
S3150FE138B003F8011BF9E70A44914200F1FF3300D106
S3150FE138C0704710B511F8014B03F8014F9142F9D149
S3150FE138D010BD000000000000000000000000000025
S3150FE138E0F8B500BFF8BC08BC9E467047F8B500BFF7
S3150FE138F0F8BC08BC9E4670470000000000000000BF
S3150FE1390000000000000000000000000000000000C1
S3150FE1391000000000000000000000000000000000B1
S3150FE13920B814B6F1E0CFF3ADB7DD25C9FA79B71320
S3150FE139300000000013B779FAC925DDB7ADF3CFE083
S3150FE13940F1B614B80102000002000000E83BE10FF6
S3150FE139504000000002000402000000000000000029
S3150FE139600000000000000000000000000000000061
S3150FE139700000000000000000000000000000000051
S3150FE139800000000007B0CD5E020000000200040255
S3150FE13990EC3300000000000000000800F000010019
S3150FE139A0992CE10F9D2CE10FC10AE10FBD2CE10F1F
S3150FE139B0ED2CE10F503BE10F1D2DE10F932DE10FA3
S3150FE139C00000000000000000932CE10FFD0505FD4E
S3150FE139D0D50FE10F0110E10F3910E10F1B30E10FA8
S3150FE139E0EB17A6030201000003000000FA0606FA30
S3150FE139F00D04000003000000F40A0AF405050000B7
S3150FE13A0001000000F50909F50307000001000000B8
S3150FE13A10F60808F60608000000000000FE0101FEA8
S3150FE13A200808000000000000FD0303FD0A0800007E
S3150FE13A3000000000FD0505FD100800000000000074
S3150FE13A40F90707F90E09000002000000F70A0AF765
S3150FE13A500F0B000003000000FC0404FC0B0C00003C
S3150FE13A60030000002000000000010000050C00002B
S3150FE13A70FFFFFFFFFFFFFFFFFFFFFFFF000000005C
S3150FE13A80000000000000000001000000FFFFFFFF43
S3150FE13A90512563FCC2CAB9F3849E17A7ADFAE6BCFA
S3150FE13AA0FFFFFFFFFFFFFFFF00000000FFFFFFFF2C
S3150FE13AB096C298D84539A1F4A033EB2D817D0377D2
S3150FE13AC0F240A463E5E6BCF847422CE1F2D1176B6D
S3150FE13AD0F551BF376840B6CBCE5E316B5733CE2B40
S3150FE13AE0169E0F7C4AEBE78E9B7F1AFEE242E34F6F
S3150FE13AF08000000000000000000000000000000050
S3150FE13B0000000000000000000000000000000000BF
S3150FE13B1000000000000000000000000000000000AF
S3150FE13B20000000000000000000000000000000009F
S3150FE13B306A09E667BB67AE853C6EF372A54FF53A48
S3150FE13B40510E527F9B05688C1F83D9AB5BE0CD1974
S3150FE13B50000100008D27E10F2526E10F5526E10F24
S3150FE13B602527E10F6927E10FD124E10FB523E10FF6
S3150FE13B70BD32E10FBF33E10F6D33E10F9926E10F4F
S3150FE13B806D28E10F2134E10F4D34E10F9134E10F4F
S3150FE13B908B34E10F1002030028000000280000001B
S3150FE13BA0000800000000080000000000020000000D
S3150FE13BB000000040010000000100000000000400C9
S3150FE13BC00070030000000F400000000000040F40EA
S3150FE13BD001000000E03BE10F0810002002000000A9
S3110FE13BE06509E10F3D09E10F4F87B5D0F4
S50303A158
S70500000000FA
