S02500005A69676265652D52656D6F74652D5F54595A4230315F37716638317774792E73333770
S21400000000100020F92300008162000085620000D5
S214000010F1A302008962000091620000F1A30200D1
S214000020F1A30200F1A30200F1A30200F1A3020073
S2140000309562000088800300F1A30200F1A302008D
S214000040F1A30200A5F50200F1A30200F1A302004D
S21400005019840100B5F50200B1F50200258C0100F7
S214000060A9F50200F9280000F5290000F1A3020016
S214000070F1A30200F1A30200F1A30200F1A3020023
S214000080F1A30200F1A30200112A0000F1A302006E
S214000090F1A30200F1A30200F1A30200F1A3020003
S2140000A0F1A30200F1A30200F1A30200F1A30200F3
S2140000B0598C0100ADF5020069AD0100B574000071
S2140000C0958C0100F1A3020035AC0100F1A30200FB
S2140000D0F1A30200F1A30200F1A30200F1A30200C3
S2140000E0F1A30200F1A30200F1A30200F1A30200B3
S2140000F0F1A30200F1A30200F1A302000000000039
S2140001002DE9F04F9BB098464FF0410A0DF11F03C2
S21400011009AE0393CDF808A001960389009383796E
S2140001209DF898B004460F469146418882884078EC
S2140001300FF02EFF054650B10090A38862883C4918
S214000140002010F03DFA28461BB0BDE8F08F9DF861
S2140001501F002CF09AFC38B12846A38862883549DF
S21400016010F02EFA8D25EEE79DF81F005246314618
S2140001702CF05AFC0346002852D0249A1AB1BDF837
S214000180942090424CD89DF81FA0AAF1410000226E
S21400019001280892D9B224D801395FFA81FE26498F
S2140001A0B446724516DB08910421BBF1000F1BD143
S2140001B008AE22480593182202FB07049FED1A7B1F
S2140001C020460A460830314684ED027B32F095F828
S2140001D0059B12E01CF8010F4840194901324143C3
S2140001E0DFE7BBF1000F06D00097234652463046A5
S2140001F00DF058FFA7E70829DBD9B9F1000F01D0A9
S21400020089F800A0B8F1000F01D0A8F80030249AB1
S214000210002A98D024981A4609A932F06EF892E778
S214000220012590E7AFF3008000000000000000000A
S2140002300ECE03003FCE0300C59D1C81E81E0020A5
S21400024093010001000000002DE9F04F93B0CDE9C6
S2140002500A329DED1C7BDDE91E530E9353EC172BE3
S214000260CDE90801104619468DED067B209E29F043
S21400027089FA80B1DDE90601C94B4FF0FF3229F05B
S214000280A9FA40B9DDE906014FF0FF326FF480139A
S21400029029F082FA80B10E9B2096CDE91E539DED83
S2140002A0067BDDE90A32DDE908018DED1C7B13B023
S2140002B0BDE8F04F00F08CB9DDE90601002200230E
S2140002C029F06AFA002800F03681DDE906A303F17A
S2140002D0004BCBF30A5016F48063A0F2FF3008BF41
S2140002E006250F9328F07CFF9DA3D3E9002328F072
S2140002F0E1FF9DA3D3E9002328F026FECBF31304E9
S214000300894644F07F518046A64B0022504641F471
S214000310401128F017FE96A3D3E9002328F0CAFF61
S21400032002460B464046494628F00EFE29F05CFA87
S214000330044628F055FF90A3D3E90023804689465B
S21400034028F0B8FF984B002228F0FEFD29F04CFA62
S2140003508BA3D3E9002307464946404628F0AAFF68
S21400036080463846894628F03BFF87A3D3E900231A
S21400037028F0A0FF02460B464046494628F0E2FD1C
S21400038002460B46CDE90C2328F094FFDDE90C234A
S214000390804689461046194628F0D6FD834BCDE99F
S2140003A0100100224046494629F0AEF8804B002254
S2140003B028F0CAFD02460B464046494629F0A4F8F6
S2140003C07C4B002228F0C0FD02460B4640464946BC
S2140003D029F09AF8DDE90C238046894600204FF084
S2140003E0804128F0AFFD02460B464046494628F0BD
S2140003F0ABFD02460B46DDE9100129F085F807F251
S214000400FF376D4B002228F09FFD00223B0528F0A9
S21400041051FF52465B468046894629F0DBF90028A4
S21400042040F08C80CDE90C8904F16303C72B34BF00
S2140004300427052731051ED555A3D3E900235046CA
S214000440594629F0BDF9002800F0828052A3D3E96E
S21400045000235046594629F09FF9002878D0A54237
S214000460C8BF2C1B4FF00007CCBF04F1FF3500259A
S21400047046F480663C460E9B9F4234BFA3EB0708BB
S2140004804FF0000816F0020903D0002F18BF4FF0F7
S21400049000083CB150465946DDE90C2329F034F8F3
S2140004A082468B46DDE906010022002329F074F916
S2140004B010B10BF100439B4626F40063CDE903839D
S2140004C0CDE900ABDDE90A32DDE90801029500F06E
S2140004D07FF802465FB316F0200F00F10105DDE954
S2140004E009130CBF65204520089EB04705230593D9
S2140004F000220A23002CCDE9023207F1FF374FEA2B
S214000500D473B8BF644201932A46DDE908010A9B0A
S214000510049700942EF051F80246B9F1000F06D069
S2140005200B9BC41A0B9B1A190E9BA34246D8104667
S21400053013B0BDE8F08FDDE906ABCAE61C4B00221F
S2140005404046494628F0E0FF013CCDE90C016BE748
S214000550002D90D00F9B002B8DD0013D8BE700BF68
S214000560FB799F501344D33FB3C8608B288AC63F9D
S21400057061436F63A787D23F71A379094F930A40FF
S2140005801655B5BBB16B0240EF39FAFE422EE63F78
S2140005902D431CEBE2361A3F0000000080842E41FB
S2140005A0FFFFEF7F0000F83F0000E03F00002C4018
S2140005B000002440000018400000F03FDDE9091369
S2140005C0089D2020A8470134ACE700BF00000000CB
S2140005D02DE9F04F97B0DDE920ABCDE90501CDE977
S2140005E00723504652465B465946DDE92257249E6D
S2140005F029F0C8F870B90323CDE922762193B44BCD
S2140006002093DDE90501DDE9072317B0BDE8F04FCB
S2140006102DF0F3BE4FF0FF326FF48013504659466C
S21400062029F0BAF828B104232193CDE92276A94B04
S214000630E6E7A94B4FF0FF325046594629F0CAF874
S21400064068B1A64A06F00403002B08BF0322A44B99
S2140006501CBF13460422CDE922762192D0E798A348
S214000660D3E900235046594629F0B4F838B996A382
S214000670D3E900235046594629F08EF868B1DDE9E3
S2140006800723DDE90501CDE92376CDE920AB2295E8
S21400069017B0BDE8F04FFFF7D7BD00220023504645
S2140006A0594629F079F8002800F09A805B465246B1
S2140006B00020002128F046FC012382468B46099341
S2140006C016F4806400F08E80092D40F28E800EAB0A
S2140006D0A5F10902002430210134202C03F8011B67
S2140006E0A5EB040901D09442F6D15946504629F0AC
S2140006F07BF87C4B03EBC90393ED007B05468DED41
S2140007000A7B28F06DFD02460B465046594628F0F7
S21400071019FCDDE90A2328F0CDFD02460B46CDE99B
S2140007200C2329F089F8804628F04AFD02460B463D
S214000730DDE90C0128F006FC02460B46CDE90C2349
S214000740694B002229F046F8002851D008F101082C
S214000750404628F035FD02460B46DDE90A0129F041
S21400076025F810B101354FF00008B9F1000F50D14F
S214000770284628F035FD02460B465046594628F0D6
S214000780E1FB594B00228046894629F005F830B136
S214000790554B00224046494629F01CF810B1E807A0
S2140007A000D501350EAB1A190A21202C0AD095FB6C
S2140007B0F1F001FB1055303502F8015B01340546B7
S2140007C00028F2D106F00302012A5FD1002F5DD087
S2140007D0099A12B916F00C0F00D0013F302244E0FF
S2140007E009906DE74FF006097FE7A94600247CE7ED
S2140007F0DDE90C013C4B002228F0CEFF0028B4D1E6
S214000800B8F1000F02D018F0010FAED008F10108C1
S214000810ABE70EAB23440A21202C0DD0B8FBF1F039
S21400082001FB10823032B8F1090F03F8012B09F1F1
S214000830FF3904F1010411D8A1440EAA3021202C5E
S214000840B0D0A14504F101030AD11C4609F15803B2
S2140008500DEB03092E2309F8203CA3E78046DBE7CF
S214000860A1541C46EBE71A550134A7420ED9202C9A
S214000870F9D1CDE90034CDE90276DDE90723DDE9DB
S21400088005012DF0BAFD17B0BDE8F08F202CF0D092
S214000890099A3AB104F158026A442D2102F8201C44
S2140008A00134E6E7710704D504F158026A442B21A7
S2140008B0F4E73207DDD504F158026A442021EDE75B
S2140008C00000000065CDCD410000000065CDCDC123
S2140008D08BEF03008FEF0300FFFFEF7F82EF030035
S2140008E087EF030098EF03000000E03F00000000E1
S2140008F070B58EB02C22002103A831F0D8FC6423FA
S2140009004FF00232CDE9052308930B238DF83430DF
S214000910514B1B880121D8078DF8101000F19680E6
S21400092008461AF033FA4D4B4D494E484E4C0A22B3
S2140009301A704FF42873ADF8123019F041FE20609B
S21400094020B94A4840F2522105F098FB206805215C
S2140009502EF012FC20B1454840F2622105F08EFBD5
S214000960206801F061FB424B206819682EF0ADFC50
S2140009701BF0EEF80C25684309901BF0E9F8684375
S21400098007900DEB0501206814F034FE20B13748BF
S21400099040F2772105F072FB3649206800222EF0DF
S2140009A01FFD20B1314840F2792105F067FB324E39
S2140009B0324D96F9000040F203532B807F284FF00B
S2140009C00503AB7001D11AF03FFB3378EB701BF0D8
S2140009D0BFF800EB80008000A8801BF0B9F8002369
S2140009E0C000E880AB604FF0FF3019A3D3E90023C6
S2140009F04FF0FF311AF086FB214920682FF09CF853
S214000A00206802A92EF0C6FC20B1184840F2B22198
S214000A1005F034FB042220680DEB02012EF043FCA7
S214000A20042804D0114840F2B52105F027FB01A99F
S214000A3001202FF0C4F905F067FC01201BF018FB1D
S214000A4029F03EFF1BF03EFB1AF024FA0EB070BDF4
S214000A500A0020FF42030000644D0020EE500020F4
S214000A60B5AD010088120020A04600203212040016
S214000A7008110020FC5000207C1500209446002021
S214000A8055AF01000348044B834202D0034B03B129
S214000A90184770476C1E00206C1E002000000000E7
S214000AA00548064B1B1AD90F01EBA301491002D0CB
S214000AB0034B03B1184770476C1E00206C1E0020C5
S214000AC00000000010B5064C237843B9FFF7DAFFA4
S214000AD0044B13B10448AFF300800123237010BD0C
S214000AE0D04D002000000000D015040008B5054BCE
S214000AF01BB105490548AFF30080BDE80840FFF785
S214000B00CFBF00BF0000000078210020D0150400F1
S214000B10A3F5803A704700BF174B002B08BF134B56
S214000B209D46FFF7F5FF00218B460F461348144AF3
S214000B30121A31F0BCFB0E4B002B00D098470D4B21
S214000B40002B00D098470020002104000D000D481F
S214000B50002802D00C48AFF3008029F0D3F920001B
S214000B60290029F043FA28F0FFFF00BF0000080024
S214000B700000000000000000001000206C1E002096
S214000B803C5100200000000000000000054A002341
S214000B901370054A1380054A1380054A1370054AE8
S214000BA013707047D24D00208A49002088490020E3
S214000BB0801E0020701E0020024B01221A70024B7D
S214000BC018707047D24D0020D14D0020094A0028E9
S214000BD0B2F900300CBF6FF01F0120210B446FF0FC
S214000BE0FD018B42B8BF0B46FE2BA8BFFE23138029
S214000BF0704700BF8A49002010B5044C01232370BB
S214000C00607004F053FFC4E9020110BD801E00208E
S214000C1070B5134C237813B30023237004F046FFFB
S214000C20D4E90232C01A61EB02053221A0FB0106AC
S214000C3000234FF47A7201FB056128F01DFE6378ED
S214000C4003B94042074AB2F9003018446FF0FD037A
S214000C509842B8BF1846FE28A8BFFE20108070BD78
S214000C60801E00208A4900200A4A0028B2F9003077
S214000C700CBF6FF01D011E210B446FF4AD718B424B
S214000C80B8BF0B4640F25B118B42A8BF0B461380E1
S214000C90704700BF8849002010B5044C012323701C
S214000CA0607004F003FFC4E9020110BD701E00204E
S214000CB070B5144C237823B30023237004F0F6FE9B
S214000CC0D4E90232C01A61EB02051421A0FB01062A
S214000CD000234FF47A7201FB056128F0CDFD63789E
S214000CE003B94042084AB2F9003018446FF4AD73B5
S214000CF09842B8BF184640F25B139842A8BF184601
S214000D00108070BD701E00208849002070B5134EFC
S214000D10134D3378134C2BB92B88228813431BB200
S214000D203BB970BD104B1B78A3B100F065FF00B94E
S214000D303070B5F9000018B101F076F800B92880D7
S214000D40B4F900000028ECD001F098F80028E8D1AB
S214000D502080E6E700F068FFE9E700BFD24D0020FC
S214000D608A49002088490020D14D002008B5064B4E
S214000D7000221A700AF09CF9BDE80840034847F2C2
S214000D803052FF212AF0BBBDD34D0020B0210020F9
S214000D9038B505460C4600F00FFA324B1B780BB9F7
S214000DA029F032F9012D0FD003D9AB1E012B16D92D
S214000DB038BD002CFCD121460122052000F000FDA4
S214000DC0BDE8384000F018BF002CF1D121460222C1
S214000DD0052000F0F5FCBDE8384000F025BF022DE8
S214000DE00DBF012500250220012014BF0423032384
S214000DF0052CDDD8DFE804F0030C29151F2F002290
S214000E00114600F0DDFC2846BDE8384000F024BF5F
S214000E100022012100F0D4FC2846BDE8384000F04E
S214000E203FBF00221846114600F0CAFC2846BDE81F
S214000E30384000F071BF18460022012100F0C0FCC7
S214000E402846BDE8384000F099BF00F091FCBDE8A8
S214000E50384000F047BF00F08BFCBDE8384000F09B
S214000E60BFBF00BFD44D002008B5012000F0DAFB5C
S214000E7038B1044B1B7823B9BDE80840012000F0C8
S214000E808DBE08BDD44D002010B5002000F0CAFB72
S214000E90B8B10C4B1A78A2B90124214606201C7062
S214000EA000F08EFC30F058FD2BF05FFD18B9BDE861
S214000EB01040FFF75BBF044B1C702FF09DFE002810
S214000EC0F5D110BDD44D0020D34D002068B929B10E
S214000ED00C4843F69822FF212AF011BD0A4B1B78D6
S214000EE073B90848FF212AF01BBD012808D121B19B
S214000EF0064842F21072FF21EEE70448FF21F2E7AF
S214000F00704700BFD0210020D44D00209021002043
S214000F10084A08B513785BB100231370064A0748E1
S214000F201370FF212AF0FCFCBDE8084000F020BC4E
S214000F3008BD00BFD44D0020D34D0020B0210020B6
S214000F4008B5054B1B782BB109F05AFFBDE80840E1
S214000F50FFF7DEBF08BD00BFD44D002013B500F07C
S214000F607FFB1448FF2400F051FB134800F054FBAD
S214000F7000F024FD29F060F82346104A104800943B
S214000F80002108F04BFE23460E4A0F48009400212D
S214000F9008F044FE0D4A0E4800942346002108F04F
S214000FA03DFE00F0B5F8FFF7F1FD02B0BDE81040D9
S214000FB000F0CABD910D0000CD0E0000890E0000A5
S214000FC0D0210020410F0000B0210020690E000053
S214000FD090210020902808B505D1FFF799FFBDE8BD
S214000FE00840FFF793BE912806D1044B1B781BB12F
S214000FF0BDE80840FFF7BABE08BD00BFD34D0020CD
S21400100070B586B029F0C2FA01210446084605F0FC
S214001010FDFB20463B4C29F0BDFA4FF4C0614FF66D
S2140010209B73CDE903132046002303A9059329F0FB
S21400103052FA0123A360344BE268D20355D5A46C60
S21400104029F0A4FA00210546012005F0DFFB28461A
S21400105029F0A0FA00231A460221052002F09AFF82
S214001060002C40DB40F6A6635C43210B40F61B4396
S214001070C4F30F349C4242D840F6FC039C423CD951
S2140010802248012330F82360B44200EB830531D3B5
S2140010905A1EAB7830F8224000EB8200A41B807802
S2140010A08DB2C01AAD1B620805FB0022B2FBF4F23B
S2140010B01344DBB2202464225B003231B1FBF2F130
S2140010C08DF80B1001218DF80C3022460DF10B0324
S2140010D0084600942BF00BFF0121009403AB21225D
S2140010E008462BF004FF06B070BD013BA4D14FF0BC
S2140010F0FF34A5E70133092BC4D10023DAE76423C4
S214001100D8E700BF00200040A0860100802303002F
S2140011101FB5FF231F4A00931F48002108F07EFDDD
S2140011201E4B00200021C3E900011D4B1D48002472
S21400113001211C7001F04EFE1B4AD2F8403423F009
S2140011400403C2F84034022123462246052002F05A
S21400115021FF224623460B21012002F01BFF01211E
S214001160124801F037FE4FF4F81320460293ADF80C
S2140011700C4001F08DFD21468DF80A000C4801F068
S21400118015FD02A98DF80B000A4801F031FD04B0E8
S21400119010BD00BF01100000F0210020901E0020AE
S2140011A0D54D002000350A0000A0004000B2040023
S2140011B040420F000020004070B51348FF212AF07F
S2140011C0B6FB00BB114D04F071FC2A78104B4AB1F7
S2140011D0D3E900420F4E041B61EB0202B44272F1E7
S2140011E0000210D30122C3E900012A700221042262
S2140011F00520002302F0CEFEBDE8704002480A2219
S214001200FF212AF07CBB70BDF0210020D54D0020C8
S214001210901E002080EE3600024B1B6803B1184774
S214001220704700BF14220020194B984210B51FD0FB
S21400123003F1640290421DD003F1C80290421BD015
S21400124003F5967398421FD10320124C642202FBCA
S214001250004494F86310032910D0042915D00129FE
S21400126012D1022384F86330BDE81040FFF7D4BFE4
S2140012700020EAE70120E8E70220E6E70021FFF782
S214001280CBFF002384F8633010BD0523EAE700BFD8
S2140012905822002038220020184B984270B518D0EB
S2140012A003F16402904216D003F1C802904214D0B3
S2140012B003F5967398421FD10320114D642606FB52
S2140012C00053044693F86310022908D1FFF7A4FFE1
S2140012D007E00020F1E70120EFE70220EDE705290F
S2140012E0F4D0744304F120002844FF2125442AF05A
S2140012F017FB062385F8633070BD00BF78220020F8
S2140013003822002070B50F4C642606FB00430546C5
S21400131093F86310022902D1FFF77EFF01E005294A
S214001320FAD006FB054006FB0544FF2120302AF0D4
S214001330F7FA94F86330062B1CBF072384F8633053
S21400134070BD00BF382200202DE9F84F7B4DA84223
S2140013500DD005F1640398426FD005F1C80398429A
S2140013606DD005F59673984265D1032400E00024FD
S214001370734904EB4403C818CE5C1C21302313FBCE
S214001380061303F10473417803F5204301EBC3030E
S2140013909B00D3F800C0642303FB0452BCFA8CF114
S2140013A092F8626049098E4245D014FB03F690F825
S2140013B0028082F8621006F14000284403FB04F71E
S2140013C0BCF1000F5AD12F4444F62062FF212AF0C8
S2140013D096FA97F86330A3B3032B41D00024594EF6
S2140013E0594F4FF06408A146307896F801A017F8D8
S2140013F0013B08FB00515FFA84FB91F8621000295C
S21400140000F0908008FB0A5191F86210002900F065
S21400141089806BB9012107F8011CFFF773FF50465E
S214001420FFF770FF494B1B6813B1012158469847D8
S2140014300236002C74D0BDE8F88F012498E7022409
S21400144096E7012387F86330B8F1000FC6D006F19F
S21400145020004FF4C872FF2128442AF050FABDE756
S21400146020362E44FF2130462AF05AFA042387F805
S21400147063304FF4C872FF213046EEE7FF212AF0B2
S2140014804FFAEB1993F86330013B062BA6D801A25E
S21400149052F823F0B1140000E9140000DD13000038
S2140014A0FF1400000F1500001315000013150000B0
S2140014B0B8F1000F09D141462046FFF7ADFE642380
S2140014C003FB045383F8638088E720362E44FF210D
S2140014D030462AF025FA642303FB0453032283F8DC
S2140014E063204FF49672C6E702212046FFF794FE6B
S2140014F0642303FB0453002283F863206EE706F19F
S2140015002000FF2128442AF00BFA0321EDE70521ED
S214001510EBE7642303FB0454002384F863305DE7A1
S214001520012461E7002B83D0084B07F8019C1B6859
S214001530002B3FF47DAF002178E700BF3822002063
S214001540A8230300A4230300D64D00201022002069
S2140015502DE9F041124C002527466426A84606FBD6
S214001560057393F861207AB183F8618093F8603050
S21400157094F86220B3FA83F35B099A420BD01422E4
S214001580FF2120462AF0BBF90135042D04F164043E
S214001590E5D1BDE8F081FF2120462AF0C1F9F3E746
S2140015A0382200200F2810B425D8144B195C0329C4
S2140015B021D801EB4103124AD45CD0181C223023F8
S2140015C013FB042303F1047342785DF8044B03F520
S2140015D0204302EBC3039B0064201A68094B00FB00
S2140015E00133D2B283F8602007480122FF2183F836
S2140015F061202AF08DB95DF8044B7047D84D002065
S214001600A82303003822002018220020014B18606F
S214001610704700BF14220020014B1860704700BFBF
S21400162010220020012810B5034613D80A490B4A99
S21400163011F81000642404FB002090F8620030B11A
S21400164001EB43014B7804FB032292F8620000F0A2
S214001650010010BD0020FCE7A42303003822002070
S214001660304B2DE9F74F00241C602F4B2F481C6091
S214001670012101F0AFFB1022FF212D482D4D2E4EEB
S214001680DFF8C8A0DFF8C89030F011FE2B492C48D0
S21400169008F048FBAB46642303FB04B300274FF077
S2140016A0FF0885F86270394683F86170284685F829
S2140016B063704346CDF80080524608F0AFFA4346C2
S2140016C0394605F12000CDF800804A4608F0A6FA13
S2140016D04346394605F140001A4ACDF8008008F026
S2140016E09DFA777896F80080032201233946404613
S2140016F002F050FC0E4B1449DC55384601F068F9F0
S2140017000123CDE900333A4639464046013402F01B
S214001710FDFB042C05F1640506F10306BBD103B0FE
S214001720BDE8F08F142200201022002000350A00A9
S214001730D84D002038220020A823030051150000B1
S2140017401822002099120000A51500004913000079
S21400175029120000054B00225A6258661A6B42F0A6
S21400176001021A6301225A60704700BF00800140E0
S21400177070B50F480F4EFF212AF0D2F80E4B02220A
S2140017805A601A6B002422F001021A635C620B4B4B
S2140017901C70337853B128F0F9FE21460546012027
S2140017A005F034F8284628F0F5FE347070BD00BF0A
S2140017B0CC230020E94D002000800140EB4D0020A6
S2140017C02DE9F8430E461546044618B9BDE8F84319
S2140017D0FFF7CEBF07283ED8DFF8F48098F8003031
S2140017E0062B33D1062836D1DFF8E89099F800307A
S2140017F063B928F0CBFE01210746084605F006F837
S214001800384628F0C7FE012389F800302948FF2112
S2140018102AF086F8284B88F80040062C1E7036D032
S214001820072C3ED0052C1ED0631E012B234A244BCA
S21400183013D93221118000221A80032C1ABF214BA3
S21400184018680020FFF786FF14221AE0072BCBD17A
S214001850831F012BC8D9BDE8F8831421118000220C
S2140018601A80012CEAE7012D174B38BF01256D00C1
S2140018701D80164B01221A70124B1868FFF76AFF7C
S2140018806422BDE8F8430B48FF212AF038B801224D
S2140018901A700E4B1A700B4B1868FFF75BFFC822C6
S2140018A0EFE701221A70054B64221A80044B0020D1
S2140018B01880C7E7CC230020EA4D0020904900207E
S2140018C08E490020C82300208C490020E84D0020C7
S2140018D0EB4D0020E94D00202F4B1A78531E062BA7
S2140018E059D8DFE803F004040404233945002B49E3
S2140018F02B480B88008801339BB283420B8006D3AB
S214001900284B1B780BB9FFF733BF00230B8002F080
S214001910FD02012A0B8800D0C31A234A12685343DB
S214001920224AB3FBF0F3D366142211E0204A138850
S214001930013B9BB21380002BE5D01E4A137883F040
S214001940010313700BB1184B1B68184AD366642248
S2140019501948FF2129F0D3BF164A137883F00103F4
S21400196013700BB1104B1B68104AD366C822EFE702
S2140019700A490B4A0B88128801339BB293420B80AC
S21400198024BF00230B800B88B3EB520F4FEA5200A4
S21400199028BFD31AC1E77047EB4D00208E490020C0
S2140019A090490020EA4D0020C82300200080014016
S2140019B08C490020E84D0020CC23002070B52B4B2E
S2140019C02B4A2C482C4E00241C702C4B8AB01C70C2
S2140019D0FF230093214608F021F92948012101F050
S2140019E0F9F9012304222046052102F0D3FA012149
S2140019F02448254C01F0EEF9224801F03FFBB0F5F3
S214001A007A4F34BF02204FF4FA434FF00F0228BF3C
S214001A10B0FBF3F00021306006A830F048FC042349
S214001A2006A9204600258DF81A3028F0ECFE032380
S214001A30CDE9035503AA8DF8123029460123204626
S214001A4005958DF8163028F012FF3368013BE361E8
S214001A506566636B23F01F0343F005036363236B24
S214001A6023F0010323630AB070BD00BFEB4D0020D6
S214001A70D9180000CC230020C8230020E94D002000
S214001A8000350A00000204000080014008B5064B3D
S214001A901B7843B120F0B2F9BDE808400348642241
S214001AA0FF2129F02CBF08BDEC4D0020EC230020C0
S214001AB00D4B1A7810B50446A2B100220B481A70D6
S214001AC0FF2129F02DFF0A48FF2129F029FF0948A8
S214001AD0FF2129F025FFFFF74BFE1CB1BDE81040A3
S214001AE00AF0CCBE10BD00BFEC4D00202C24002018
S214001AF00C240020EC2300201FB5114B1B78EBB103
S214001B00002301248DF80F3000940DF10F030622F8
S214001B10192120462BF02AFA9DF80F302BB92046C3
S214001B2004B0BDE81040FFF7C3BF064847F2305286
S214001B30FF2104B0BDE8104029F0E1BE04B010BD9E
S214001B40EC4D00200C24002013B5FF2423460C4A3D
S214001B500C480094002108F061F823460A4A0B4816
S214001B600094002108F05AF82346094A09480094D0
S214001B70002108F053F8084B00221A7002B010BD7E
S214001B80FD9F02002C240020F91A00000C240020DF
S214001B908D1A0000EC230020EC4D002008B52AF03A
S214001BA0E4FE02281CD103F081FF0AF0FBF90D4B7E
S214001BB00121002207201970FFF702FE0A4A0B488F
S214001BC0FF2129F09CFE0A4847F23052FF2129F0F7
S214001BD096FEBDE8084007486422FF2129F08FBE24
S214001BE008BD00BFEC4D0020C02709002C240020B3
S214001BF00C240020EC23002010B528F016FA70B153
S214001C000122084B062110460EF08EFB28F0FDF947
S214001C10044610B10120FEF7CFFF204610BD9124E8
S214001C20F8E700BF8E6E030010B528F0FEF970B11D
S214001C30084B0022062101200EF076FB28F0E5F97D
S214001C40044610B10020FEF7B7FF204610BD9124D1
S214001C50F8E700BF8E6E030030B587B0054628F063
S214001C60E4F9C0B100230120CDE903332023CDE9F8
S214001C70013085EA000300930222084B08210EF08B
S214001C8053FB28F0C2F9044610B12846FEF79EFF23
S214001C90204607B030BD9124F7E700BFB423030009
S214001CA030B585B0054628F0C0F9B8B10023CDE9B7
S214001CB0023332230122019385F0010300930821A9
S214001CC0074B10460EF030FB28F09FF9044610B183
S214001CD02846FEF791FF204605B030BD9124F7E771
S214001CE0BA23030013B528F0A0F980B10023CDE98C
S214001CF000330322074B082101200EF015FB28F0C5
S214001D0084F90446FEF784FF204602B010BD9124F5
S214001D10F8E700BFBC23030030B589B030B928F01F
S214001D2084F9044630BB012491251DE028F07DF996
S214001D3004460028F8D0002403230022CDE905221B
S214001D404FF4FA719922CDE9032101201E22CDE934
S214001D50012000934C22084B4FF440710EF0E4FA39
S214001D6028F053F9054610B12046FEF77DFF2846B9
S214001D7009B030BD0123E0E7BF23030030B587B0CC
S214001D8030B928F052F9044628BB012491251CE0FE
S214001D9028F04BF904460028F8D00024032300223C
S214001DA0CDE904224FF4FA719922CDE902211422DA
S214001DB0CDE900324FF44071084B4B2201200EF063
S214001DC0B3FA28F022F9054610B12046FEF764FF64
S214001DD0284607B030BD0123E1E700BFC723030054
S214001DE010B586B028F021F9C8B199224FF4FA71DF
S214001DF0CDE9022100231422CDE90032CDE90433D7
S214001E004B22084B4FF4407101200EF08DFA28F05B
S214001E10FCF80446FEF74CFF204606B010BD9124A1
S214001E20F8E700BFC723030010B5044686B000B32A
S214001E3028F0FBF8E0B1A3B2002CDCBF5B429BB2FB
S214001E400022FE2B28BFFE239442CCBF0024012490
S214001E500120CDE9032201930290074B0094022251
S214001E6008210EF061FA06B0BDE8104028F0CDB8A3
S214001E70912006B010BD00BFB423030010B5044681
S214001E8088B020B328F0D1F800B3002CA3B24FF0EE
S214001E900001D8BF5B42CDE905114FF4FA704FF050
S214001EA09901CDE90310DABF9BB20322012201207B
S214001EB0CDE901300092074B4C224FF440710EF0F2
S214001EC033FA08B0BDE8104028F09FB8912008B05B
S214001ED010BD00BFBF23030030B50A4C0A4B226872
S214001EE00A4D1A6085B00A4B2B600A4B019303F02B
S214001EF0A5FD2B68029001A92068039328F0D9FE5F
S214001F0005B030BDA4100020A8310020A431002068
S214001F10981000200A6E0300014B186828F0DDBEFA
S214001F20A410002038B5084D03F088FD2B68044641
S214001F30D3F8B00203F076FD286828F0E1FE2046CC
S214001F40BDE8384003F06EBDA410002038B501F09F
S214001F50F5FA0E480E4D012100F03CFF0122012447
S214001F601146104601F00CFA224621462046C5F8D6
S214001F70804001F005FA2046C5F8844022462146F6
S214001F8001F0FEF9C5F88840002038BD30253E0037
S214001F9000400E401E4B07B501225A641A6842F4F0
S214001FA080721A6001A802F087F99DF80530012BAF
S214001FB003D89DF80430022B0DD9164B4FF4187237
S214001FC0C3F88C22144AC3F89022144AC3F8F022AD
S214001FD0134AC3F8F822134AD2F8A43143F4F8435C
S214001FE0C2F8A43103F000FD03F0B0FC03F0C4FC1B
S214001FF0FFF7ACFF29F0E8F900F0C2FA03F074FD31
S21400200000F014FD03B05DF804EB04F0CBBB00BF9A
S21400201000000E4000400E409A6F050018010004B4
S2140020200084320800300E4008B513F011FB024B56
S21400203000221A7008BD00BFED4D00201FB50A4AE9
S21400204003461068029002A990889279ADF80C00B9
S2140020508DF80E20009144224FF44071012006F0C6
S21400206079FF05B05DF804FB586E03001FB5074AFC
S214002070039203AA034600924FF4407141220120C6
S21400208006F068FF05B05DF804FB00BF01022121E1
S2140020901FB50949034602AA0868097902908DF817
S2140020A00C1000924FF440714022012006F052FFBF
S2140020B005B05DF804FB00BF606E03001FB509495C
S2140020C0034602AA0868097902908DF80C1000925F
S2140020D04FF440714322012006F03CFF05B05DF846
S2140020E004FB00BF606E03001FB50949034602AA41
S2140020F00868097902908DF80C1000924FF4407130
S2140021004222012006F026FF05B05DF804FB00BF62
S2140021105A6E03001FB5064A039203AA00920122D4
S21400212003460821104606F015FF05B05DF804FBCF
S214002130010121211FB5074A039203AA0346009214
S2140021404FF440710822012006F004FF05B05DF848
S21400215004FB00BF121221211FB5094A034610686E
S2140021609288ADF80C2002AA029000924FF44071BB
S2140021704B22012006F0EEFE05B05DF804FB00BF22
S214002180666E03001FB5074A039203AA0092012257
S21400219003464FF44071104606F0DCFE05B05DF8CD
S2140021A004FB00BF010121211FB5074A039203AAC1
S2140021B0034600924FF440710422012006F0CAFE46
S2140021C005B05DF804FB00BF010121211FB50949D8
S2140021D0034602AA0868097902908DF80C1000924E
S2140021E04FF440710722012006F0B4FE05B05DF8FA
S2140021F004FB00BF676E03001FB5074A039203AADD
S214002200034600924FF440710A22012006F0A2FE17
S21400221005B05DF804FB00BF020221211FB5094985
S214002220034602AA0868097902908DF80C100092FD
S2140022304FF440710022012006F08CFE05B05DF8D8
S21400224004FB00BF6D6E03001FB50949034602AAD2
S2140022500868097902908DF80C1000924FF44071CE
S2140022600622012006F076FE05B05DF804FB00BFEE
S2140022706D6E03001FB5064A039203AA034600923A
S21400228008210022012006F065FE05B05DF804FB7B
S214002290010221211FB5074A039203AA03460092B2
S2140022A04FF440710322012006F054FE05B05DF89D
S2140022B004FB00BF010221211FB50949034603AAFA
S2140022C008888978ADF80C008DF80E10009206216B
S2140022D04222012006F03EFE05B05DF804FB00BF7A
S2140022E0736E03001FB50849034602AA08680979F9
S2140022F002908DF80C10009208210222012006F0B0
S21400230029FE05B05DF804FB6D6E03001FB5094994
S214002310034602AA0868097902908DF80C1000920C
S2140023204FF440710922012006F014FE05B05DF856
S21400233004FB00BF776E03001FB50A4A0346106809
S214002340029002A990889279ADF80C008DF80E20C4
S21400235000914C224FF44071012006F0FBFD05B0C1
S2140023605DF804FB7D6E03001FB50949034602AA0B
S2140023700868097902908DF80C1000924FF44071AD
S2140023800222012006F0E6FD05B05DF804FB00BF62
S214002390856E03001FB50949034602AA0868097935
S2140023A002908DF80C1000924FF440710522012027
S2140023B006F0D0FD05B05DF804FB00BF856E030097
S2140023C01FB50949034603AA08888978ADF80C00AA
S2140023D08DF80E10009208210622012006F0BAFDA4
S2140023E005B05DF804FB00BF8B6E03000A4601498A
S2140023F027F065BF8480030008B500F083F8124B11
S21400240012498B4212D3124B124900208B4218D32A
S214002410FEF782FB186850F82240586840F82240C1
S214002420013298688242F5D30C33EAE70022F8E7D7
S2140024301C6844F8220001325C68A242F8D30833D4
S214002440E4E70022F8E700BFD8150400E41504000E
S214002450E4150400E41504000048704700F0490243
S214002460104AD2F8943003F00703023B032B13D82C
S214002470DFE803F00C14020E0B4B1B68D2F80001C9
S214002480C0F304200130B3FBF0F07047074BF4E7CD
S214002490074B1B685B08F1E7054BEEE74FF400437C
S2140024A0ECE700BF00400E40CC100020D01000200B
S2140024B0C410002008B5FFF7D3FF054BD3F808314A
S2140024C0C3F308230133B0FBF3F0024B186008BDDA
S2140024D000400E40C8100020014B1868704700BF2F
S2140024E0D0100020054B1860054BD3F8943003F04D
S2140024F00703022B01D1FFF7DDBF7047D010002085
S21400250000400E40044B054A9A60D3F8882042F4F7
S2140025107002C3F88820704700ED00E0000000005D
S214002520014B1868704700BFCC100020114A916A12
S21400253001F1704303F5F813B3F5006F0CD2D2F82F
S2140025402838A3F17E62A2F58432B2F5605F03D22A
S2140025500968094A914203D00023037083607047DC
S2140025601968064A9142F7D1012202709A684260C1
S2140025709B69F3E70000E10FAD1007B007B0CD5E32
S2140025800F4BD3F82838A3F17E62A2F58432B2F559
S214002590605F10B511D219680A4A91420DD10A4CF3
S2140025A0227812F0FD0F01D0002010BDDB6998479D
S2140025B00028FAD101232370F6E74FF48170F4E780
S2140025C00000E10F07B0CD5EEE4D00204FF0005347
S2140025D00B4A1A600B4A01239360136823F4E063E6
S2140025E043F480631360BFF34F8F0749074BCA68F5
S2140025F002F4E0621343CB60BFF34F8F00BFFDE7EA
S21400260002020FF000500E4000ED00E00400FA0554
S2140026100A4BD3F82828A2F17E63A3F58433B3F5DA
S214002620605F09D2126BA2F17E63A3F58433B3F523
S214002630605F01D253681847704700BF0000E10F83
S2140026400B4BD3F82828A2F17E63A3F58433B3F5A9
S214002650605F09D2126BA2F17E63A3F58433B3F5F3
S214002660605F01D2936818474FF48170704700BFCF
S2140026700000E10F0E4B07B5D3F828280190A2F111
S2140026807E63A3F58433B3F5605F0ED2126BA2F1BE
S2140026907E63A3F58433B3F5605F06D293690121A8
S2140026A001A8984703B05DF804FB4FF48170F9E782
S2140026B00000E10F0B4BD3F82828A2F17E63A3F5A8
S2140026C08433B3F5605F09D2126BA2F17E63A3F583
S2140026D08433B3F5605F01D2936918474FF4817075
S2140026E0704700BF0000E10F0B4BD3F82828A2F17B
S2140026F07E63A3F58433B3F5605F09D2126BA2F153
S2140027007E63A3F58433B3F5605F01D2D3691847BF
S2140027104FF48170704700BF0000E10F0A4B10B401
S214002720D3F82848A4F17E63A3F58433B3F5605F3D
S21400273005D2236B1BB15B6A5DF8044B18474FF458
S21400274001705DF8044B70470000E10F0B4BD3F8A7
S2140027502828A2F17E63A3F58433B3F5605F09D21F
S214002760126BA2F17E63A3F58433B3F5605F01D2EA
S214002770936A18474FF40170704700BF0000E10FDE
S21400278070B5144E1546D6F82828A2F17E63A3F538
S2140027908433B3F5605FE0B00C4617D2126BA2F13B
S2140027A07E63A3F58433B3F5605F0FD2536A694640
S2140027B04FF4C072984738B9D6F828381B6B2A46AB
S2140027C0DB6A21466846984760B070BD4FF40170DA
S2140027D0FAE700BF0000E10F0A4BD3F82828A2F161
S2140027E07E63A3F58433B3F5605F09D2126BA2F162
S2140027F07E63A3F58433B3F5605F01D2136B18478D
S214002800012070470000E10F0D4B10B4D3F82848A4
S214002810A4F17E63A3F58433B3F5605F0BD2246B1B
S214002820A4F17E63A3F58433B3F5605F03D2636BD4
S2140028305DF8044B184740F201105DF8044B7047F2
S2140028400000E10F0D4B10B4D3F82848A4F17E63C6
S214002850A3F58433B3F5605F0BD2246BA4F17E63DB
S214002860A3F58433B3F5605F03D2A36B5DF8044B26
S214002870184740F201105DF8044B70470000E10F66
S2140028800B4BD3F82828A2F17E63A3F58433B3F567
S214002890605F09D2126BA2F17E63A3F58433B3F5B1
S2140028A0605F01D2D36B184740F20110704700BF3B
S2140028B00000E10F70B5D0B1C9B10E4E431E01390C
S2140028C013F8014F325D02F00302012A11F8012FBE
S2140028D0B55C05F00305204608BF04F12000012D75
S2140028E008BF2032801A01D1002CE9D170BD01202A
S2140028F0FCE700BFCF1404002DE9F041DFF8648048
S214002900D8F86070D8F86C301F4000D5FEE7134C3E
S21400291001260025374218D02368C8F86860A3B19E
S214002920A16862680131A16028469847637B012B45
S2140029300BD150B90A4B03EB45131A7B60F34102E7
S2140029401A731A7F60F341021A770135082D4FEA91
S214002950460604F11004DDD1BDE8F0810828002009
S2140029600827002000200E4070B50C4E04460125B6
S21400297004B970BD94FAA4F0B0FA80F006EB001229
S21400298005FA00F324EA03045368002BF0D0117B09
S21400299011B191689847EBE79847E9E78828002047
S2140029A008B5122000F060FE28B1084B4FF48022D4
S2140029B0C3F880211A600A2000F056FE28B1034BA7
S2140029C04FF48062C3F880211A6008BD00E100E081
S2140029D038B505460C4627F0E4FD054B03EB05131A
S2140029E000225C601A73BDE8384027F0E0BD00BFE7
S2140029F088280020054BD3F82804D3F81C24104060
S214002A0000F05530C3F82404FFF7AEBF00A0004026
S214002A10054BD3F82804D3F81C24104000F0AA3045
S214002A20C3F82404FFF7A0BF00A00040024B1968BB
S214002A30024B186811F074BFD4100020F410002068
S214002A4070B59400224605460E4627F0DAFE431C73
S214002A500AD058B92246314628462FF0FEFB0028F9
S214002A60034808BF002070BD0248FCE70248FAE7AA
S214002A7010E000F021E000F024E000F010B504467D
S214002A8001F05AFB431C10D088B901F033FC20F04B
S214002A90030023462044984201D1002010BD53F87D
S214002AA0042B0132F7D00348F8E70348F6E703485B
S214002AB0F4E700BF0EE000F021E000F024E000F0B4
S214002AC008B527F063FD014B186008BD783100207B
S214002AD0014B186827F05EBD783100202F4B002A86
S214002AE030B52F4C426B18BF1C462E4B0CBF002532
S214002AF01025984232D1062907D8062907D8DFE8DC
S214002B0001F00817402E06063600812939D000232A
S214002B101FE0254BD3F81012D3F81002D3F810326A
S214002B2001F4FE4100F00F00014303F0F0030FE054
S214002B301D49D1F81032D1F81002D1F810121B0C32
S214002B40090C01F0F00103F4FE430B43C0F303410C
S214002B500B432240AB401343124A536330BD124925
S214002B60D1F81432D1F81402D1F81412E7E70E495E
S214002B70D1F81832D1F8181203F00F0301F0F00163
S214002B80E6E7094BD3F81412D3F81402D3F814323C
S214002B9001F4FE4100F00F000143C6E7FFFF00808E
S214002BA00080FFFF002000400080E00F0E4BB0F5D5
S214002BB0FA4F38BF4FF4FA40984210B5044628BF83
S214002BC01C4619B9094800F059FA0146631E0B4421
S214002BD0A342B3FBF4F028BF00F1FF307F2828BFE4
S214002BE07F20C0B210BD00BF0024F40040410500A5
S214002BF070B5CD7804460E46002D36D129461F48BE
S214002C00FFF7D4FF05460A23A3603278737843EAB9
S214002C100263B278120402F4FE0213432D023279E4
S214002C2005F4FE452B430AB143F010032268520711
S214002C3048BF43F004032360757927F0A7FC236898
S214002C405D4005F0C0055D40256027F0A3FC2368C5
S214002C501B0611D50A4800F011FA0A4B9C420BD10C
S214002C60BDE87040084800F009BA03681906CAD4DF
S214002C70064800F003FAC6E770BD00BF0024F40063
S214002C80B80032000020004000B2040040410500B9
S214002C9008B528B9074800F0F1F9012838BF012027
S214002CA000F57420044B00F23F20B0FBF3F001382F
S214002CB0C0B208BD4041050040420F000C4B984290
S214002CC005D90C4B984210D80122012301E00022BE
S214002CD0134609490B640949D1F8003123F0807383
S214002CE043EA0263C1F8003170470222EDE700BFF5
S214002CF00048E8010090D0030000C84300400E40A2
S214002D000F4B5B680F4B30B500221C46C9B21D79CD
S214002D108D4202D11D6885420DD20132052A03F18B
S214002D200803F4D10321064A536823F0407343EAAC
S214002D300163536030BD04EBC2046179F3E700BF62
S214002D4000000E40FC80030038B5074C41F6713396
S214002D50256C2364FFF780FBADB20021FFF7D0FFA0
S214002D600DB10023236438BD00000E40044BDB6B1E
S214002D705B0604D4034AD2F8C830002BFBD1704758
S214002D8000300E400000C64308B5FFF7EFFF024BC9
S214002D905868C0F3014008BD00300E40044BD3F81D
S214002DA04421D20703D4D3F840211042FBD1704708
S214002DB000400E4038B5064C256C41F6713323644E
S214002DC0ADB2FFF79DFF0DB10023236438BD00BFF1
S214002DD000000E4038B5C0F30323013B092B11D881
S214002DE0DFE803F0052710102B221D101511154DD6
S214002DF0C0F3043405F1424505F5801504EBC50023
S214002E008000016038BD104DC0F30434F2E70F4D6A
S214002E10C0F304344FF48030FFF7C0FFEAE7C0F396
S214002E2004340B4D1020F7E7C0F30434094D01209D
S214002E30F2E7094DC0F30434DCE7084DC0F3043470
S214002E40D8E700BF00400E4050410E40F0400E4014
S214002E50E8400E40E0400E40C0400E40B0400E40FD
S214002E60C0F30313013B092B2AD8DFE803F0050B58
S214002E700F1929291F23374B274BD3F80001C0F31E
S214002E8004207047244BD3F81401F8E7224BD3F8FC
S214002E900031C3F3006301330120984001387047C6
S214002EA01D4BD3F80C01C0F3082070471A4BD3F81B
S214002EB00801F8E7194B984204D0194B984207D0FE
S214002EC000207047144BD3F8203103F00F03E3E7DC
S214002ED0114BD3F82031C3F30113DDE7114B9842B1
S214002EE00CD003F5B01303F580539842E8D10A4B93
S214002EF0D3F82831C3F301230433CDE7064BD3F8C8
S214002F002831E8E7084B9842DAD1034BD3F8300172
S214002F1000F00300704700BF00400E408006160019
S214002F2080162E0090171A00A009140000F00F005B
S214002F300138072852D8DFE800F00415225131394D
S214002F4051412C4BD3F8943003F00703023B052B7A
S214002F5006D8DFE803F04B29410305450B207047F0
S214002F6005207047234BD3F8803003F00703013B5E
S214002F70042B17D8DFE803F01830163638001D4B40
S214002F80D3F8843003F00703013B042B0AD8DFE8AC
S214002F9003F00B2303292B0006207047154BD3F8AC
S214002FA08830E2E70120704703207047114B1B6F03
S214002FB013F0010F0CBF0720092070470D4BD3F804
S214002FC05C3103F03003202B10D0302B10D0102BA8
S214002FD00CBF072001207047022070470020704772
S214002FE00C2070470A2070470D2070470420704759
S214002FF00820704700400E4008B50146FFF796FFD0
S2140030001A4B994212D01A4B994213D0194B994237
S21400301004D1194BD3F8800000F0070001380428CB
S21400302022D8DFE800F00B0F17130B00124BD3F873
S2140030308400F1E7104BD3F88800EDE7BDE80840C0
S21400304027F0D7B9BDE80840FFF76ABABDE80840E0
S21400305027F0D2B9FFF704FA074BD3F80031C3F3D1
S21400306000630133D84008BD0020FCE703002000C1
S2140030700500240002001E0000400E4000F47813F5
S214003080B3F5B01F10B5044674D025D8B3F5402F5D
S2140030905ED010D8B3F5802F49D005D83BB1B3F534
S2140030A0003F4FD0002010BDB3F5202FFAD1BDE869
S2140030B01040FFF7D5B9B3F5801F00F08480B3F554
S2140030C0A01F4DD0B3F5602FECD14A48FFF72EFF76
S2140030D0072878D00928E9E7B3F5381F53D013D866
S2140030E0B3F5001F58D00AD8B3F5D01F56D0B3F5A5
S2140030F0F01FD7D14048BDE81040FFF77DBFB3F5BD
S214003100101FCFD13D48F6E7B3F5481F4DD0B3F5B5
S214003110781F65D0B3F5401FC4D13948FFF76CFF60
S214003120384BD3F82831C3F30123043320E0FFF7EC
S21400313097F9344BD3F80C31C3F308230133B0FBB3
S214003140F3F0B0E7FFF78CF92E4BD3F80831F3E72E
S214003150FFF786F92B4BD3F81431C3F30423EDE7BE
S2140031602648FFF749FF274BD3F8303103F0030317
S214003170D84098E72048FFF73FFF224BD3F820318E
S21400318003F00F03F4E71C48FFF736FF1D4BD3F898
S2140031902031C3F30113EBE71948ACE71848FFF7F3
S2140031A02BFF184BD3F82831F3E71748FFF7BEFE7E
S2140031B0072808D0082809D004287FF473AFBDE894
S2140031C01040FFF789B9114B18686CE7FFF748F90C
S2140031D00C4BD3F80031C3F3042303FB000062E773
S2140031E0FFF73EF90146204627F0CBF9B1FBF0F099
S2140031F059E700BF06000E0002001E00050024006E
S2140032000300200000400E40B8003200F8100020F6
S21400321010B5FFF799FD094B07225A67FFF720F90B
S214003220FFF74CFDFFF746F90446FFF7ADFD0146F4
S2140032302046BDE81040FFF7BDBD00BF00400E4071
S214003240014B1880704700BFF414002010B5042806
S21400325013D8DFE800F047032F132100294AC1F3F3
S2140032600801D2F86838002BFBD1274A136A23F4EA
S214003270FF7323F001030B43136210BD214A01F0D4
S2140032807F01D2F86038002BFBD11F4A136923F068
S2140032907F030B431361F0E71A4A01F07F01D2F86F
S2140032A06438002BFBD1184A936923F07F030B4345
S2140032B09361E2E7144AD2F89030536A23F0300361
S2140032C043F010035362146B104BC1F3C31003306A
S2140032D00F2803EA040328BF0F200B4343EA0073BA
S2140032E01363CAE74F29074A28BF4F21D2F874381C
S2140032F0002BFBD1044A936B23F07F030B439363AD
S214003300BBE700BF0020C84300400E4000F8FF0F98
S214003310104A536A13F0300F18D0202913D03029E2
S21400332014D000290C4B08BF4FF44003D2F890107D
S21400333033EA0101FAD15B0246BFD2F8A000C0F31F
S2140033408020012070474FF40003EFE74FF440035E
S214003350ECE700BF00400E40FFF3E17F02280AD1F1
S21400336029B1064B4FF48060C3F8A800596612B125
S2140033700220FFF7CDBF0120704700BF00400E407F
S214003380F7B507460C461546072800F28680DFE8A4
S21400339000F029303C413684840401A800F08CFFFC
S2140033A09DF80530012B03D89DF80430022B18D960
S2140033B0002C74D14FF400410E240F2347480122FD
S2140033C00166A240D0F890101142FBD1002D64D0C7
S2140033D00122424902FA03F3D1F890201A42FBD1A7
S2140033E05BE0FEE7002960D14FF400710824092352
S2140033F0E4E700295ED1802106240723DEE70029C2
S2140034005CD1202104240523D8E741B908210224F1
S2140034100323D3E7002955D102210123CEE72F4A03
S214003420536A13F0300F51D12D4BDB6B536ADB0719
S21400343041BF536A23F0300343F01003536204265F
S21400344002230321254A1666264A13449B00186861
S2140034500028FCD00DB311448D002B68002BFCD047
S214003460022F1AD1CCB11D4C616A11F0010131D086
S214003470012220213846FFF771FFD4F89C70012204
S21400348000210220FFF77CFFC7F30A010220FFF7A6
S214003490DDFE26662B68002BFCD003B0F0BD4FF493
S2140034A080460E230F210024CCE74FF480760823B5
S2140034B00921F8E7402606230721F4E7102604230F
S2140034C00521F0E7012600233146ECE70426022317
S2140034D00321E8E73846FFF71BFFCEE700400E4023
S2140034E000300E408004F21010B50246B8B9012232
S2140034F01146FFF745FFFFF727FC0F4B04225A67DC
S214003500FEF7AEFFFFF7DAFBFEF7D4FF0446FFF741
S2140035103BFC01462046BDE81040FFF74BBC0128A7
S21400352007D10146FFF72CFFFFF70EFC024B0322E4
S214003530E5E7FFF709FCE3E700400E4038B5FEF785
S214003540CBFF0021044600F0ADFA1248FFF7B6FBA9
S214003550012211460220FFF713FFFFF7F5FB0CB11F
S214003560FFF704FC0C4B02225A67FEF779FFFFF7C1
S214003570A5FBFEF79FFF0546FFF706FC014628461B
S214003580FFF718FC2CB920460121BDE8384000F0B2
S21400359089BA38BD0148E80100400E40012210B546
S2140035A011460320FFF7ECFEFFF7CEFB084B052283
S2140035B05A67FEF755FFFFF781FBFEF77BFF0446D1
S2140035C0FFF7E2FB01462046BDE81040FFF7F2BBDE
S2140035D000400E4010B504461120FFF7A7FC00215E
S2140035E001220220FFF7CCFE184A217C536A23F002
S2140035F00103022908BF43F001035362144B2178EC
S214003600C3F8A014637AA18843EAC123D362136B7C
S214003610A07A217A03F07F630343E08843EAC0235D
S21400362043EAC11303310F2928BF0F2143EA017370
S2140036301363A37B617B1B0143EA0133E17B0B43EE
S214003640217B43EA0143536310BD00BF00400E4098
S2140036500000C843034B5868C0F30800003818BF82
S2140036600120704700ED00E04209054B53F8223078
S21400367000F01F0023FA00F0C04300F0010070477E
S21400368000E100E0034BD86B80F04000C0F38010F0
S214003690704700BF00300E4042EA0322B2F5007FBA
S2140036A010B5194C29D00AD8B2F5807F22D040F246
S2140036B001139A4215D062B9D4F81C320BE0B2F569
S2140036C0407F1DD040F201339A4210D0D4F8283201
S2140036D001E0D4F82432C3F30722DBB203600A60A9
S2140036E010BDD4F824321A0EC3F30743F6E7D4F815
S2140036F02832F8E7D4F81C32F5E7D4F82032EAE7A7
S214003700D4F82032EFE700BF0081E00F08B5FFF7DE
S214003710B9FF20B1024AD2F8C830002BFBD108BD51
S2140037200000C64308B5FFF7ADFF80B1FFF7EEFF18
S214003730074B19685A68C1F30121C2F3014291424E
S2140037401A688CBF42F0100222F010021A6008BD00
S21400375000300E40064B1B68DB0608D5054B1B6980
S214003760C3F30443082B02BF034B044A1A60704796
S21400377000300E4000400E40C4100020C0EA210178
S21400378070B5FFF77FFF38B12D4B1A781023C2F1C2
S214003790020293402B4A13612B492C4DD1F88041ED
S2140037A045F60E03C1F880312B6823F0AA03DB052B
S2140037B0DB0D0B66FFF7AAFF224B1B68D80604F04A
S2140037C0010415D5D1F84031DA01FBD4204B1B6833
S2140037D00B61204B1B78052B0AD11F4B1E68FFF789
S2140037E095FF184B59683046C1F30141FFF7E2FADE
S2140037F0184B1B78023B0A2B0AD8DFE803F00615A5
S214003800170909090909091A1D000020FFF76CFEAF
S2140038102B68DB075EBF0C4B02221A661CB10A4BF4
S2140038200022C3F8802170BD0120EFE7FFF786FE77
S214003830EEE7FFF7B3FEEBE7FFF7EAFCE8E700BFCB
S214003840EF4D002000300E4000400E40803100203A
S2140038507C310020F04D0020C410002010B50B4C29
S2140038600B4BD4F890201A601120FFF75FFB094B32
S2140038701870FFF74BFF084B084A5B68C3F3014319
S2140038801370074B22691A6010BD00BF00400E403F
S21400389080310020F04D002000300E40EF4D00201B
S2140038A07C310020064942780B6823F4407343EAD3
S2140038B00223022A0B6004BF024B5B6A704700BFFC
S2140038C000300E4000400E4038B5054608B1FFF700
S2140038D0C5FFFFF727FF1A4A136943F00403136175
S2140038E026F079FF26F078FF164B174AC3F82424F3
S2140038F003F559231B68DB0614D526F047FE2EF089
S2140039002BFD26F047FE26F068FF104C03F0B8F9B2
S21400391055B1FFF735FFD4F84C3123F00043C4F817
S2140039204C3138BD30BFEEE7FFF714FFD4F84C310A
S21400393023F00043C4F84C31BDE83840FEF7BABD6A
S21400394000ED00E000A000400000FFFF00300E4049
S21400395038B5054608B1FFF781FFFFF7E3FE1F4BBA
S2140039601F4CD3F8802145F60E01D207C3F880110C
S21400397048BF00224FF42071196648BFC3F8802163
S214003980184A136943F004031361174B174AC3F828
S214003990242426F020FF2368DB0611D526F0F6FD4A
S2140039A02EF0DAFC26F0F6FD03F06AF955B1FFF7C3
S2140039B0E7FED4F84C3123F00043C4F84C3138BD50
S2140039C030BFF1E7FFF7C6FED4F84C3123F00043D2
S2140039D0C4F84C31BDE83840FEF76CBD00400E40E0
S2140039E000300E4000ED00E000A000400000FFFFA9
S2140039F00E4A0379916921F03F010B43017843EAAF
S214003A008103417843EA4103817843EAC103C178E0
S214003A10012908BF43F0010393611368417923F439
S214003A20403343EA01431360704700BF00300E4046
S214003A302DE9F04104460D46FFF724FE60B3DFF89B
S214003A406080FFF763FED8F80430C3F301439C425E
S214003A5022D0124BD3F80031FEF702FD022C0746A7
S214003A604FF0100609D12146FFF7A4F9C8F81060F8
S214003A7095B1BDE8F041FFF749BEC4F102039E4090
S214003A80C8F810600DB1FFF741FE2CB92146384644
S214003A90BDE8F041FFF78EB9BDE8F08100400E406A
S214003AA000300E4038B505460C46FFF7EBFDB8B1C2
S214003AB045B90C4BD3F80051FEF7D2FCC5F30425EC
S214003AC005FB0005084B1B7821463BB1074B9D4282
S214003AD004D80220BDE83840FFF7AABF0020F9E767
S214003AE038BD00BF00400E40F14D0020002D3101D2
S214003AF0034B02781A7001210020FFF7D3BF00BFE6
S214003B00F14D0020174B4AF6E85210B5596B5A6330
S214003B109A6FD407FCD41B6C13F0030306D0124A2A
S214003B2001249842C2F8B44A05D110BD18B90E4B0C
S214003B30C3F8B40AF9E70B4B9A6FD207FCD41A6C99
S214003B4022F0030202431A649A6F12F00102FBD1BC
S214003B500038054C18BF01200129C4F8B40A08BF74
S214003B605A63E2E700300E400000C6432DE9F04FEE
S214003B7000238BB0CDE90433CDE90633CDE9083315
S214003B80A0F5E163B3F5966F05460191934603D918
S214003B9000200BB0BDE8F08F624BDFF88C81D3F8C5
S214003BA01842B0F5E16F15BF4FEA146AC4F3072A4E
S214003BB0C4F30744E4B20694CDF824A0D8F84C60C9
S214003BC0C6F301768CBF01220022334607A904A85B
S214003BD015BF4FF4E1674FF496674FF496694FF4BC
S214003BE016790392FFF758FDD8F8E030039AC3F32E
S214003BF0012308A905A80293FFF74EFDA5EB070CC5
S214003C00AAEB04020CFB02F2B2FBF9F21444544590
S214003C10079F0498089A0599BAD8A2EB010E0CFBE8
S214003C200EFEBEFBF9FE11EB0E012CBF4FF0010E8F
S214003C304FF0000E8A42ABD3BEF1000FA8D13A1A5D
S214003C400CFB02F2B2FBF9F280182CBF0122002214
S214003C5087429DD3002A9BD1029BBBF1000F0FD059
S214003C60D8F85C20B5F5E16722F4FE4218BF0127BC
S214003C7022F0020242EA470242EA0422C8F85C2026
S214003C80019A0AB9012084E7264A022ED2F8302289
S214003C903ED0032E3FD0012E14BFD2B2C2F307226D
S214003CA0120312F4702F7FF473AF1F4EF46E24F4D9
S214003CB070442243F2661B4A022BD2F830222CD0E4
S214003CC0032B2DD0012B14BFD2B2C2F3072212034E
S214003CD012F4702F7FF45CAF134CD4F8E03023F46A
S214003CE070431343C4F8E030636E884238BF08461A
S214003CF023F4FF73E72823F0010328BFE720B5F578
S214003D00E16F18BF43F0010343EA40036366B9E777
S214003D10C2F30742C4E7120EC2E7C2F30742D6E771
S214003D20120ED4E70081E00F00300E402F4B1A6FC2
S214003D30D96C11F0010F02F0060242D0002A40D0E2
S214003D4013284FD9143813288CBF1023082327496B
S214003D50013BCA6C180322F47F4240EA0323134354
S214003D60CB64234BCA6C1B88C2F303222833013270
S214003D7002EB820003EB5303B3FBF0F3C86C013B8A
S214003D80072B28BF072320F0EE6040EA036343F4C6
S214003D908013CB64174BB3F90030002B10DB2833AD
S214003DA0500800EB420203EB5303B3FBF2F30A6D39
S214003DB0072B28BF072322F0700242EA03130B6585
S214003DC07047D96C01F00101114304D1092809D9C3
S214003DD00A380928B8E7DB6C13F00103B7D01AB924
S214003DE02728B1E70423B2E70023B0E700300E40EF
S214003DF09649002092490020064A074BD3F880399E
S214003E00136F23F0070303431367044B1888FFF769
S214003E108DBF00BF00300E400000C643944900200E
S214003E202DE9F041C288B0F808808588B0F90C60AA
S214003E3047784A2A04464FD9B2F5FA7F4ED340F661
S214003E40C3139A428CBF4FF040524FF0005228499D
S214003E50CB6C23F0405323F00103002EA8BF43F0A1
S214003E6001031343CB64D1F8E03043F44073C1F848
S214003E70E030204B1D80CB6E43F08073CB661E4B2C
S214003E80D3F8800900B10420FFF7B6FF1B4BA3F858
S214003E9000801B4B28461E80FFF748FFA37B03B31A
S214003EA0012B22D0012260881146FFF75FFE0546EF
S214003EB078B10F4AD36B43F48063D3633846FFF779
S214003EC021FEA37AA3F12002534253410A4AC2F8C4
S214003ED094372846BDE8F0810022B8E74FF08052BC
S214003EE0B5E7034B074A9A65DCE7014B064AFAE753
S214003EF000300E40944900200000C643964900203A
S214003F009249002077402057372110B7072AF8B586
S214003F1001F0030614461F464FF00F011FD8950008
S214003F2000FA05F2A940154826F05CFC0321144867
S214003F3006FA05F2A94026F055FC12499DF81830FD
S214003F40114A214489000F60C1F880300123A34044
S214003F50C2F824349DF81C30C1F80033F8BDA2F135
S214003F600805AD0000FA05F2A940084826F03AFC1C
S214003F700321074806FA05F2A940DCE700A4004042
S214003F8008A400408020851000A0004004A4004043
S214003F900CA4004000EB4000F8B50D461F46040197
S214003FA016463AB1154801238B402044C7B100F1AC
S214003FB0C0600360072D4FF00F0114D8AB00104807
S214003FC006FA03F29940204426F00CFC3EB90B4A50
S214003FD00123AB40224477B102F1C0621360F8BD02
S214003FE000F18060E5E7A5F108039B00054806FAA6
S214003FF003F29940E7E702F18062EFE70CA0004089
S21400400004A0004008A00040054B5A685B68054BBA
S21400401041F671321A649A6822F001029A6070477B
S21400402000300E4000000E40034B9A6822F001025A
S2140040309A6000221A64704700000E40094A0A4B34
S214004040D969C90705D512B96FF002007047013A61
S214004050F6E7002AF8D001221861DA60D86940F342
S214004060800070478096980000000E4070B509B931
S214004070002070BD0E4A0023082550F823409461A6
S2140040800C4CD5600133D669F60705D514B96FF028
S2140040900200EEE7013CF6E7002CF8D0D469A4074E
S2140040A002D49942E9D1E3E76FF00100E1E700BFEF
S2140040B000000E40809698002DE9F8431C4B0D46F4
S2140040C041F671311E6C19641A4980464868496881
S2140040D0996841F00101B6B2996097084FF000095F
S2140040E0B94501D3002005E008EB89042046FFF718
S2140040F0A5FF48B10E4B9A6822F001029A600EB1F5
S21400410000221A64BDE8F883C4F30A01C1F5006111
S2140041108908A7EB0903994228BF19462846FFF7E6
S214004120A5FF0028E6D1894405EB8105D8E700BF46
S21400413000000E4000300E40234B41F671311A6CE1
S21400414010B5196421494C684968996841F0010125
S214004150996001211861D960D9694C0792B209D5D6
S214004160996821F0010199600AB100221A644FF0A3
S214004170FF3010BD0221D9601549D869C00700D5A7
S21400418069B9D86910F002000BD0996821F00101D6
S21400419099600AB100221A646FF00100E9E701395C
S2140041A0EBE741B9986820F00100986002B1196405
S2140041B06FF00200DDE7996821F0010199600AB905
S2140041C00020D6E71864FBE700000E4000300E40E3
S2140041D080969800014B01229A60704700500E406E
S2140041E0134B1449F0B500225D68134E1046D6F8FE
S2140041F0E8714C680B687F070BD4B3F5006F06D0E8
S21400420012D8B3F5007F02D0B3F5806F01D144F425
S21400421080742B4202D02C4208BF18430132092A70
S21400422001F10801E3D1F0BDB3F5803FEEE700BF32
S21400423000500E40248103000040E00F8B784A783F
S2140042409B0143EA82030A781343CA7843EA0213BF
S2140042500A7943EAC2234A7943EA02338A79043068
S21400426043EA42430001014A1350704700200440CD
S214004270014B1860704700BF000084424378827884
S2140042809B0043EA021302781343C27843EA4213C0
S214004290027943EA0223427943EA0233827943EA07
S2140042A0C233C27943EA0243027A43EA4243014AEE
S2140042B013607047002004400D4AD2F8E430D2F86C
S2140042C0E0109B0003F03C03C1F381110B438370A5
S2140042D0D2F8E03003F03F034370D2F8E830D2F86B
S2140042E0EC2003F0F003C2F303121343037070478D
S2140042F000FF0FE0044BD3F8E4301B0E0A3303F044
S2140043001F030120984070470081E00F38B504462F
S2140043102AF0ECFF0FCC044D0FC594E80F0085E89B
S2140043200F00002038BD00BF8431002047F6FF7321
S2140043309A42F0B572D0062972D83A4B5B5C022BD3
S2140043406ED8394D05EBC304DF00A17815F833307D
S214004350012938BF0121012B13D1E0780025401A2E
S214004360A84202D80844C0B2F0BD431BA0EB5303DA
S214004370666836F913609642CCBF03F1FF301D46DF
S214004380EEE760680028EFD0B0F90040944204DB06
S214004390B0F902409442B8BF14468388FF2B04BF8E
S2140043A0B0F90620B0F908C03D440FBF012600262C
S2140043B0C8224FF0280C131B93FBFCF333446E7893
S2140043C01BB29E4201DD002B01DA731E1BB20133C5
S2140043D09BB24FF47A7C071D5D1E2DB24FEAC50EC8
S2140043E000EBC5059E42EA88AD6814FB025222EA3D
S2140043F0E27202F15C02B2FBFCF205DD37F83350E4
S214004400954203F10103E7D200EB0E039888904231
S21400441028BF1046884238BF0846A4E7FF20A3E717
S2140044200020A1E76C810300843100200629F0B546
S21400443061D8324B595C02295DD8314B13F83100F4
S214004440012816D103EBC1039C78D8785B68012C51
S214004450214638BF0121904294BFC1EB0001C1EB59
S2140044600201CAB2001B8242C8BF002233F9120002
S214004470F0BD002A3DD003EBC103596800293AD0AD
S2140044809878904202D3B1F90200F1E7DC78B1F9EE
S21400449000009442ECD95C788B88A3F1FF06013CBF
S2140044A0734201F10405E4B2734101F10C07DEB278
S2140044B0B44216D805EBC3034FF47A75B3F902403D
S2140044C05B686A43D21A04EBD47302EB630292FB76
S2140044D0F4F29042CCDBB1F902009042C8DC10B294
S2140044E0C6E737F833C0944503F10106E2D33346F6
S2140044F0DDE70448BCE70448BAE700BF6C81030068
S214004500843100200CFEFFFF0080FFFF08B5044842
S214004510FFF7FCFEBDE8084001202AF00CBF00BFF4
S214004520748103007FB51422002101A82DF0BFFE80
S214004530044B029301A94FF0FF302AF038FF07B072
S2140045405DF804FB006A1800024B03480122C3F81A
S214004550002670470010C84300000F40094B9842E1
S2140045600ED003F58063984209D10122064B03EB77
S214004570C2035A68054B13449B0000221A6070471A
S2140045800022F3E700000F402C8203008005F210A3
S21400459010B504462369DB07FCD404F1800026F03E
S2140045A04DF8014B236510BD510545012DE9F0433B
S2140045B0064689B0174698460C4600294DD1FFF7A7
S2140045C0C3FF01460446304626F08BF94FF001093A
S2140045D096F86C5006F15C01C5F10F06C5F10E03A6
S2140045E0F6B22A460DF1010001358DF800302DF0A7
S2140045F084FE324600210DEB05002DF058FEC6F174
S214004600100001233246002168448DF80F302DF04B
S2140046104EFE25F0BBFF04F180060546694630468F
S21400462026F00CF80E4B23652369DB07FCD404A99F
S214004630304626F020F8284625F0ACFF424604A96E
S21400464038462DF05AFEB9F1000F02D02046FFF78B
S21400465085FF002009B0BDE8F0834FF00009B7E7FA
S214004660055101002DE9F04F89B00546DDF8489068
S21400467016461F460C4639BBFFF766FF0146044642
S214004680284626F02EF94FF0010B6B6C33446B6412
S21400469025F07CFF8246D6B9504625F07BFFBBF15D
S2140046A0000F0ED025F072FF05F14C01064604F10E
S2140046B0840025F0E0FF304625F06CFF2046FFF72B
S2140046C04DFF09B0BDE8F08F4FF0000BDDE72B790A
S2140046D0102EB04628BF4FF01008012B0DD1102227
S2140046E0002168462DF0E3FD3946424668462DF027
S2140046F004FE69462046FFF74BFF394604F18C005E
S21400470025F09CFF124B2365012363652369DB07B5
S214004710FCD404A904F1800025F0ADFF04A94246AC
S21400472048462DF0EAFD297961B9102268462DF039
S214004730BEFD4946424668462DF0DFFD69462046E6
S214004740FFF726FFC1444744A6EB0806A3E700BFD1
S2140047504805590370B5048804F4E043B3F5005FD8
S21400476005461ED1C4F30223042B1AD181F0AA6396
S21400477083F4807333F47E13204821F47E1618D019
S21400478081F0AA6383F4007333F47E1311D086425B
S21400479030D1B4F5105F0CBF6FF086006FF0850067
S2140047A070BDB4F5105F25D1144B21F47E119942EB
S2140047B0F1E786424FEA1143C1F305411AD1B4F539
S2140047C0105F17D104390C2911D813F001000ED14F
S2140047D0073A062A0BD86B88C02B0BD0B3F5807F20
S2140047E0DED0802B0CBF00206FF08600D8E76FF07D
S2140047F08600D5E76FF08500D2E700BF00014005D0
S2140048002DE9F04FA7B0DDE93475DDF8D880DDF886
S214004810EC90089206461C468A4629B96FF0860236
S214004820104627B0BDE8F08F0028F7D0309B002B4D
S214004830F4D0329B13B9339B002BEFD1002F7DD1E0
S214004840002DEBD1389B002BE8D0B9F1000FE5D056
S2140048503A9B002BE2D0399B002BDFD0338803F441
S214004860E042B2F5005F74D1C3F30222042A70D18D
S21400487084F0AA6383F4807333F47E1306D084F046
S214004880AA6383F4007333F47E136BD1C4F3054339
S214004890319AC9F80030214630460993FFF75AFF8F
S2140048A002460028BCD17288089BB3EBD20F4FEAB1
S2140048B0D20BB3D3379B9D425FD83A9A099B93425B
S2140048C05BD8474508D27B19984505D239462A4613
S2140048D040462DF0D2FC4746702200210AA82DF053
S2140048E0E6FC5A4651460DF12D00CDF850B02DF09D
S2140048F004FD234B24F47E149C423BD13388B3F54D
S214004900105F37D1D9F800300693399B0397CDE96D
S2140049100483339B0293329B0193319B00932A4678
S214004920309B01210AA826F0F7F80246E0B9389B2A
S2140049301D6070210AA826F0E7F871E7002D81D0E7
S214004940B8F1000F3FF46AAF379B002B7FF47AAFC5
S21400495064E742F20402934204D184F0052383F410
S214004960801390E7002393E7389900230B60C9F87B
S2140049700030DEE76FF08502DBE76FF089024FE775
S214004980000140052DE9F04FABB0DDE938A4DDE9C4
S2140049903B658946099298460746002800F0A280A3
S2140049A0002900F09F80349B002B00F09B80369BF4
S2140049B01BB9379B002B40F09580BAF1000F02D14F
S2140049C0002C40F08F801DB93D9B002B40F08A8064
S2140049D03E9B002B00F086803A9B002B00F08280E6
S2140049E0359A41463846FFF7B5FE0246002866D19E
S2140049F07A88099BB3EBD20F4FEAD20B72D33D9B5A
S214004A009C4272D8AA4509D20AEB0402954205D206
S214004A105146224628462DF030FCAA467022002138
S214004A200EA82DF044FC5A4649460DF13D00CDF83F
S214004A3060B02DF062FC2E4A28F47E1800219045C6
S214004A40CDE90A11CDE90C1149D13A88B2F5105FCB
S214004A5045D1379B0293369B01930AAF359B009353
S214004A602246CDE90457349B0696CDF80CA00EA836
S214004A7026F052F80246C8B93A9B384603EB060CB5
S214004A8090469C451FD11EB13146384626F03CF86C
S214004A90B8F1000F20D03E9A002313601CB12146C7
S214004AA0284626F031F86FF0940204E01EB1314635
S214004AB0384626F029F870210EA826F025F810466C
S214004AC02BB0BDE8F08F10F8011B13F801EB81EA5C
S214004AD00E0148EA0108D4E73E9B1C60EBE76FF046
S214004AE08502E8E76FF08602E9E76FF08902E6E7FD
S214004AF0000140052DE9F04F8FB09846DDF86CA018
S214004B00049093460023B8F1000F16D0D8F8004062
S214004B101029CDE90633CDE908330CBF082310234E
S214004B20029300255D450AD3B8F1000F01D0C8F8FE
S214004B30004000200FB0BDE8F08F4446E8E75CB1C7
S214004B40199B1A9A1B5D525D013453400AF80530D2
S214004B5004F00F040135E5E7FFF7F6FC4FF4404399
S214004B6044600360064625F011FD029A0499074644
S214004B70304625F0B5FD06F18403184618990193D2
S214004B8025F05CFD3846ABEB050725F003FD27F066
S214004B900F0706F1A0032F440593AAF11009BD42A2
S214004BA034D11A9B3B440AAD03F1100C18685968BF
S214004BB02A4603C2083363451546F7D10F2F0ED990
S214004BC00AEB070306AD103B0DF1280C2A4603CA74
S214004BD0624518605960154603F10803F6D106F1E0
S214004BE0800357440AEB0B0903934F4536D125F053
S214004BF0CDFC18990546019825F03DFD284625F080
S214004C00C9FC3046FFF7AAFC5D468BE725F0BEFCE4
S214004C10224B039033653369DA07FCD41A9B059858
S214004C20591925F00BFD0F2D0ED90DF1180C09EBB7
S214004C3005020DF1280E634603CB734510605160E4
S214004C409C4602F10802F6D106A906F1800025F07E
S214004C5012FD039825F09EFC1035A0E774B925F0E8
S214004C6095FC0E4B336505463369DB07FCD4039889
S214004C70199925F000FD284625F08CFC04F1380330
S214004C800DEB0302199B12F8102C1B5D01345340E8
S214004C9007F8013B04F00F04A7E700BF480503012F
S214004CA02DE9F74FDDF848A0DDE90E74DDE9106860
S214004CB083461D46894621B96FF0860003B0BDE8DD
S214004CC0F08F002AF8D00FB9002CF5D116B9B8F13C
S214004CD0000FF1D1BAF1000FEED02E4B9D4215D049
S214004CE00BD82D4B25F4807199420FD003F58063C5
S214004CF09D420BD06FF08500E0E7284B9D4205D023
S214004D0025F40071A3F580739942F2E7BBF80030F2
S214004D10B3F5105FEED1BBF80230B2EBD30FE9D398
S214004D20802B02D0B3F5807FE4D124B3B7420AD2F9
S214004D303B199E4207D24445BED8394622463046E5
S214004D402DF09BFA3746164BBBF802B09D424FEA51
S214004D50DB0BCFD14445AFD814F00F05ACD1731997
S214004D60009301227B195946484625F00EFF30B9BC
S214004D701035AC42F3D8CAF8004000209EE7424601
S214004D80002130462DF093FA0023CAF800306FF069
S214004D90920093E70010C004004040040012C004D4
S214004DA0004440042DE9F04F91B0DDE91A4ADDE9F0
S214004DB01C56DDF8789007469B46884629B96FF062
S214004DC08608404611B0BDE8F08F002AF7D014B927
S214004DD0BAF1000FF3D10DB9002EF0D1B9F1000FE2
S214004DE0EDD0574B9B4515D00BD8564B2BF4807106
S214004DF099420FD003F580639B450BD06FF0850872
S214004E00DFE7514B9B4505D02BF40071A3F580736B
S214004E109942F2E73B88B3F5105FEFD17B88B2EB9F
S214004E20D30FEBD3802B02D0B3F5807FE6D1BAF157
S214004E30000F04D1C9F800A04FF00008C1E7AC424B
S214004E400BD204EB0A039D4207D2B245B7D82146DF
S214004E50524628462DF011FA2C46394B7F889B4542
S214004E604FEAD70758D003F540739B4521D0374B00
S214004E709B45C3D1B245A2D81AF00F0B9FD140462E
S214004E803B4608AA394625F0BAFE8046002898D147
S214004E9005EB0B030093002204EB0B03394608A82E
S214004EA025F073FE804670BB0BF1100BDA45EFD889
S214004EB0C0E7AAF10D0AB2453FD801238DF810309D
S214004EC00DF11102234604F10C0153F8040B42F8CD
S214004ED0040B8B42F9D11B7813704FF48073ADF836
S214004EE01E300D3404ABCDE900334046CDE9024513
S214004EF0002352463946FFF7FDFDC9F800A080465C
S214004F0000283FF45EAF3246002128462DF0CFF948
S214004F100023C9F8003054E7AAF1100AB2453FF65C
S214004F204EAF04AA04F1100C20686168134603C350
S214004F30083464451A46F7D1D4E76FF0890840E78D
S214004F400010C004004040040012C00400444004A6
S214004F5010B54FF42F72044600212DF0A8F98023D7
S214004F60C4F88C30054BC4F88430012384F88830AC
S214004F7004F19C00BDE8104025F041BA3C820300D5
S214004F8010B5D0F8A0400A4684B926F043F8044687
S214004F9010B90024204610BD2D2896BF064B0749A1
S214004FA053F82010064826F07CF9F3E7D0F8A41052
S214004FB01046A047EDE700BFE882030046820300E4
S214004FC07FEC0300F8B590F88060044616B1002622
S214004FD03046F8BD25F04FFE0028F8D1012384F8AE
S214004FE0803094F8883033B1D4F88410194884F8A7
S214004FF0886026F056F94FF0FF37D4F8B402421C0A
S2140050001CD0C4F8B47210F0FF0520D0204625F05E
S2140050102FFE2946204600F0AFFB0028EDD02046A4
S21400502025F034FE94F888306BB1D4F88410094823
S21400503026F037F9002384F8883004E026F016F9C5
S214005040431CE0D10126002384F88030C0E7012607
S214005050D3E700BF6CA50300F8B50B78302B0446E9
S2140050600D46164604D14B7803F0DF03582B11D0BB
S214005070284F6A1E12F8011F002935D128460A2239
S21400508024F030FF202C03460D4632D1B1FA81F0D1
S21400509040091BE04A1C1F4912F8013F93B92846F5
S2140050A02DF039F91C4B2340032BA0F1020012D13E
S2140050B00134A41084420AD1A87837288CBF002077
S2140050C0012003E0CB5C13F04400E5D1F8BDCCBF73
S2140050D001200020FAE7002CB8BF0334B0EBA40F81
S2140050E0D4BF01200020F1E77B5C13F00400C1D19F
S2140050F0ECE726B1084302D0013B61F1000501222E
S214005100A240013A1A40002D08BF9A420CBF012067
S2140051100020DBE7CF14040003000080F0B503781E
S2140051207B2B014617D10D4F06460224002216F8A7
S214005130015F7D2D05D10B5D6BB9D24302F00100F6
S21400514008E07B5D13F0440002D001320134EEE744
S214005150202DFBD0F0BD0020FCE700BFCF140400DC
S21400516070B506460D462DF0D6F80446304626F0B5
S21400517098F8044EAC4200D370BD304626F091F845
S2140051800134F7E79C9C03002DE9F84F0446022102
S2140051906048FFF7E5FF1E212068FFF7E1FF636820
S2140051A0586826F07EF85C4826F07BF867683B7BFC
S2140051B0FD2B12D8D7F80880DFF85891DFF8B4A195
S2140051C0DFF870B140462DF0A6F80C3706464FF0D3
S2140051D0FF3417F8013BFF2B01D1BDE8F88F212BD8
S2140051E014D8212B14D8DFE803F0178C8884807C31
S2140051F078741313131313131313706C6864605CC2
S21400520058541313131313131313504CFE2B34D08C
S21400521006B10134414D02E006B10134404D022191
S2140052204846FFF79DFF1E214846FFF799FF504668
S21400523026F037F8594628462DF055F83949002803
S21400524018BF2946384826F02CF83B78202B02D188
S2140052502B2026F01AF8354826F023F84EB118F819
S21400526004301F2B05D018F804001F2801D0B442C4
S2140052704BDB294826F015F8ABE706B101342C4D78
S214005280CDE706B101342B4DC9E7002EA1D001347D
S2140052909FE706B10134284DC1E706B10134274D1A
S2140052A0BDE706B10134264DB9E706B10134254DF8
S2140052B0B5E706B10134244DB1E706B10134234DFC
S2140052C0ADE706B10134224DA9E706B10134214D00
S2140052D0A5E706B10134204DA1E706B101341F4D04
S2140052E09DE706B101341E4D99E706B101341D4D08
S2140052F095E706B101341C4D91E706B101341B4D0C
S2140053008DE706B101341A4D89E725F0BEFF01345A
S214005310A9E700BF8E6E030020880300AD8303005C
S214005320A7830300FE8303006CA5030029970300F0
S214005330C3250300B5830300BE830300C5830300B3
S214005340D0830300DA830300E4830300CF830300E3
S214005350D9830300E3830300EC830300F083030098
S214005360F8830300A1830300A8830300F7830300E8
S214005370A0830300A5AC03002DE9F04F9BB00546C3
S2140053808B46009204932CF0C6FF249F049B059046
S21400539000241C600AAA3C6009A9284625F0A2FF42
S2140053A0064658B90A982CF0B6FF049B1860D5F844
S2140053B09C3003933446B146039B1BB920461BB072
S2140053C0BDE8F08F039B9B680193002B69D02E44A9
S2140053D016F8013B202B12D000260C23019A7343AB
S2140053E002EB030AD3580293002B55D0DDF8248035
S2140053F0C84551DB9AF808302BB1721C35E03B6883
S21400540001333B60E4E73B68D5F894200299D21A52
S214005410049B1A601AAB03EB890353F8403C0693CF
S21400542018462CF04CFF07900028E6D102982CF086
S21400543072FFDAF80410079AD7F800A00346087B34
S214005440FE2816D108F1FF38C8452ED00B680698FE
S214005450029201932CF05FFF0AF10103029A0344C3
S214005460E95C21B13B6009F101091646B5E7013355
S214005470F6E7D5F89420A2EB0A029A42BDDC58461D
S21400548006932CF048FF069B03447B2B1DD91F4A2E
S2140054900099584624F0DAFF059A2B462A449A4289
S2140054A02AD1039B1B68039386E7D5F89420A2EBCA
S2140054B00A029A42E3DDD1F8008058F80C2B82B934
S2140054C0059B3B60049B1A60E6E7029A00995846E3
S2140054D024F0BCFF0E4A00995846013424F0B6FF6B
S2140054E08BE70099584624F0B1FF094A00995846C0
S2140054F024F0ACFF0134E0E713F8011B0029CED1FD
S2140055004FF0200103F8011CC9E700BF0084030028
S2140055109C9C03002DE9F04786B0DDE90EA8002428
S2140055201C60064689468AF800401168154888F8C7
S214005530004017461D468DF81740FDF7BBF918B911
S2140055402B6801332B600124D6F89C60002036B906
S21400555014B1012388F8003006B0BDE8F087B068C3
S21400556068B14B46CDE902A8CDE900750DF11702EA
S214005570002125F0EEFC9DF81730002BE8D13668A8
S214005580E5E700BF058403002DE9F0430026ADF5EE
S214005590457D04467C22314605A802AF04962CF0D1
S2140055A086FE009703AB802204A92046FFF7E4FEA0
S2140055B001283ED104A82CF0AEFE03993B68A0EB70
S2140055C001080B44234428EAE878054604A8014469
S2140055D0424618462CF091FE00F80860D4F8906019
S2140055E0039B3968D4F890201944B14212DCD4F8F1
S2140055F09410E81A0244C4F89020014404AAC4F89F
S2140056009410D41825182B1B002B0DDC0DF5457DAA
S214005610BDE8F083A05C25F038FED4F89030013366
S214005620C4F890300136DBE714F8010B25F02DFEA8
S214005630E9E7EBDD24AD8022314628462CF037FE24
S21400564044AB4FF40072314618462CF030FE0DF194
S214005650100903464A464FF00108314612F8016B1E
S214005660002E49D104A843F828102CF054FE2946F1
S214005670334619F8016B0DF5887C5CF8042B8242E2
S21400568043D10133984501F8016BF2DAD4F8906003
S214005690039BB34242DC364A3648234604A925F02B
S2140056A000FE28462CF037FE039B3F6806461F4444
S2140056B0F61AE0191D4426EAE67204F19803174428
S2140056C0984204EB07014ED204F1900399424AD95E
S2140056D06A1E81190B1A002B39DD12F8013F00F8FB
S2140056E0013BD4F890300133C4F89030D4F89430AD
S2140056F00133C4F89430EDE7202E01F1010104BF18
S21400570043F8281008F10108A8E70DF1100E7244BE
S214005710D25CB242B1D00022EA54B7E7D4F8903057
S214005720E05C25F0B2FDD4F890300133C4F8903038
S2140057300136ADE7D4F890200132C4F89020D4F8B2
S21400574094200132C4F89420013B002BF2DC0023A5
S214005750E3552E44731B002B7FF758AF15F8010B4B
S21400576025F093FDF6E729462CF0C7FD3346ECE717
S2140057703C8203000A8403002DE9F843D0E924564E
S21400578004460F46002294F89830012B07D10A2FC2
S21400579007D1002384F898300020BDE8F88300F293
S2140057A09F801B2F01D10223F4E70D2F0DD101237B
S2140057B084F898300D2025F068FD0A2025F065FD58
S2140057C00023C4E924330120E7E74FF00008082F40
S2140057D084F8988034D1454530DDB5420FD138463F
S2140057E025F053FD013D202025F04FFD384625F0DD
S2140057F04CFD04F80580013EC4E92456CCE7FBDAEC
S21400580005F1FF39384625F040FD04EB0903A6EB09
S2140058100902611918462CF030FD04F8068001468E
S214005820484825F03EFD013E35464D4501DC4D46D7
S214005830E2E7082025F029FD013DF6E7ACD0DBE7DE
S2140058407F2F1CD1002EA7DDB542A5DA6319691C8F
S2140058502144721B18462CF010FD04F80680014601
S214005860394825F01EFD0820013E25F00EFDB54204
S214005870F9D1D4F89430013BC4F894308CE70A2F61
S21400588098D0092F03D12046FFF77EFE84E7D4F890
S2140058908C30013BB3427FF77FAFB54204EB05087F
S2140058A005F101090CDB88F80070D4F89430C4F8D0
S2140058B090900133C4F89430384625F0E6FC6BE748
